:100000000C9440020C94E50D0C9487020C9487022A
:100010000C9487020C9487020C9487020C9487023C
:100020000C9487020C9487020C940A220C94DC2214
:100030000C94B31B0C9487020C9487020C948702D7
:100040000C9487020C9487020C9487020C9487020C
:100050000C9487020C940C1C0C9487020C9487025D
:100060000C9487020C9487020C9487020C948702EC
:100070000C9487020C9487020C9487020C948702DC
:100080000C9487020C9487020C9487020C948702CC
:100090000C9487020C9487020C9487020C948702BC
:1000A0000C9487020C9487020C948702C308C6083C
:1000B000E608F708FF080A0962096209620950099F
:1000C00053090D091009150922092F0932093609AA
:1000D00043092B112B115D115D11AA11DE12DE12E5
:1000E000DE12C8115D126E126E12CE12DE12DE1218
:1000F000D7127A137A138C138C1383138C138C13EB
:100100008C137A137A1388138C138C138813AB1CFB
:10011000A11CAE1CF61CFA1CFA1CF61CFA1CFA1CDC
:10012000CF1CFA1CD91CE31CFA1CFA1CFA1CFA1C82
:10013000F61CFA1CFA1CF61CFA1CBC1CFA1CFA1C55
:10014000F31CF31CF31CF31CF31CF31CF31CF31C37
:10015000F31CF81CFA1CAB1C9E1CFA1CFA1CFA1CA3
:10016000FA1CFA1CFA1CFA1CFA1CFA1CFA1CF81CE1
:10017000FA1CFA1CF61CFA1CF11CF11CF11CF11CF7
:10018000F11CF11CF11CF11CF11CF81C492370231B
:10019000682470236824BC23DF2368243624452484
:1001A0001E001F0020002100220014001A00080079
:1001B0001500170004001600070009000A001D00C2
:1001C0001B00060019000500E000E300E2002A5DC4
:1001D0002C00270026002500240023001300120015
:1001E0000C0018001C002A000F000E000D000B0070
:1001F000280037003600100011004F005200510057
:100200005000E1003A003B003C003D003E00400051
:1002100041004200430044002900010001000100A8
:1002200001002B000100010001000100010001009C
:100230000100010001002E022D02380035003F00B0
:10024000310230002F00350245004C0034003300ED
:1002500001000100010001000100010001004D004A
:100260004B004E004A0001000000000000000000AA
:100270002A2B280000000000000000000000000001
:1002800000000029000000002C1E3420212224340C
:100290002627252E362D3738271E1F2021222324DE
:1002A00025263333362E37381F0405060708090A7A
:1002B0000B0C0D0E0F101112131415161718191A16
:1002C0001B1C1D2F3130232D350405060708090A94
:1002D0000B0C0D0E0F101112131415161718191AF6
:1002E0001B1C1D2F3130354C0000000000000000A9
:1002F0000000000000000000000000007E0F00D49D
:10030000FFFFFFC700000078040330000000220355
:10031000540068006500200035007800350020009A
:100320004B006500790062006F006100720064009C
:1003300000000C03640069003000690062000000E6
:100340000403090409025B00030100A0FA09040088
:1003500000010301010009211101000122400007F1
:1003600005810308000A09040100020300000009D6
:10037000211101000122220007058203200001074C
:100380000503032000010904020001030000000925
:100390002111010001226D000705840320000A12CB
:1003A00001100100000008EDFE0C0A250F010203F8
:1003B000010660FF0961A1010962150026FF009591
:1003C00020750881020963150026FF009520750835
:1003D0009102C005010980A101850319012AB70016
:1003E000150126B700950175108100C0050C0901A3
:1003F000A101850419012AA002150126A002950178
:1004000075108100C005010906A1018505050719C0
:10041000E029E715002501950875018102050719F6
:100420000029EF1500250195F075018102050819D5
:10043000012905950575019102950175039101C08A
:1004400005010906A101050719E029E715002501A5
:10045000950875018102950175088101050719004C
:1004600029FF150026FF009506750881000508196B
:10047000012905950575019102950175039101C04A
:1004800011241FBECFEFDAE0DEBFCDBF04B603FEFE
:1004900027C080918F0290919002A0919102B0911B
:1004A00092028730904BA740B04BD1F410928F024C
:1004B00010929002109291021092920214BE84B790
:1004C000877F84BF0FB6F894A895809160008861FB
:1004D00080936000109260000FBEE0E0F8E30995A1
:1004E00011E0A0E0B1E0EAEDF9E402C005900D9260
:1004F000A639B107D9F722E0A6E9B1E001C01D9203
:10050000AF38B207E1F70E94CB1E0C94EB240C9499
:1005100000000C9493020C9494020C9491020C949D
:10052000950281E0089508950895089581E0089561
:1005300008950C9498021F93CF93DF9300D000D0BE
:100540001F92CDB7DEB749835A836B833091B801D0
:1005500089819A81311114C0662359F0222349F010
:100560000E94B818182F682F89819A810E945F18FD
:1005700003C00E948B18182F69817A81812F04C0D3
:100580000E94B81869817A810F900F900F900F9098
:100590000F90DF91CF911F910C94340AFC01262F0C
:1005A000408151816281738184810C949B02CF933D
:1005B000DF93EC0160E00E94CE02BE01DF91CF919B
:1005C0000C949902FF920F931F93CF93DF93E82F20
:1005D000F0E0E859FD4FF490C82FC695C695C69532
:1005E000D0E0FE01E850FD4F0491877010E0082E26
:1005F00002C0159507950A94E2F701701127FE01D4
:10060000E851FD4FC491D0E002C0D595C7958A95B9
:10061000E2F7C170DD270115110519F081EE0E9486
:10062000CE0F209719F086EE0E94CE0F8F2D0E94DC
:10063000D410CD2B19F086EE0E947510012B41F0DD
:1006400081EEDF91CF911F910F91FF900C94751067
:10065000DF91CF911F910F91FF900895EF92FF923C
:100660000F931F93CF93DF93EC01162F0AE088813D
:10067000882309F455C0813009F043C08981813055
:1006800041F47E0182E0E80EF11C8A810E94D410C0
:1006900009C0823049F47E01E2E0EE0EF11C8A814D
:1006A0000E94CE0FE7012FC0833041F47E01F2E0BB
:1006B000EF0EF11C8A810E947510F4CF843011F086
:1006C000219621C02A81229680E090E030E02053DC
:1006D00031092A30310558F4089FA001099F500DB7
:1006E0001124C901840F951F21962881EFCF00970F
:1006F00051F0EFE9FFE03197F1F700C000000197FA
:10070000F6CF0E94E2022196812F882309F4AFCF11
:10071000EFE9FFE03197F1F700C000008150F5CF1D
:10072000DF91CF911F910F91FF90EF90089560E0BE
:100730000C942E038F929F92AF92BF92CF92DF9232
:10074000EF92FF920F931F936B017C0181E090E089
:10075000A0E0B0E04C015D0104C0880C991CAA1C0B
:10076000BB1C4A95D2F7AC01BD0104C0440F551F14
:10077000661F771F2A95D2F7482959296A297B29AC
:1007800004C0880F991FAA1FBB1F0A95D2F78A01C0
:100790009B010C211D212E213F214017510762078B
:1007A000730739F4BC01CD016C297D298E299F295D
:1007B0000AC080959095A095B095BC01CD016C21A3
:1007C0007D218E219F211F910F91FF90EF90DF904F
:1007D000CF90BF90AF909F908F9008950F93382F38
:1007E000262F60911402709115028091160290914B
:1007F0001702042F432F0E949A030F910C949B170A
:100800000E94451C0E94F019811102C00E94971A93
:100810000C9489020C948B0208950E9468130E9424
:100820000C042FEF84E39CE0215080409040E1F7DE
:1008300000C000000C94321C0F931F93CF93DF93E2
:10084000EC0161E00E94CE028C01BE010E947208A0
:10085000882379F1BE01C8010E948D02882349F1E5
:10086000BE01C8010E948E0B882319F1BE01C80188
:100870000E94E00B8823E9F0BE01C8010E940B0D25
:100880008823B9F08A81882369F001158CE518075F
:1008900031F00F3D1C4531F40E94971A0AC00E94A6
:1008A0000D0407C0CE01DF91CF911F910F910C94E1
:1008B000960280E0DF91CF911F910F91089581E022
:1008C00008950C945F04CF93C82F0E948F028C2F41
:1008D0000E946104CF91089580E090E0089508950A
:1008E000880F991FFC01E85FFC4F85919491089552
:1008F000CF93DF930E94340A0E948A05EC01811590
:10090000904508F043C0C11580E4D80708F0CBC07B
:10091000C03ED10528F5C03CD10508F0B3C0C83AA7
:10092000D10578F4C53AD10508F0A4C0C130D1058D
:1009300009F4ECC008F4E8C0C430D10508F0E6C002
:10094000E3C0CF3BD10508F0DFC0C85AD0E0CC0FE0
:10095000DD1FCA5EDE4F0990D881C02DD464D6C099
:10096000C11590E2D90750F4C11521E0D20708F073
:10097000CDC0C83ED10508F4C9C0C6C0C11580E3CA
:10098000D80708F086C0CE019F707FC0C11595E5DD
:10099000D90708F043C0C11524E5D20708F09AC072
:1009A000C11582E5D80708F5C11591E5D90708F00A
:1009B0007DC0CE0174E0969587957A95E1F78370B6
:1009C0009C2F937021E030E002C0220F331F9A95D4
:1009D000E2F73C68382BCF70C695C69580E2C89F79
:1009E000E0011124C22BD32B91C09E012370332729
:1009F0008C2F86958695C115D34508F05CC0C1E063
:100A0000D0E002C0CC0FDD1F2A95E2F720E2829FE2
:100A1000C0011124C82BD92BDC6878C0C11529E589
:100A2000D207A0F4C11588E5D80708F058C0C11551
:100A300096E5D90708F068C08C2F0E941E068F71BA
:100A4000C82FD0E0DC2FCC27D06260C0C1152AE5CA
:100A5000D20708F449C0CE0190568115904208F0A3
:100A600053C08D2F8F710E941E06DD27D0628F71BB
:100A7000D82B4CC0C55AD0E0CC5BDE4FC881D0E04B
:100A8000D06444C0CE01805C91090E947004EC01E6
:100A90003DC0CE019927D3FF03C0EC01D86C36C00E
:100AA000EC01D06C33C0DF70D06A30C0DC2FCC27B3
:100AB000C16FD06A2BC0C1E0D0E002C0CC0FDD1FF7
:100AC0002A95E2F720E2829FC0011124C82BD92B7E
:100AD000DA681CC0DC2FCC27C46FD06A17C0DC2FAB
:100AE000CC27C06FD06A12C08C2F8F700E941E0658
:100AF00094E0D695C7959A95E1F7CF70D0E0DC2FBA
:100B0000CC27D069C82B02C0C0E0D0E0CE01DF9175
:100B1000CF9108958238910569F1B0F48133910540
:100B200009F46DC048F48932910509F463C08A3232
:100B3000910509F469C008958533910509F455C0FC
:100B400089339105B9F00895833E910569F138F430
:100B5000803E9105B1F0823E910509F10895863EEF
:100B60009105A9F1873E9105B9F1843E910509F0FF
:100B700064C023C02091800220FD4FC021FD4DC0E4
:100B800008958091800280FD44C08091810280FFA1
:100B900044C08091800284FD42C083EE4DC08091AC
:100BA000800282FF38C0F5CF8091800282FD33C081
:100BB0008091810280FD31C0ECCF8091810281FF64
:100BC00032C08091800284FD2AC087EE35C08091BA
:100BD000800283FF26C0F5CF8091800283FD21C073
:100BE0008091810281FD1FC0ECCF8091800285FD44
:100BF0001CC01DC08091800285FD19C016C0809167
:100C0000800286FD16C017C08091800286FD13C049
:100C100010C089E311C082EE0FC080EE0DC080E0ED
:100C20000BC086EE09C084EE07C089E205C085E3EB
:100C300003C08AE201C081E390E0089590918002B0
:100C400092FF0DC0282F2871283019F4877F846007
:100C500006C0282F2471243011F48B7F886093FF05
:100C60000DC0282F2871283119F4877E846106C0B1
:100C7000282F2471243111F48B7E88612091810208
:100C800020FF0DC0382F3871383019F4877F81600C
:100C900006C0382F3171313011F48E7F886021FF0A
:100CA0000DC0282F2871283119F4877E816106C074
:100CB000282F2171213111F48E7E886194FD877E69
:100CC0000895E82FF0E0E059FD4F808108950895E0
:100CD00080EA8A95F1F70895F894E82FE295EF708D
:100CE000F0E031A1282F2F7081E090E001C0880F43
:100CF0002A95EAF7982F9095932391A392A1892B97
:100D000082A37894089508950E94CE0780910001EF
:100D100080910001811102C095E001C090E09093A4
:100D20007B0285E0891B80937A0284E90E946C062D
:100D300086E60E946C0687E90E946C0686EC0E949B
:100D40006C0684E30E946C0684EF0E946C0685EFBB
:100D50000E946C0686EF0E946C0687EF0E946C066C
:100D600081E30E946C06E6E6F2E0A0E7B2E01192B1
:100D70001D9282E0E037F807D1F785E00E947807FE
:100D80000E9400040C94D8070E94AF07882309F141
:100D900080917A0290E080599D4F0E94EB0781116B
:100DA00014C0809196018F5F80939601863078F011
:100DB000E0917A02F0E0E059FD4F80E090E011927E
:100DC000019685309105D9F702C0109296010C94D6
:100DD0000A0480917B0290E080599D4F0E94060892
:100DE0000C9483068F929F92AF92BF92CF92DF9224
:100DF000EF92FF920F931F93CF93DF938CE4A82E73
:100E000081E0B82EC6E6D2E091E5E92E91E0F92E18
:100E1000912C01E010E06501F5018081F894E82F44
:100E2000E295EF70F0E021A18F70A80102C0440F9D
:100E3000551F8A95E2F7CA01922F982B91A392A190
:100E40008095892382A378940E946806E7E4F1E004
:100E500020E030E0812C4191A42FA295AF70B0E04A
:100E600090968C9190E04F7002C0959587954A9529
:100E7000E2F780FD07C0802F022E01C0880F0A9480
:100E8000EAF701C080E0882A2F5F3F4F2530310507
:100E900011F75FEFA51AB50AF60180810E946C0672
:100EA0008881881619F0888281E001C080E0982A44
:100EB0002196EA14FB0409F0AECF60917B0270E04A
:100EC00060597D4F292D45E086E692E00E94790722
:100ED0000E94C406892DDF91CF911F910F91FF9041
:100EE000EF90DF90CF90BF90AF909F908F9008953C
:100EF0000895FF920F931F93CF93DF938C01F62EEB
:100F0000D72FC42F222349F081E0809399010E94BA
:100F1000E51B909398018093970180919901882314
:100F2000C1F080919701909198010E94FD1B069756
:100F300080F0EF2DFD2FD8014C2F50E0CD01801B0C
:100F4000910B841795071CF48D918193F7CF109224
:100F50009901DF91CF911F910F91FF90089580919A
:100F60009A01811112C08091D80080618093D800CD
:100F70008AE18A95F1F700C08091D90080FD02C016
:100F800082E001C081E080939A0181E090919A0112
:100F9000913009F080E008950C94AF070E94CC07CF
:100FA000809300010E94AF0781110C94DF07089520
:100FB0000E94AF07811102C00C94E507089561E01B
:100FC00070E081E091E00C94970D61E070E081E0C9
:100FD00091E00C949E0DCF93DF93D82FC92F0E94E0
:100FE000360E892B79F4ED2FFC2F80E090E0DC01A8
:100FF000A456BE4F2C912193019685309105B9F7E7
:1010000081E001C080E0DF91CF91089520E030E0E1
:10101000FC014191CF01F901E456FE4F40832F5F5F
:101020003F4F25303105A1F7089582E290E00E94FC
:10103000A924813281F483E290E00E94A9248330C4
:1010400051F484E290E00E94A92491E0823009F0FA
:1010500090E0892F01C080E081700895CF93C82F60
:10106000811102C06FEF01C061E282E290E00E9454
:10107000B724C11102C06FEF01C063E083E290E0CA
:101080000E94B724C11102C06FEF01C062E084E288
:1010900090E0CF910C94B72480E00E942E080C942D
:1010A000EA19089585E290E00E94A924682F70E073
:1010B00080E090E0089585E290E00C94B7240E94CF
:1010C00051080E94150881110CC060E070E0CB014E
:1010D0000E945B080E94AF090E948E0A81E00C9476
:1010E0002E080895CF93FB01C281CC23E9F09C0127
:1010F00022513F452031310520F482510E949E0A41
:101100000CC08031FFE59F0751F481E00E94C117B8
:1011100043E062E081E00E94EE03C0E018C081314C
:101120009F45A9F482E0F2CF8031EFE59E0711F4EC
:1011300081E004C081319F4549F482E00E94E217BA
:1011400043E062E081E00E94EE0301C0C1E08C2F29
:10115000CF9108952FEFFC0120830895EF92FF9225
:101160000F931F93CF93DF93EC01162FE8818E2FFF
:1011700090E0FC013197E331F10508F0A3C0EA5A91
:10118000FF4F0C949C24198289E04DC089818230E4
:1011900039F0833061F0813029F50E94F11B02C0E3
:1011A0000E9452089A838B837C836D838DC07E015D
:1011B00022E0E20EF11C00E0802F0E946106F701A0
:1011C00081937F010F5F0A30B9F77EC08981823039
:1011D00049F46A817B818C819D810E94A2240E94B6
:1011E0005B0872C0612FCE010E94AA086DC04B81BE
:1011F0006A8189810E9481099C838D8365C02C81CD
:101200003D813227232732274B816A8189810E94C1
:101210009A095AC00E94AF0957C00E94410A24C0CF
:101220000E94430A99838A834FC06B8170E0898151
:101230009A81AE014C5F5F4F9827892798270E94BB
:10124000460A42C06B8170E089819A81AE014C5F91
:101250005F4F9827892798270E946B0A35C00E9404
:101260008E0A32C00E946E0989832EC06B8170E0A5
:1012700089819A81AE014C5F5F4F98278927982713
:101280000E94EE0921C06B8170E089819A81AE01D4
:101290004C5F5F4F9827892798270E94120A14C035
:1012A0000E944C0811C0CE010E94BB1DFFEF21EE31
:1012B00084E0F15020408040E1F700C000000E942F
:1012C000321C02C08FEF8883612FCE01DF91CF9156
:1012D0001F910F91FF90EF900C94BB1D84E0089537
:1012E00050E0440F551F2AE0629F400D511D11240C
:1012F0009A0164E6869F200D311D1124C90186964E
:1013000008950F931F93CF93DF930E9470098C0170
:101310000E94A924C82FD0E0DC2FCC27C801019659
:101320000E94A9249E01282BC901DF91CF911F9112
:101330000F9108950F931F93CF93DF93122F032FD5
:101340000E947009EC01602F0E94B724612FCE012A
:101350000196DF91CF911F910F910C94B724AF921A
:10136000BF92CF92DF92EF92FF920F931F93CF9392
:10137000DF93A12CE12CF12CB12C00E010E0C0E0B7
:10138000D0E06701C00ED11EFE01EE0FFF1FEC0D75
:10139000FD1DE056FE4F259134914C2F6B2D8A2D6B
:1013A0000E949A092196C530D10571F7065F1F4F3B
:1013B000B3948AE0B812E3CF84E6E80EF11CA3945C
:1013C00084E0A812D9CFDF91CF911F910F91FF90A8
:1013D000EF90DF90CF90BF90AF900895EF92FF9283
:1013E0000F931F93CF93DF93EA017A01E60EF71E66
:1013F0008C01C8018696CE15DF0569F0003921E021
:10140000120720F40E94A924888301C01882219623
:101410000F5F1F4FEECFDF91CF911F910F91FF9084
:10142000EF900895EF92FF920F931F93CF93DF9366
:10143000EA017A01E60EF71E8C01C8018696CE15E8
:10144000DF0559F0003921E0120718F468810E9485
:10145000B72421960F5F1F4FF0CFDF91CF911F91DF
:101460000F91FF90EF900895462F843038F47A3032
:1014700028F4653018F4672F0C94810980E090E01F
:10148000089580E108958AE492E00895EF92FF9232
:101490000F931F93CF93DF93EA017A01E60EF71EB5
:1014A0008C01C8018A549E4FCE15DF0569F00A34BD
:1014B00022E0120720F40E94A924888301C0188228
:1014C00021960F5F1F4FEDCFDF91CF911F910F91AD
:1014D000FF90EF900895EF92FF920F931F93CF9399
:1014E000DF93EA017A01E60EF71E8C01C8018A54E7
:1014F0009E4FCE15DF0559F00A3422E0120718F48A
:1015000068810E94B72421960F5F1F4FEFCFDF91B4
:10151000CF911F910F91FF90EF900895CF93DF939C
:10152000C6EBD1E060E0CE010E94B7242196C11540
:1015300084E0D807B9F7DF91CF910895DF92EF9259
:10154000FF920F931F93CF93DF9300D000D0CDB7BE
:10155000DEB7F82E8FE08F15E8F18FEF93E00E9451
:10156000A924811137C006EB11E0FF2069F00115B5
:1015700084E0180779F1C8010E94A924811101C0F3
:10158000FA940F5F1F4FF1CF19821A821B821C82BF
:10159000DD24D39478018FEFE81AF80AC8010E947D
:1015A000A92489831A828823A9F09FEF980F93308A
:1015B00058F48A83D9820E5F1F4FC7010E94A92465
:1015C0008B83882339F07801CE0101960E9497031E
:1015D0008701E0CF0F900F900F900F90DF91CF9188
:1015E0001F910F91FF90EF90DF900895AF92BF92FF
:1015F000CF92DF92EF92FF920F931F93CF93DF93DF
:101600007C015B01C42FD22FFC0182818823F9F079
:101610004093A3010E94E51B9093A2018093A10136
:1016200080E28C0F883008F06EC0C77081E001C086
:10163000880FCA95EAF7DF91CF911F910F91FF9024
:10164000EF90DF90CF90BF90AF900C94E710809117
:10165000A301481335C08091A1019091A2010E947D
:10166000FD1B6C01B701C5010E942116C816D906E1
:1016700038F510E21D0FCD17B9F080E28C0F8830DD
:1016800040F4C77081E001C0880FCA95EAF70E9454
:10169000EE10183058F581E09D2F977001C0880F2B
:1016A0009A95EAF70E94E710802F0E94D410183014
:1016B00050F5D77081E001C0880FDA95EAF70AC0CB
:1016C00080E28C0F8830F8F4C77081E001C0880F89
:1016D000CA95EAF7DF91CF911F910F91FF90EF909C
:1016E000DF90CF90BF90AF900C94EE10802FDF91E1
:1016F000CF911F910F91FF90EF90DF90CF90BF900F
:10170000AF900C94D410DF91CF911F910F91FF9067
:10171000EF90DF90CF90BF90AF9008950F939C0112
:10172000CB01243F4CE5340731F188F4293DFCE539
:101730003F07D9F02A3D4CE5340779F1283D3C4577
:10174000A9F506E221EE41EE68ED7CE52BC0263FCF
:10175000FCE53F07E1F0A8F0273F3C4539F507E2FB
:1017600025EE46EE67EF7CE51DC007E225EE45EE6F
:1017700069ED7CE517C006E221EE40EE64EF7CE502
:1017800011C007E225EE44EE65EF7CE50BC006E2F2
:1017900021EE42EE66EF7CE505C008E221E045EE71
:1017A0006AED7CE50E94F60A80E008C0FC018281B7
:1017B000882319F01092A30101C081E00F910895D0
:1017C000CF93DF93EC01FB018281882309F41FC1D1
:1017D000C230FCE5DF0708F41BC1C6319CE5D90720
:1017E00038F09E012B5F3C452930310508F010C1CF
:1017F0000E94031A9093810280938002C031ECE52D
:10180000DE0709F4C3C008F041C0C8308CE5D80732
:1018100009F49AC0F0F4C430ECE5DE0709F487C09F
:1018200068F4C2308CE5D80709F477C0C330DC45D2
:1018300009F0E3C080918002826076C0C630ECE59A
:10184000DE0709F46EC008F07BC0809180028860DA
:101850006BC0CC308CE5D80709F485C068F4CA3079
:10186000ECE5DE0709F474C008F079C00E94681343
:1018700080918002806858C0CE308CE5D80709F48A
:1018800076C008F07FC0809180028BC0CC3FECE531
:10189000DE0709F44FC018F5C3318CE5D80709F409
:1018A0007DC078F4C131ECE5DE0709F473C0C231C4
:1018B000DC4509F0A2C00E946813809180028F77F6
:1018C00033C0C5318CE5D80709F472C008F486C06E
:1018D000CB3FDC4509F091C0809181023EC0C1152B
:1018E000FDE5DF0709F45FC058F4CE3F9CE5D9075A
:1018F00009F444C008F43FC08091810282602DC089
:10190000C230FDE5DF0709F475C008F45DC0C330DF
:10191000DD4509F072C080E06EC080918002816078
:1019200003C08091800280618093800266C08091B4
:10193000800211C0809181028260809381025DC02B
:10194000809180028062F0CF809180028064ECCF31
:101950008091800288608460E7CF8160EECF8091C3
:1019600080028E7FE1CF809180028D7FDDCF8091DC
:101970008002877FD9CF8091810218C08091810237
:101980008D7FDBCF809180028F7ECECF80918002D1
:101990008F7DCACF809180028F7BC6CF80918002DD
:1019A000877F8B7FC1CF809181028D7F8E7FC5CF56
:1019B0008091800282FB222720F991E0922790FB00
:1019C00082F990FB83F9B0CF80918102982F909596
:1019D00091708E7F892B90FB81F9AFCF0E946813A5
:1019E0008091800287FB222720F991E0922790FBCB
:1019F00087F99ACF81E00E94991A80918002909194
:101A000081020E94141A0E94681380E001C081E0E4
:101A1000DF91CF910895CF93DF9386319C4541F5B7
:101A2000EB010E943919982F8A8120910901309188
:101A30000A01882379F09A7A81E009F480E08093A2
:101A4000A401911102C069E201C065E3C9010E94CD
:101A5000341B0AC08091A401811102C069E201C057
:101A600065E3C9010E943F1B0E94871980E001C005
:101A700081E0DF91CF9108958EE1489B02C08150B3
:101A8000E1F7489BFECF0895589880E28A95F1F7D8
:101A9000589A0895FC012AE02A95F1F728E090E091
:101AA00080E031E040E14A95F1F7880F489B02C0A1
:101AB0008160932700C0000040E14A95F1F7215072
:101AC00089F720E12A95F1F729B100C0000030E143
:101AD0003A95F1F7217092272081920F9083089513
:101AE000EF92FF920F931F93CF93DF931F92CDB787
:101AF000DEB719828C017C01E60EF11C0E151F0564
:101B000051F00E943C0DCE0101960E944A0DF80151
:101B100081938F01F3CF81E09981911180E00F9043
:101B2000DF91CF911F910F91FF90EF9008959093C7
:101B3000A6018093A501509A589A08959093A60102
:101B40008093A5015098589AE89AE9E6F0E08081E0
:101B50008C7F80830895615091E001C0990F6A9550
:101B6000EAF720E031E0992361F0492F482319F08A
:101B7000589A232701C0589840E24A95F1F7969564
:101B8000F2CF222311F0589A01C0589880E28A952A
:101B9000F1F758980895FF920F931F93CF93DF9317
:101BA000EC018C01060F111DC017D10741F0F9900F
:101BB0000E94440D68E08F2D0E94AB0DF5CFDF91A0
:101BC000CF911F910F91FF9008951F920F920FB622
:101BD0000F9211242F933F934F935F936F937F93B3
:101BE0008F939F93AF93BF93CF93DF93EF93FF9325
:101BF0005898509AC091A501D091A6016D81662395
:101C000021F08E819F810E94CB0D0E94440D80E1C6
:101C10008A95F1F758985098589A80E18A95F1F78B
:101C20006A81662351F08B819C810E94700DE8814E
:101C3000F981811104C082E003C0E881F98188E064
:101C400080830E943C0DFF91EF91DF91CF91BF9176
:101C5000AF919F918F917F916F915F914F913F9144
:101C60002F910F900FBE0F901F901895CF93DF9379
:101C7000C091A501D091A601F894509A589885E09A
:101C80008A95F1F700005098589A80E28A95F1F70A
:101C9000489B0AC0509A589AE881F98181E0808374
:101CA000789481E090E02CC06D81662381F08E8174
:101CB0009F810E94700D81110AC0509A589AE88144
:101CC000F98182E08083789482E090E019C00E94DC
:101CD0003C0D80E28A95F1F75898509A80E18A95F8
:101CE000F1F76A81662321F08B819C810E94CB0DE4
:101CF0000E94440DE881F9811082789480E090E0A0
:101D0000DF91CF9108959093AC018093AB0108953A
:101D1000E091AB01F091AC01309721F00190F0819E
:101D2000E02D099480E00895E091AB01F091AC01C1
:101D3000309799F020911501222359F020918002CB
:101D400027FF07C0DC012C9111962C93119725E0F9
:101D50002C930280F381E02D099408952091A9012C
:101D60003091AA012817390771F09093AA01809346
:101D7000A901E091AB01F091AC01309721F0068010
:101D8000F781E02D099408952091A7013091A801D1
:101D90002817390771F09093A8018093A701E0916B
:101DA000AB01F091AC01309721F00084F185E02D7A
:101DB0000994089585B7806885BF85B7806885BF19
:101DC00008950C94AF0708950C94E30E0C94E30E61
:101DD0000C94E60E0C94E30E0C94EA0E0C94E30EB5
:101DE0000E94DA0E0E94EE0E0C94EC0E0E94DC1B98
:101DF0000E9484060E945F080E94591C0C94E80E01
:101E0000AF92BF92CF92DF92EF92FF920F931F9308
:101E1000CF93DF93CDB7DEB72A970FB6F894DEBF26
:101E20000FBECDBF0E94E40E0E94E30E0E94F20698
:101E30000E94E10E811111C08FEF89838A831B827A
:101E40000E94E51B8160782F9D838C8349815A8194
:101E50006B818D810E949A0F40C08EEAA82E81E08E
:101E6000B82E00E010E0C02E802F0E946106E82E00
:101E7000F501D1905F01D82631F40F5F1F4F0A3072
:101E8000110589F7D9CF8091410281FD0E94670633
:101E900080E0FF24F3949D2D9F21D1F08E83CF828B
:101EA000EF2081E009F480E088870E94E51B8160D3
:101EB000782F9A8789874E815F8168858A850E94FD
:101EC0009A0FF801E255FE4F8081F826F08205C096
:101ED0008F5FFF0C8530F9F6D0CF0E94880E90916D
:101EE000AD018917B1F00E94880E8093AD012A964A
:101EF0000FB6F894DEBF0FBECDBFDF91CF911F911B
:101F00000F91FF90EF90DF90CF90BF90AF900C9427
:101F100063042A960FB6F894DEBF0FBECDBFDF91E3
:101F2000CF911F910F91FF90EF90DF90CF90BF90D6
:101F3000AF900895CF93DF93CDB7DEB72B970FB651
:101F4000F894DEBF0FBECDBF4F83588769877A876D
:101F50008B87DE01119686E0FD0111928A95E9F7E3
:101F600085E0FE01379601900D928A95E1F749814F
:101F70005A816B817C818D819E810E9424162B96D3
:101F80000FB6F894DEBF0FBECDBFDF91CF9108959D
:101F9000FC01808191810E94FA180895CF938823D3
:101FA00009F4A1C0C82F8238C1F40E94880E81FDB7
:101FB0009AC069E38091090190910A010E94341B43
:101FC0000E9487192FEF81EE94E0215080409040CD
:101FD000E1F700C0000069E319C0833801F50E94F1
:101FE000880E80FD80C063E58091090190910A010F
:101FF0000E94341B0E9487192FEF81EE94E021503C
:1020000080409040E1F700C0000063E58091090145
:1020100090910A010E943F1BCF910C94871984383C
:10202000C1F40E94880E82FD5EC067E480910901C0
:1020300090910A010E94341B0E9487192FEF81EEB4
:1020400094E0215080409040E1F700C0000067E438
:10205000DDCF8CEF8C0F813AF8F48C2F0E94001D9D
:10206000811141C06C2F8091090190910A010E9459
:10207000B41A882349F06C2F8091090190910A01CC
:102080000E943F1B0E9487196C2F8091090190913B
:102090000A010E94341BC0CF80E28C0F883048F4C4
:1020A000C77081E001C0880FCA95EAF70E943C1909
:1020B000B3CFEBE5EC0FE33040F4F0E0EC57FE4F2C
:1020C000808190E0CF910C94AE0EC85AC73158F47D
:1020D000EC2FF0E0EE0FFF1FEA5AFE4F8081918156
:1020E000CF910C94C40ECF910895882309F45BC05E
:1020F000682F823879F40E94880E81FF54C069E30A
:102100008091090190910A010E94341B0E94871955
:1021100069E310C08338B1F40E94880E80FF43C089
:1021200063E58091090190910A010E94341B0E948D
:10213000871963E58091090190910A010E943F1B74
:102140000C948719843879F40E94880E82FF2BC082
:1021500067E48091090190910A010E94341B0E945A
:10216000871967E4E7CF8CEF860F813A18F380E296
:10217000860F883048F4677081E001C0880F6A9547
:10218000EAF70E944219DCCF8BE5860F833020F4FA
:1021900080E090E00C94AE0E685A673120F480E045
:1021A00090E00C94C40E0895CF93C82F0E94CE0FD8
:1021B000C93349F42FEF87EE93E0215080409040DF
:1021C000E1F700C000008C2FCF910C94751088238C
:1021D00021F00E943C190C9487190895882321F05E
:1021E0000E9442190C9487190895CF92DF92EF92C2
:1021F000FF920F931F93CF93DF937C01062FC72F7E
:10220000FC01158112951F70D281D1110E945919BC
:102210000E943219882399F0DD2389F08C2F807F6A
:10222000803421F080E2800F883048F082E00E9404
:10223000D1190E94321991E0D82ED92601C0D12C93
:10224000CC2EC2948FE0C8228C2D90E0FC01E7597F
:10225000FF4F0C949C248C2F807FCF70882311F02B
:10226000C295C07FDD2399F0CC2309F482C180E2BE
:10227000800F883010F0011104C08C2F0E943C198F
:1022800003C08C2F0E944C190E94871972C1802FA5
:102290000E947510CC2309F491C180E2800F883030
:1022A00010F0011104C08C2F0E94421903C08C2F22
:1022B0000E9452190E94871981C18C2F807FCF7094
:1022C000803211F0C295C07F002319F00130C9F0AF
:1022D00022C0DD2371F0112341F0113031F40E944E
:1022E0006C198C2B0E94741969C10E946C198C2B7B
:1022F0001DC0112319F0113009F460C10E947D192D
:1023000025C0DD2321F0163008F058C10EC015306D
:1023100008F054C11BC0DD2361F0112331F0F70137
:10232000858180FF26C18F7085838C2F0E94E710E6
:1023300045C1112359F0093309F02CC1FFEF27EEF5
:1023400083E0F15020408040E1F722C18C2F0E94B1
:10235000EE1034C18C2F86958695837019F08130EC
:1023600061F02CC1DD2321F0802F9C2F937002C0DF
:1023700080E090E00E94AE0E29C1DD2321F0802F85
:102380009C2F937002C080E090E00E94C40E1EC19A
:102390008C2F837009F045C0D11114C1402F429594
:1023A00046954770440F440F602F6F70862F90E062
:1023B000A0E0B0E0042E04C0880F991FAA1FBB1F25
:1023C0000A94D2F704FF10C00FE010E020E030E0E4
:1023D00004C0000F111F221F331F4A95D2F700952A
:1023E00010952095309503C000E010E09801C69547
:1023F000C695C370BC01CD01602B712B822B932B32
:10240000C23049F058F4C13019F00E947517DAC093
:102410000E946317D7C00E948717D4C00E9461171B
:10242000D1C0DD2319F08C2F817001C086958823DF
:1024300009F4C8C0402F429546954770440F440F99
:10244000602F6F70862F90E0A0E0B0E0042E04C0F3
:10245000880F991FAA1FBB1F0A94D2F704FF10C050
:102460000FE010E020E030E004C0000F111F221F39
:10247000331F4A95D2F7009510952095309503C0EB
:1024800000E010E09801C695C695C370BC01CD016F
:10249000602B712B822B932BC23049F058F4C13042
:1024A00019F00E943A188EC00E9428188BC00E9412
:1024B0004C1888C00E949B1785C0CF70DD2339F06F
:1024C0008C2F0E94C117802F0E94E7107BC0802FA5
:1024D0000E94EE108C2F0E94E21774C0023F01F19F
:1024E00028F4003F41F0013FA1F03FC0033FF9F065
:1024F000043F39F13AC0DD2341F0153008F05EC0E9
:102500008C2F8F710E94071859C0163008F056C0E2
:10251000F7CFDD2339F08C2F8F710E94C1174EC089
:10252000DD23C9F38C2F8F710E94E21747C0DD2392
:1025300029F08C2F8F710E94AC1740C00E94A71702
:102540003DC0DD2349F0CF718C2F0E94C11763E09D
:102550008C2F0E94BC1932C081E00E94D119123028
:1025600068F182E00E94D11929C0DD2331F01123E6
:1025700091F2802F0E94CE0F21C0112399F20933CE
:1025800049F49FEFE7EEF3E09150E040F040E1F7CF
:1025900000C00000802F0E94751010C04C2F4F709B
:1025A000602FC7010E946C040E94D2160FC04C2FEE
:1025B0004F70602FC7010E946F0408C088EF8C0D18
:1025C000843020F40E94880E0E946304DD20C9F04C
:1025D0000E942E1980FD15C0F70112820E94281951
:1025E0000E94C117C7010E9422130E942819DF917F
:1025F000CF911F910F91FF90EF90DF90CF900C94AF
:10260000E217DF91CF911F910F91FF90EF90DF9034
:10261000CF9008950F931F93CF93DF93EC016881C0
:1026200079818A810E9405198C010E945E180E949E
:102630004F17B801CE010E94F510DF91CF911F9185
:102640000F910895CF93DF93EC01988189812B81BD
:102650003C81232B31F08F3F31F481E09F3F19F40F
:1026600003C081E001C080E080FD19C0CE010E945E
:102670001C0481110CC00E943219882381F08A81C8
:10268000882369F082E0DF91CF910C94D119CE01BB
:102690000E940A13CE01DF91CF910C94D702DF91F3
:1026A000CF9108950E9459190E9469190E948719B3
:1026B00080E090E00E94AE0E80E090E00C94C40EAA
:1026C0008091090190910A010E944A1B0C945213B7
:1026D0000E9449190C946013E92FE295EF704E2F78
:1026E00050E0FA013297EE30F105B0F4E758FF4FB1
:1026F0000C949C24803F91F018F4883E68F40EC03E
:10270000843F51F40BC0883E48F0813F29F406C055
:1027100093FB882780F9089580E0089581E008956B
:102720000E94FA180E946C130895CF93DF9300D093
:1027300000D01F92CDB7DEB70F900F900F900F9083
:102740000F90DF91CF910895CF93DF9300D000D009
:1027500000D0CDB7DEB726960FB6F894DEBF0FBE19
:10276000CDBFDF91CF9108951F93CF93DF93C09199
:10277000B90116E08091BA01C81799F0D0E01C9F0A
:10278000F0011D9FF00D1124E554FE4F4081518151
:1027900062817381848195810E94A4132196C77000
:1027A000E9CFDF91CF911F9108954091EB015091B6
:1027B000EC016091ED017091EE018091EF0190913B
:1027C000F0010C94A4130F931F93CF93DF93809188
:1027D000F00182958F7009F05DC08091ED01882332
:1027E00009F458C08091B9011091BA016091EB01D0
:1027F0007091EC01C091EE01D091EF0191E06F3F3B
:1028000009F090E0292F06E0811709F443C02097D2
:1028100021F07F3F21F030E003C031E001C0322FD2
:1028200090E030FD34C0089FF001099FF00D1124A5
:10283000DF01A554BE4F11963C911197371327C065
:102840003C91361324C012963C91129731111FC04F
:1028500013964D915C9114974C1B5D0B483C5105B0
:10286000B0F48091F0018F7080618093F001E054AA
:10287000FE4F80818F70806180838BEE91E00E949B
:102880002213DF91CF911F910F910C94B4130196F5
:102890008770BACFDF91CF911F910F9108959F92CA
:1028A000AF92BF92CF92DF92EF92FF920F931F935E
:1028B000CF93DF93CDB7DEB761970FB6F894DEBF45
:1028C0000FBECDBF8C0185E0F801DE011D960190A1
:1028D0000D928A95E1F7F80140815181E280909153
:1028E000EB016091EC012091EE013091EF01211597
:1028F000310531F06F3F31F481E09F3F19F403C09F
:1029000081E001C080E0F82FF1709F2E80FD46C16C
:10291000F801A380B4808BEEC82E81E0D82EF09011
:10292000ED01F501E21BF30BFF2009F4DFC08091FC
:10293000F001E83CF10508F09BC0282F207F09F04A
:1029400052C0561313C0491311C0FE2CE1100EC023
:102950008F7080618093F0010E94D513C6010E94A0
:1029600022138091F001F801858358C1AB2831F022
:102970005F3F31F481E04F3F19F403C081E001C0B3
:1029800080E080FD03C081E08E2502C080E090E001
:10299000F82FF170FF2E80FF1CC08091B9012091AB
:1029A000BA0136E0821709F417C190E0389FF001B0
:1029B000399FF00D1124E554FE4F6181561306C076
:1029C0006081461303C06281E61203C001968770DE
:1029D000E9CFFE2CEE2009F421C18091F001816045
:1029E0008093F0015AC0561306C0491304C0E11089
:1029F00002C0F8019FC04D875E878D859E850E942D
:102A00009013882379F1EE2069F12091F001822F53
:102A100082958F7090E0029774F08091EB01909115
:102A2000EC0198878F831986BB86AA862C87CE01F6
:102A300007960E94221386E0F801ABEEB1E0019008
:102A40000D928A95E1F70E94E3130E94D5130DC001
:102A5000561729F14D875E878D859E850E949013BC
:102A600081112CC0C8010E942213FF24F394D6C008
:102A7000282F207F69F77A2DB98AA88A6E2D898937
:102A80000E9495138BEE91E00E94221386E0F601DE
:102A900011928A95E9F70E94D513F12CBFC0491312
:102AA000D9CFE110D7CFF8018583C8010E94221346
:102AB00086E0F60111928A95E9F7B0C0EE2091F216
:102AC0002091F001822F82958F7090E002970CF494
:102AD000B2CF8091EB019091EC019A8389831B82A4
:102AE000BD82AC822E83CE010196A3CFE83CF105D6
:102AF00008F047C0FE2CEE2009F4B4CF561330C0C6
:102B000049132EC02091F00120FD21C0822F829513
:102B10008F70482F50E041155105C9F0F801258309
:102B20004F30510541F08F5F982F9295907F822F03
:102B30008F70892B8583C8010E94221386E0F801DB
:102B4000ABEEB1E001900D928A95E1F742C086E0CC
:102B5000F801ABEEB1E001900D928A95E1F75EC00D
:102B60004D875E878D859E850E949013811163CF6E
:102B70008091F00181608093F001C8010E942213CE
:102B80004DC07A2DB98AA88A6E2D89890E94951325
:102B900086E0F60111928A95E9F71BC0EE2009F450
:102BA00061CF4D875E878D859E850E949013F82E9C
:102BB000882309F457CF86E0F801ABEEB1E001902D
:102BC0000D928A95E1F78BEE91E00E94C80F0E946A
:102BD000E3130E94D51322C04D875E878D859E85A5
:102BE0000E94FA18292F22952F70223028F49F7006
:102BF00039F0811105C00BC0243028F49F7049F4CE
:102C0000805E883020F0C8010E9422139F2CF92C8E
:102C100005C0F8019581907F99F7F9CF8F2D6196C6
:102C20000FB6F894DEBF0FBECDBFDF91CF911F91DD
:102C30000F91FF90EF90DF90CF90BF90AF909F905B
:102C4000089588EC90E008951F93CF93DF93CDB75C
:102C5000DEB72C970FB6F894DEBF0FBECDBF4F8303
:102C6000588769877A878B879C87CE0107960E9451
:102C70004F148823D1F09F8188852A853B85232B9B
:102C800031F08F3F31F481E09F3F19F403C081E0C0
:102C900001C080E080FD47C04F81588569857A85F5
:102CA0008B859C850E94A4133EC086E0FE0137966A
:102CB000DE01119601900D928A95E1F7FF81E8857A
:102CC0006A857B856115710531F0EF3F31F481E054
:102CD000FF3F19F403C081E001C080E080FD23C004
:102CE0002091BA0130E0C90101968770992740917F
:102CF000B90150E084179507F1F1F983EA837D83E8
:102D00006C8396E0929FD001939FB00D1124A5543F
:102D1000BE4FFE01319601900D929A95E1F7809396
:102D2000BA010E94B41316E08091B9019091BA01E2
:102D3000891771F1189FC001112485549E4F0E947C
:102D40004F14882329F1E091B9011E9FF00111244D
:102D5000E554FE4F40815181628173818481958168
:102D60000E94A4138091B90190E001968770992781
:102D70008093B901D9CF0E9468131092BA011092C2
:102D8000B901EBEEF1E086E0DF011D928A95E9F7EB
:102D90002C960FB6F894DEBF0FBECDBFDF91CF915A
:102DA0001F910895EF92FF920F931F93CF93DF939C
:102DB0008C01892B09F46CC0F12CEE24E394E8011A
:102DC0002196F8018491843740F4843008F051C092
:102DD000813081F0823019F15BC0853709F444C03D
:102DE000A8F19CE7980F903708F052C08F770E94A7
:102DF000751041C00E5F1F4FFE01849190E2980F45
:102E0000983050F48770FE2D01C0FF0F8A95EAF7C5
:102E10008F2F0E945C1914C00E94CE0F2DC00E5F30
:102E20001F4FFE01849190E2980F983060F48770F4
:102E3000FE2D01C0FF0F8A95EAF78F2F0E946219BD
:102E40000E94871919C00E94751016C00E5F1F4F8F
:102E5000FE01C491CC2381F08FE99FE00197F1F747
:102E600000C00000C150F6CF0E5F1F4FFE01F4906E
:102E700003C00E94CE0F8E018F2D882309F49FCFAF
:102E8000EFE9FFE03197F1F700C000008150F5CF86
:102E9000DF91CF911F910F91FF90EF9008950895CA
:102EA00008950C9450170C9451170E945317609377
:102EB00018027093190280931A0290931B020C94CB
:102EC00052130C9455170F931F93009118021091F1
:102ED000190220911A0230911B02602B712B822B58
:102EE000932B1F910F910C9455170F931F930091E3
:102EF00018021091190220911A0230911B026023CE
:102F00007123822393231F910F910C9455170F93D4
:102F10001F93009118021091190220911A0230910A
:102F20001B0260277127822793271F910F910C9412
:102F300055170C9450170E949917609314027093C0
:102F4000150280931602909317020C94521360E0BE
:102F500070E0CB010C949B170F931F9341E050E05E
:102F600060E070E08A019B0104C0000F111F221F66
:102F7000331F8A95D2F7C901B8011F910F910C94A4
:102F80009B170F931F9341E050E060E070E004C096
:102F9000440F551F661F771F8A95D2F78091140240
:102FA00090911502A0911602B09117028A019B011F
:102FB000082B192B2A2B3B2BC901B8011F910F910C
:102FC0000C949B170F931F9341E050E060E070E07A
:102FD00004C0440F551F661F771F8A95D2F740958E
:102FE0005095609570958091140290911502A09172
:102FF0001602B09117028A019B01082319232A2384
:103000003B23C901B8011F910F910C949B170F939B
:103010001F9341E050E060E070E004C0440F551F92
:10302000661F771F8A95D2F780911402909115023E
:10303000A0911602B09117028A019B010827192757
:103040002A273B27C901B8011F910F910C949B17A8
:103050000F931F93009114021091150220911602F4
:1030600030911702602B712B822B932B1F910F91A4
:103070000C949B170F931F9300911402109115024B
:10308000209116023091170260237123822393232B
:103090001F910F910C949B170F931F930091140293
:1030A00010911502209116023091170260277127A6
:1030B000822793271F910F910C949B17089524E06A
:1030C000929F900D1124890FE82FE695E695E695DD
:1030D000877051E001C0550F8A95EAF785E0E89FB7
:1030E000F0011124EF50FE4F20E030E070E040810D
:1030F000CB01022E02C0969587950A94E2F7817063
:10310000819584278523842781932F5F3F4F253026
:10311000310569F7089524E0929F900D1124890FDD
:10312000682F669566956695982F977085E0689FDD
:10313000B001112440E050E080E0FB01E40FF51FF6
:10314000EF50FE4F208130E0092E02C036952795C2
:103150000A94E2F721703327042E01C0220F0A944B
:10316000EAF7822B4F5F5F4F4530510531F70895E5
:10317000BF92CF92DF92EF92FF920F931F93CF9364
:10318000DF938C01C0901402D0901502E0901602DB
:10319000F09017028091180290911902A0911A02E2
:1031A000B0911B02C82AD92AEA2AFB2ACFE1D0E033
:1031B000D701C6010C2E04C0B695A79597958795A3
:1031C0000A94D2F780FD04C0219790F7B12C07C074
:1031D000BC2EB8018C2F0E9478040197A9F38B2D87
:1031E000DF91CF911F910F91FF90EF90DF90CF90E3
:1031F000BF900895CF93DF93EC010E94B818BE01F1
:103200000E947804DF91CF9108951F93CF93DF93AD
:10321000EB019091B801992321F0CB010E94FA189B
:1032200013C0882349F0CB010E94B818182F682FCB
:10323000CE010E945F1804C0CB010E948B18182F8A
:10324000BE01812F0E947804DF91CF911F910895D4
:1032500080911C02859585958595089580911C0225
:103260008770089590911C02977081E009F480E0C6
:10327000089580914002089590914002892B809397
:1032800040020895809590914002892380934002E6
:10329000089510924002089590913F02892B8093E7
:1032A0003F020895809590913F02892380933F02C9
:1032B000089510923F02089590913E02892B8093C9
:1032C0003E020895809590913E02892380933E02AC
:1032D000089510923E02089580911D020895089568
:1032E0000C946F190C94701990911D02981721F08D
:1032F00080931D020C947219089580911D028823F9
:1033000029F010921D0280E00C9472190895E0914A
:103310000901F0910A01809140028083E091090146
:10332000F0910A01908180913F02892B8083E09186
:103330000901F0910A01908180913E02892B8083DE
:1033400080911D02882381F0E0910901F0910A012A
:103350009081892B80838091090190910A010E94BC
:103360009E1A81110E947D198091090190910A0194
:103370000C94940E0C946F1998E0899F900111247D
:10338000262B20931C020E94C11780911C02859558
:10339000859585950C94BA1910921C0280E00C94C6
:1033A000BA1920911C028095822380931C02982FC9
:1033B000977079F430E0482F082E000C550B241735
:1033C000350739F08595859585950E94E2170C940F
:1033D000CC1908956FEF7FEF80E090E00C94D52436
:1033E00080E090E00E94B12421E08C3E9E4F09F0E5
:1033F00020E0822F089582E090E00C94A92483E0DD
:1034000090E00C94A924CF9384E090E00E94A9243A
:10341000C82F81E290E00E94A9242C2F30E0A9015E
:10342000582BCA01CF910895CF93C92F682F84E0FC
:1034300090E00E94B7246C2F81E290E0CF910C9431
:10344000B724AB01BC018FE090E00C94C924AB0120
:10345000BC0183E190E00C94C92460E070E0CB01F2
:103460000C94271A60E070E0CB010E94211A0C94A2
:103470002D1A6CEE7EEF80E090E00E94D52460E093
:1034800082E090E00E94B72460E083E090E00E9438
:10349000B724109218021092190210921A02109278
:1034A0001B0260E084E090E00E94B72460E081E2CB
:1034B00090E00E94B72460E085E090E00E94B7248D
:1034C00060E086E090E00E94B7246FEF87E090E034
:1034D0000E94B72440E050E0BA0188E090E00E94EA
:1034E000C92460E08DE090E00E94B72440E050E005
:1034F000BA0188E190E00E94C92460E087E190E091
:103500000E94B72440E050E0BA018CE190E00E94B4
:10351000C92460E080E290E00E94B72440E050E0DF
:10352000BA0188E190E00E94C9240C94321A0C94EC
:10353000391A682F8EE090E00C94B724FC01329683
:1035400080911501882331F08091800287FF02C0AD
:103550009EE101C096E080E0915028F02191222365
:10356000D9F38F5FF9CF0895662351F120911501AA
:103570002223E9F02091800227FF19C0462F4695AB
:10358000469546954E31E0F4677021E030E002C088
:10359000220F331F6A95E2F7FC01E40FF11D8281CF
:1035A00090E02823392381E0232B69F409C0FC0132
:1035B000329608962191621729F0E817F907D1F79A
:1035C00080E0089581E008959C01FC0132969FEF10
:1035D00080E04191461789F09F3F19F4411101C0E5
:1035E000982F8F5F8630A9F79F3F39F0F901E90FD7
:1035F000F11D97FDFA956283089508959C012A5F55
:103600003F4FFC014281461301C01282019682178E
:103610009307B9F70895262F2695269526952E31DE
:1036200068F4FC01E20FF11D677021E030E001C099
:10363000220F6A95EAF78281282B22830895262F8C
:103640002695269526952E3170F4FC01E20FF11D8A
:10365000677021E030E001C0220F6A95EAF72095FB
:10366000828128232283089520911501222329F0A5
:103670002091800227FD0C940B1B0C94E41A2091DE
:103680001501222329F02091800227FD0C941F1B95
:103690000C94FE1A20911501FC013296222331F080
:1036A0008091800287FF02C08EE101C086E0DF01C9
:1036B0001D928A95E9F7089508950C945C1B0C946B
:1036C0005C1BCF930E945F1B0E94F2060E945D1B51
:1036D000C0E08C2F0E946106811104C0CF5FCA3008
:1036E000C1F701C081E0CF9108950C945C1B0C944C
:1036F000751B0E94771B80918602843049F11092DD
:10370000420220E488E190E00FB6F894A8958093F7
:1037100060000FBE2093600080E00E9463040E945E
:10372000771B83B7817F846083BF83B7816083BF4A
:103730007894889583B78E7F83BF0FB6F894A89549
:1037400080916000886180936000109260000FBEDD
:1037500008950C945C1B0E9468130E94880E0E94BE
:1037600063040C94A91B1F920F920FB60F921124A1
:103770008F939F93AF93BF9380914202811113C0A7
:1037800080917C0290917D02A0917E02B0917F0297
:103790004196A11DB11D80937C0290937D02A09360
:1037A0007E02B0937F02BF91AF919F918F910F9056
:1037B0000FBE0F901F90189582E084BD93E095BDD9
:1037C0009AEF97BD80936E0008952FB7F89480917B
:1037D0007C0290917D02A0917E02B0917F022FBF6A
:1037E00008952FB7F89460917C0270917D028091CA
:1037F0007E0290917F022FBF08959C014FB7F894ED
:1038000080917C0290917D02A0917E02B0917F0216
:103810004FBF821B930B089578941F920F920FB69F
:103820000F9211248F939F93AF93BF9380917C024B
:1038300090917D02A0917E02B0917F020196A11D20
:10384000B11D80937C0290937D02A0937E02B09381
:103850007F02BF91AF919F918F910F900FBE0F90FC
:103860001F90189587E797E79093010880930008C9
:103870009AE088E10FB6F894A895809360000FBE97
:1038800090936000FFCF0C944C080E94F2068FE3E7
:103890009CE90197F1F700C000000E94F20680E069
:1038A0000E94610680FF04C00E94431C0C94321CDD
:1038B00008950E94F019811102C00E94971A0E9477
:1038C000FB19809341020E94031A90938102809316
:1038D00080020E94FF19682F70E080E090E00E9453
:1038E00061176091140270911502809116029091F7
:1038F00017020C9499170F931F9341E050E060E07A
:1039000070E08A019B0104C0000F111F221F331FAA
:103910008A95D2F7C901B8010E9461171F910F91D2
:103920000C946813482F50E0FA013597EF33F105F6
:1039300008F060C0E957FF4F0C949C240E94971A2E
:1039400055C080914102817F8E7F8093410281E04A
:103950008093430208950E940D0448C08091410263
:10396000982F9095917090FB80F98093410291116E
:103970003DC0897F877F10C08091410281FB222753
:1039800020F991E0922790FB81F9809341029923DD
:1039900069F18091410281608093410227C080914A
:1039A000410282FB222720F991E0922790FB82F9C5
:1039B000ECCF8091410283FB222720F991E09227EE
:1039C00090FB83F9E2CF0E9468138091800287FB0D
:1039D000222720F991E0922790FB87F980938002BB
:1039E00005C0895301C08D510E947B1C81E0089560
:1039F00080E0FACF80E0089580E008950C94FC1CEC
:103A0000CF93C82F80914302882319F0813031F081
:103A10002BC00E943919823249F504C00E9439191D
:103A2000823261F48C2F0E94FE1C811104C08C2F05
:103A30000E94921C17C081E090E014C08C2F0E945D
:103A4000FC1C81110EC0C43149F018F4CB3049F090
:103A50000FC0C93219F0C83321F00AC010924302D6
:103A600007C081E0817006C01092430280E002C06E
:103A700080E0F8CFCF910895809164020895089571
:103A8000CF93DF9300D01F92CDB7DEB7909186021F
:103A9000943011F589837B836A839093E9008FEFDB
:103AA0009091E800815095FD06C095ED9A95F1F74B
:103AB00000008111F5CF8091E80085FF0DC040E046
:103AC00050E063E070E0CE0101960E94B31F809148
:103AD000E8008E778093E8000F900F900F90DF91B1
:103AE000CF910895BC0184E00C94401DBC0183E09B
:103AF0000C94401DCF93DF9320911501222339F0C0
:103B00002091800227FF03C060E224E002C068E049
:103B100021E02093E9002FEF3091E800215035FD9E
:103B200006C035ED3A95F1F700002111F5CF20914F
:103B3000E80025FF1DC0EC0180911501811105C031
:103B400040E050E068E070E003C070E040E050E02A
:103B5000CE010E94B31F8091E8008E778093E80029
:103B600080E2FE01A4E4B2E001900D928A95E1F7B3
:103B7000DF91CF910895CF93603219F5209186029D
:103B80002430F9F4C091E900CF703091EC00232F7C
:103B9000217030FD20E8C22B22E02093E900209123
:103BA000E80020FF0BC040E050E060E270E00E94BF
:103BB000B31F8091E8008E778093E800CF70C093A8
:103BC000E900CF91089580918502811109C00E947A
:103BD0008F210E94EC218091E20084608093E200BA
:103BE0000895109285020895089508950C94AB1BD2
:103BF00042E061EC81E00E94082142E261EC84E055
:103C00000E94082142E261EC82E00E94082142E227
:103C100060EC83E00C94082180918802833009F4E1
:103C200062C030F4813071F0823009F49BC0089595
:103C30008A3009F487C08B3009F46DC0893009F0EF
:103C4000A9C020C080918702813A09F0A3C0809169
:103C5000E800877F8093E80080918B0290918C022E
:103C6000892B21F460E284E492E003C060E080E00C
:103C700090E070E00E9449208091E8008B7780936B
:103C8000E800089580918702813209F083C0809115
:103C90008B0290918C02009719F0029709F07AC07C
:103CA0008091E800877F8093E8008091E80082FDA2
:103CB00005C0809186028111F8CF6CC02091F3007D
:103CC0008091F20090E0922B029729F48091F1000C
:103CD0008B7F813021F48091F10080936402809188
:103CE000E8008B7753C080918702813A09F052C077
:103CF00080918B0290918C02892B09F04BC08091AE
:103D0000E800877F8093E8008091E80080FFFCCF87
:103D10008091150136C0809187028132D9F580915A
:103D20008B0290918C02892BA9F58091E800877F06
:103D30008093E8000E943D218091890280931501C3
:103D40000C94681380918702813221F58091E800FC
:103D5000877F8093E8000E943D2180918A028093B2
:103D60006502089580918702813AA1F48091E8006C
:103D7000877F8093E8008091E80080FFFCCF8091EE
:103D800065028093F1008091E8008E778093E800CF
:103D90000C943D2108951F93CF93DF93CDB7DEB7E9
:103DA000A0970FB6F894DEBF0FBECDBF84B7877F54
:103DB00084BF0FB6F894A8958091600088618093C5
:103DC0006000109260000FBE90E080E80FB6F8949B
:103DD00080936100909361000FBE0E94F00E0E94DC
:103DE0008F210E94EC218091E20084608093E200A8
:103DF00078940E9481240E94F60E8BE091E00E944C
:103E0000830E13E080918602853069F40E94791B4D
:103E1000809184028823B1F30E94611B882391F36F
:103E20000E949D1FEFCF0E94000F80918602843078
:103E300009F51093E9008091E80082FF1BC0809192
:103E4000E80085FF0AC040E050E060E270E0CE018B
:103E500001960E94FE1F91E001C090E08091E80071
:103E60008B778093E800992329F060E2CE010196D8
:103E70000E94AE080E94E40E0E94E30EC3CF0C9491
:103E8000411F292F332723303105C9F060F4213039
:103E9000310581F02230310509F047C08BE590E013
:103EA00024E433E046C02132310511F122323105DC
:103EB00061F13BC082E190E02FE933E03AC09927FD
:103EC0008130910561F040F08230910559F00397FF
:103ED00061F5E8E0F3E008C0E0E4F3E005C0E2E308
:103EE000F3E002C0EEE0F3E0849190E09F0121C096
:103EF00063307105D0F4660F771FFB01E057FE4F6A
:103F00002081318189E090E014C06330710568F44C
:103F1000FB01EE0FFF1FE657FE4F20813181FB01B1
:103F2000E957FE4F808190E004C080E090E020E0FF
:103F300030E0FA0131832083089580E189BD82E178
:103F400089BD09B400FEFDCF8091D8008F7D80939C
:103F5000D8008091E00082608093E0008091E000D2
:103F600081FDFCCF0895CF92DF92EF92FF920F93E5
:103F70001F93CF93DF93EC018B017A010E945C21A8
:103F8000811133C0E114F10439F0F701808191818E
:103F9000081B190BC80FD91FC12CD12C01151105F5
:103FA00019F18091E80085FD16C08091E8008E77B8
:103FB0008093E800E114F10449F0F70180819181D8
:103FC000C80ED91ED182C08285E00FC00E945C213C
:103FD000882321F30AC089918093F10001501109CF
:103FE000FFEFCF1ADF0ADACF80E0DF91CF911F9188
:103FF0000F91FF90EF90DF90CF900895CF92DF92D6
:10400000EF92FF920F931F93CF93DF93EC018B01FD
:104010007A010E945C21811133C0E114F10439F06E
:10402000F70180819181081B190BC80FD91FC12C82
:10403000D12C0115110519F18091E80085FD16C0FC
:104040008091E8008B778093E800E114F10449F057
:10405000F70180819181C80ED91ED182C08285E08E
:104060000FC00E945C21882321F30AC08091F100D7
:10407000899301501109FFEFCF1ADF0ADACF80E0F0
:10408000DF91CF911F910F91FF90EF90DF90CF9034
:10409000089520918D0230918E022617370748F03F
:1040A0006115710539F42091E8002E772093E8001E
:1040B00001C0B901FC0120E06115710579F1809121
:1040C00086028823F1F18530F1F18091E80083FDCB
:1040D0003CC08091E80082FD2EC08091E80080FF06
:1040E000EBCF2091F3008091F20090E0922B6115CC
:1040F000710551F08830910538F421912093F10039
:10410000615071090196F3CF21E0089709F020E092
:104110008091E8008E778093E800CECF2111CFCF39
:104120000AC080918602882361F0853061F0809119
:10413000E80083FD0AC08091E80082FFF2CF80E0B2
:10414000089582E0089583E0089581E00895209124
:104150008D0230918E022617370748F061157105E0
:1041600039F42091E8002E772093E80001C0B901CE
:10417000FC0120E06115710591F180918602882390
:1041800009F440C0853009F43FC08091E80083FD08
:104190003DC08091E80082FD2FC08091E80080FF43
:1041A000E9CF2091F3008091F20090E0922B61150D
:1041B000710559F08830910540F424912093F10065
:1041C0003196615071090196F2CF21E0089709F00C
:1041D00020E08091E8008E778093E800CBCF21111A
:1041E000CCCF0AC080918602882361F0853061F0CF
:1041F0008091E80083FD0AC08091E80082FFF2CF41
:1042000080E0089582E0089583E0089581E00895B4
:10421000982F973068F59093E900981739F07091CE
:10422000EC002091ED005091F00003C0242F762F78
:1042300050E021FD02C09F5FECCF3091EB003E7F4C
:104240003093EB003091ED003D7F3093ED003091E5
:10425000EB0031603093EB007093EC002093ED00A5
:104260005093F0002091EE0027FDE5CF80E0089507
:104270008F708093E90081E008958091870287FF25
:1042800011C08091E80082FD05C0809186028111F5
:10429000F8CF11C08091E8008B770BC08091860227
:1042A000882349F08091E80080FFF8CF8091E800F2
:1042B0008E778093E80008952091E4003091E50026
:1042C00095E64091EC00842F817040FF23C08091DF
:1042D000E80080FD1DC080918602882399F085301A
:1042E00099F08091EB0085FD11C04091E400509160
:1042F000E5002417350729F3915011F09A01E1CF19
:1043000084E0089582E0089583E0089581E00895AF
:1043100080E008954091E80042FFDDCF08950E94BB
:10432000FD210E940522E0EEF0E080818160808323
:10433000E8EDF0E080818F77808319BCA7EDB0E0D5
:104340008C918E7F8C9380818F7E808310928502EA
:1043500008950F931F93CF93DF930E94FD210E9436
:104360000522C8EDD0E088818F77888388818068B6
:10437000888388818F7D888319BC10928602109271
:104380008202109284021092830200EE10E0F80183
:1043900080818B7F808388818160888342E060E0B8
:1043A00080E00E940821E1EEF0E080818E7F808332
:1043B000E2EEF0E08081816080838081886080838C
:1043C000F80180818E7F8083888180618883DF917E
:1043D000CF911F910F910895E8EDF0E080818F7EDD
:1043E0008083E7EDF0E080818160808384E082BF9C
:1043F00081E0809385020C94A921E8EDF0E08081B2
:104400008E7F80831092E20008951092DA0010925D
:10441000E10008951F920F920FB60F9211242F936F
:104420003F934F935F936F937F938F939F93AF933C
:10443000BF93EF93FF938091E10082FF0BC08091C7
:10444000E20082FF07C08091E1008B7F8093E10052
:104450000E9480248091DA0080FF1FC08091D800E4
:1044600080FF1BC08091DA008E7F8093DA008091FC
:10447000D90080FF0DC080E189BD82E189BD09B40A
:1044800000FEFDCF81E0809386020E94E31D05C0FF
:1044900019BC109286020E94F11D8091E10080FFFC
:1044A00019C08091E20080FF15C08091E2008E7FEC
:1044B0008093E2008091E20080618093E20080912D
:1044C000D80080628093D80019BC85E08093860272
:1044D0000E94F51D8091E10084FF30C08091E200D0
:1044E00084FF2CC080E189BD82E189BD09B400FE52
:1044F000FDCF8091D8008F7D8093D8008091E1001E
:104500008F7E8093E1008091E2008F7E8093E200B5
:104510008091E20081608093E20080918202882392
:1045200011F084E007C08091E30087FD02C081E0C4
:1045300001C083E0809386020E94F61D8091E10015
:1045400083FF29C08091E20083FF25C08091E100B4
:10455000877F8093E10082E080938602109282023E
:104560008091E1008E7F8093E1008091E2008E7F58
:104570008093E2008091E20080618093E20042E05B
:1045800060E080E00E9408218091F00088608093C4
:10459000F0000E94F41DFF91EF91BF91AF919F91A8
:1045A0008F917F916F915F914F913F912F910F90DC
:1045B0000FBE0F901F9018951F920F920FB60F927B
:1045C00011242F933F934F935F936F937F938F9318
:1045D0009F93AF93BF93CF93DF93EF93FF93C091DC
:1045E000E900CF708091EC00D82FD17080FDD0E829
:1045F0001092E9008091F000877F8093F00078941A
:104600000E9420231092E9008091F000886080933E
:10461000F000CD2BCF70C093E900FF91EF91DF91B7
:10462000CF91BF91AF919F918F917F916F915F914A
:104630004F913F912F910F900FBE0F901F901895A3
:104640001F93CF93DF93CDB7DEB7AA970FB6F89439
:10465000DEBF0FBECDBFE7E8F2E08091F1008193AD
:1046600022E0EF38F207C9F70E940C1E8091E800A3
:1046700083FF2EC18091870290918802492F50E0DC
:104680004A30510508F024C1FA01EA53FF4F0C9457
:104690009C24803821F0823809F01AC108C080912A
:1046A000830290918402992389F082600FC08091E7
:1046B0008B028F70873008F00BC18093E9008091E6
:1046C000EB0085FB882780F91092E9009091E800C3
:1046D000977F9093E8008093F1001092F100D1C091
:1046E000282F2D7F09F0F4C0882319F0823061F063
:1046F000EFC080918902813009F0EAC0933009F05F
:1047000080E0809384022EC08091890281112AC0AA
:1047100080918B028F702FEF280F263008F0D8C0C1
:104720008093E9002091EB0020FF1CC0933021F41E
:104730008091EB00806214C09091EB0090619093A7
:10474000EB0021E030E0A90102C0440F551F8A951B
:10475000E2F74093EA001092EA008091EB00886053
:104760008093EB001092E9008091E800877F8093AE
:10477000E8000E943D21ACC08111AAC010918902BD
:104780001F778091E3008078812B8093E3008091F4
:10479000E800877F8093E8000E943D218091E80037
:1047A00080FFFCCF8091E30080688093E3001111CB
:1047B00002C082E001C083E08093860289C08058F5
:1047C000823008F085C08091890290918A028C3DE8
:1047D00053E0950779F583E08A838AE289834FB7AE
:1047E000F894DE01139620E03EE051E2E32FF0E082
:1047F00050935700E49120FF03C0E295EF703F5FB4
:10480000EF708E2F90E0EA3010F0C79601C0C0968E
:104810008D939D932F5F243149F74FBF8091E8001E
:10482000877F8093E8006AE270E0CE0101960E94E3
:10483000492016C060918B0270918C02AE014F5FCF
:104840005F4F0E943F1FBC01892B09F441C090912A
:10485000E800977F9093E80089819A810E94A720C1
:104860008091E8008B778093E80032C0803881F532
:104870008091E800877F8093E80080918202809396
:10488000F1008091E8008E7772CF811121C0809174
:10489000890290918A0299270297D4F48091E800C6
:1048A000877F8093E80080918902809382020E9432
:1048B0003D2180918202811106C08091E30087FD35
:1048C00002C081E001C084E0809386020E94F81D4E
:1048D0008091E80083FF0AC08091E800877F809381
:1048E000E8008091EB0080628093EB00AA960FB6FF
:1048F000F894DEBF0FBECDBFDF91CF911F91089519
:104900000895CF93809186028823A1F0C091E90099
:10491000CF709091EC00892F817090FD80E8C82BBA
:104920001092E9008091E80083FD0E942023CF705F
:10493000C093E900CF910895EE0FFF1F0590F49109
:10494000E02D0994692796276927782787277827F4
:104950000895F999FECF92BD81BDF89A992780B547
:104960000895A8E1B0E042E050E00C94DD24262F49
:10497000F999FECF92BD81BDF89A019700B4021655
:1049800039F01FBA20BD0FB6F894FA9AF99A0FBE03
:1049900008950396272F0E94B8240E94B724252F3C
:1049A0000E94B824242F0C94B8240196272F0E942B
:1049B000B8240C94B724DC01CB01FC01F999FECF9B
:1049C00006C0F2BDE1BDF89A319600B40D92415097
:0A49D0005040B8F70895F894FFCFA7
:1049DA00019B01009C01059C011E023C1D7A1D3FA2
:1049EA001D761D721D01E200E900EA00B500B6005D
:1049FA00B700CD008301CC008A0192019401210203
:104A0A00230224022502260227022A02B300B40046
:104A1A006F007000818283F4F5F6F731946697C6C9
:104A2A00340000000000E200E900EA00B500B60028
:104A3A00B700CD008301CC008A01920194012102C2
:104A4A00230224022502260227022A02B300B40006
:104A5A006F00700081828340226D4004B103D3034A
:064A6A0056036F038F03E9
:00000001FF
