:100000000C9481010C94C8010C94C8010C94C80193
:100010000C94C8010C94C8010C94C8010C94C8013C
:100020000C94C8010C94C8010C94B61F0C94882041
:100030000C94351A0C94C8010C94C8010C94C80196
:100040000C94C8010C948E070C94C8010C94C80140
:100050000C94B2070C948E1A0C94C8010C94C8012D
:100060000C94C8010C94C8010C94C8010C94C801EC
:100070000C94C8010C94C8010C94C8010C94C801DC
:100080000C94C8010C94C8010C94C8010C94C801CC
:100090000C94C8010C94C8010C94C8010C94C801BC
:1000A0000C94C8010C94C8010C94C8014409470978
:1000B00059096A0972097D09800983098609CB09F2
:1000C000CE0989098C0990099D09AA09AD09B109D0
:1000D000BE09191019104B104B109810CC11CC11EF
:1000E000CC11B6104B115C115C11BC11CC11CC11B0
:1000F000C511681268127A127A1271127A127A1283
:100100007A126812681276127A127A127612F52032
:100110001C2114221C21142268218B211422E2218B
:10012000F121040016000700090000000000000093
:1001300000002A2B28000000000000000000000042
:10014000000000000029000000002C1E34202122A5
:1001500024342627252E362D3738271E1F2021220E
:10016000232425263333362E37381F040506070887
:10017000090A0B0C0D0E0F10111213141516171877
:10018000191A1B1C1D2F3130232D350405060708B5
:10019000090A0B0C0D0E0F10111213141516171857
:1001A000191A1B1C1D2F3130354C000000000000B7
:1001B00000000000000000000000000000007E0FB2
:1001C00000D4FFFFFFC700000078040330000000E8
:1001D0000C0334007000610063006B0000001C031E
:1001E00034003000700065007200630065006E002E
:1001F000740063006C0075006200000004030904D1
:1002000009025B00030100A0FA09040000010301D8
:1002100001000921110100012240000705810308A6
:10022000000A090401000203000000092111010075
:100230000122220007058203200001070503032095
:10024000000109040200010300000009211101005E
:10025000012232000705840320000A120110010068
:10026000000008EDFE69690100010203010660FF5C
:100270000961A1010962150026FF0095207508811A
:10028000020963150026FF00952075089102C0053C
:10029000010980A101850319012AB700150126B7BC
:1002A00000950175108100C0050C0901A1018504AC
:1002B00019012AA002150126A002950175108100DE
:1002C000C005010906A101050719E029E715002568
:1002D00001950875018102950175088101050719CD
:1002E0000029FF150026FF00950675088100050806
:1002F0001901290595057501910295017503910173
:10030000C00011241FBECFEFDAE0DEBFCDBF04B6C0
:1003100003FE27C08091060290910702A091080277
:10032000B09109028730904BA740B04BD1F41092A6
:10033000060210920702109208021092090214BEDF
:1003400084B7877F84BF0FB6F894A895809160002A
:10035000886180936000109260000FBEE0E0F8E3D7
:10036000099511E0A0E0B1E0E2EFF5E402C00590EC
:100370000D92A238B107D9F722E0A2E8B1E001C09E
:100380001D92A630B207E1F70E94771C0C94F72269
:100390000C940000849A859A0C94CE01089581E013
:1003A000089581E008950C94D10108950C94D5012D
:1003B0001F93CF93DF9300D000D01F92CDB7DEB74D
:1003C00049835A836B833091910189819A813111DC
:1003D00014C0662359F0222349F00E94A217182F57
:1003E000682F89819A810E944D1703C00E94771758
:1003F000182F69817A81812F04C00E94A217698118
:100400007A810F900F900F900F900F90DF91CF9106
:100410001F910C94980AFC01262F40815181628122
:10042000738184810C94D801CF93DF93EC0160E059
:100430000E940B02BE01DF91CF910C94D601FF9276
:100440000F931F93CF93DF93E82FF0E0E65DFE4F0D
:10045000F490C82FC695C695C695D0E0FE01E65427
:10046000FE4F0491877010E0082E02C01595079585
:100470000A94E2F701701127FE01E655FE4FC49180
:10048000D0E002C0D595C7958A95E2F7C170DD2707
:100490000115110519F081EE0E94C10E209719F087
:1004A00086EE0E94C10E8F2D0E94C20FCD2B19F037
:1004B00086EE0E94630F012B41F081EEDF91CF9118
:1004C0001F910F91FF900C94630FDF91CF911F91BB
:1004D0000F91FF900895EF92FF920F931F93CF9388
:1004E000DF93EC01162F0AE08881882309F455C0B8
:1004F000813009F043C08981813041F47E0182E07E
:10050000E80EF11C8A810E94C20F09C0823049F4B2
:100510007E01E2E0EE0EF11C8A810E94C10EE7012D
:100520002FC0833041F47E01F2E0EF0EF11C8A818E
:100530000E94630FF4CF843011F0219621C02A81EC
:10054000229680E090E030E0205331092A303105D6
:1005500058F4089FA001099F500D1124C901840F70
:10056000951F21962881EFCF009751F0EFE9FFE02A
:100570003197F1F700C000000197F6CF0E941F02EB
:100580002196812F882309F4AFCFEFE9FFE031975F
:10059000F1F700C000008150F5CFDF91CF911F919E
:1005A0000F91FF90EF90089560E00C946B028F9292
:1005B0009F92AF92BF92CF92DF92EF92FF920F93F2
:1005C0001F936B017C0181E090E0A0E0B0E04C0162
:1005D0005D0104C0880C991CAA1CBB1C4A95D2F76B
:1005E000AC01BD0104C0440F551F661F771F2A953B
:1005F000D2F7482959296A297B2904C0880F991FF5
:10060000AA1FBB1F0A95D2F78A019B010C211D214D
:100610002E213F21401751076207730739F4BC01AF
:10062000CD016C297D298E299F290AC0809590953E
:10063000A095B095BC01CD016C217D218E219F211B
:100640001F910F91FF90EF90DF90CF90BF90AF90F0
:100650009F908F9008950F93382F262F6091CF0190
:100660007091D0018091D1019091D201042F432F3C
:100670000E94D7020F910C9489160E94C71A0E94FB
:10068000DA18811102C00E948A190E945D080C9438
:10069000CA010C94B30508950E9456120E944B03A0
:1006A0002FEF84E39CE0215080409040E1F700C0B0
:1006B00000000C94B41A0F931F93CF93DF93EC01B7
:1006C00061E00E940B028C01BE010E94CA088823CF
:1006D000A9F1BE01C8010E94D301882379F1BE01AE
:1006E000C8010E943C07882349F1BE01C8010E944D
:1006F000F20B882319F1BE01C8010E94440C882323
:10070000E9F0BE01C8010E946F0D8823B9F08A810B
:10071000882369F001158CE5180731F00F3D1C4561
:1007200031F40E948A190AC00E944C0307C0CE010E
:10073000DF91CF911F910F910C94CF0180E0DF9159
:10074000CF911F910F91089508950C94A40381E017
:1007500008950C94A703CF93C82F0E94A5038C2F54
:100760000E94A903CF91089580E090E00895089534
:10077000880F991FFC01E653FE4F859194910895CF
:10078000CF93DF930E94980A0E94D204EC01811556
:10079000904508F043C0C11580E4D80708F0CBC0ED
:1007A000C03ED10528F5C03CD10508F0B3C0C83A19
:1007B000D10578F4C53AD10508F0A4C0C130D105FF
:1007C00009F4ECC008F4E8C0C430D10508F0E6C074
:1007D000E3C0CF3BD10508F0DFC0C85AD0E0CC0F52
:1007E000DD1FC35FDE4F0990D881C02DD464D6C011
:1007F000C11590E2D90750F4C11521E0D20708F0E5
:10080000CDC0C83ED10508F4C9C0C6C0C11580E33B
:10081000D80708F086C0CE019F707FC0C11595E54E
:10082000D90708F043C0C11524E5D20708F09AC0E3
:10083000C11582E5D80708F5C11591E5D90708F07B
:100840007DC0CE0174E0969587957A95E1F7837027
:100850009C2F937021E030E002C0220F331F9A9545
:10086000E2F73C68382BCF70C695C69580E2C89FEA
:10087000E0011124C22BD32B91C09E01237033279A
:100880008C2F86958695C115D34508F05CC0C1E0D4
:10089000D0E002C0CC0FDD1F2A95E2F720E2829F54
:1008A000C0011124C82BD92BDC6878C0C11529E5FB
:1008B000D207A0F4C11588E5D80708F058C0C115C3
:1008C00096E5D90708F068C08C2F0E9466058F71E5
:1008D000C82FD0E0DC2FCC27D06260C0C1152AE53C
:1008E000D20708F449C0CE0190568115904208F015
:1008F00053C08D2F8F710E946605DD27D0628F71E6
:10090000D82B4CC0C55AD0E0C55CDE4FC881D0E0C2
:10091000D06444C0CE01805C91090E94B803EC0110
:100920003DC0CE019927D3FF03C0EC01D86C36C07F
:10093000EC01D06C33C0DF70D06A30C0DC2FCC2724
:10094000C16FD06A2BC0C1E0D0E002C0CC0FDD1F68
:100950002A95E2F720E2829FC0011124C82BD92BEF
:10096000DA681CC0DC2FCC27C46FD06A17C0DC2F1C
:10097000CC27C06FD06A12C08C2F8F700E94660582
:1009800094E0D695C7959A95E1F7CF70D0E0DC2F2B
:10099000CC27D069C82B02C0C0E0D0E0CE01DF91E7
:1009A000CF9108958238910569F1B0F481339105B2
:1009B00009F46DC048F48932910509F463C08A32A4
:1009C000910509F469C008958533910509F455C06E
:1009D00089339105B9F00895833E910569F138F4A2
:1009E000803E9105B1F0823E910509F10895863E61
:1009F0009105A9F1873E9105B9F1843E910509F071
:100A000064C023C02091F70120FD4FC021FD4DC0DF
:100A100008958091F70180FD44C08091F80180FF26
:100A200044C08091F70184FD42C083EE4DC08091A7
:100A3000F70182FF38C0F5CF8091F70182FD33C006
:100A40008091F80180FD31C0ECCF8091F80181FFE9
:100A500032C08091F70184FD2AC087EE35C08091B5
:100A6000F70183FF26C0F5CF8091F70183FD21C0F8
:100A70008091F80181FD1FC0ECCF8091F70185FDC9
:100A80001CC01DC08091F70185FD19C016C0809162
:100A9000F70186FD16C017C08091F70186FD13C0CF
:100AA00010C089E311C082EE0FC080EE0DC080E05F
:100AB0000BC086EE09C084EE07C089E205C085E35D
:100AC00003C08AE201C081E390E008959091F701AC
:100AD00092FF0DC0282F2871283019F4877F846079
:100AE00006C0282F2471243011F48B7F886093FF77
:100AF0000DC0282F2871283119F4877E846106C023
:100B0000282F2471243111F48B7E88612091F80103
:100B100020FF0DC0382F3871383019F4877F81607D
:100B200006C0382F3171313011F48E7F886021FF7B
:100B30000DC0282F2871283119F4877E816106C0E5
:100B4000282F2171213111F48E7E886194FD877EDA
:100B50000895E82FF0E0EF50FE4F8081089508954A
:100B600008950C94B0050C94B105CF93DF93AEE3D8
:100B7000B1E062E471E041E050E08D918F3F71F4AB
:100B80006A177B07D1F71092F0011092F10181E012
:100B90000E942106DF91CF910C943D03E82FE2954E
:100BA000EF70F0E021A18F70EA0102C0CC0FDD1FD1
:100BB0008A95E2F7CE019C2F9095922391A392A162
:100BC000892B82A3DDCFCF93AEE3B1E040E050E0CC
:100BD00030E061E070E02D912F3FC1F0E22FE2950F
:100BE000EF70F0E080A190E02F7002C0959587959E
:100BF0002A95E2F780FD07C0CB01042E01C0880FC3
:100C00000A94EAF702C080E090E0382B4F5F5F4F14
:100C10004430510501F78091F001831721F03093A2
:100C2000F001C1E001C0C0E02C2F41E061EF71E0B4
:100C300080EF91E00E9422060E9449038C2FCF9101
:100C400008950895FF920F931F93CF93DF938C0124
:100C5000F62ED72FC42F222349F081E08093840100
:100C60000E94671A9093830180938201809184018E
:100C70008823C1F080918201909183010E947F1AA4
:100C8000069780F0EF2DFD2FD8014C2F50E0CD01BD
:100C9000801B910B841795071CF48D918193F7CFDE
:100CA00010928401DF91CF911F910F91FF900895D1
:100CB0008091F2010C940F198091F201869586952E
:100CC000869508950E94DA18811102C00E948A193F
:100CD0000E940B198093F201282F269526952695C0
:100CE00030E02430310524F0877088618093F20170
:100CF0008091F20180FF04C086958695869501C09B
:100D000080E00C94DD072091F201822F8695869574
:100D10008695482F50E04330510554F48F5F982F4B
:100D2000990F990F990F822F8770892B8093F20169
:100D30008091F20181608093F2010E940F198091ED
:100D4000F2018695869586950C94DD078091F201D7
:100D5000982F969596959695A1F0915E990F990F7B
:100D6000990F8770892B8093F201887F91E009F4B5
:100D700090E08091F20190FB80F98093F2010E9453
:100D80000F198091F2018695869586950C94DD0762
:100D90008091F20180FD13C081608093F201813067
:100DA00019F489E08093F2018091F2010E940F19F9
:100DB0008091F2018695869586950C94DD070895BD
:100DC0008091F20180FF08C08E7F8093F2010E9423
:100DD0000F1980E00C94DD0708958091F20180FDE9
:100DE0000C94E0060C94C8069091F201892F869528
:100DF000869586958F5F8F719770843038F4880F51
:100E0000880F880F892B8093F20102C09093F20122
:100E10008091F201887F91E009F490E08091F201E5
:100E200090FB80F98093F2010E940F198091F201EA
:100E30008695869586950C94DD07843008F083E0CE
:100E40009091F2019770282F220F220F220F922BE0
:100E50009093F201987F21E009F420E09091F20153
:100E600020FB90F99093F2010C94DD070E941D077E
:100E70008091F2010C940F199C01FB01828188235F
:100E800049F12E3BFCE53F07C9F040F42C3BECE573
:100E90003E0769F02D3B3C4561F00895203C9CE500
:100EA000390791F070F0213C3C4589F0089583E0CA
:100EB00001C080E00E94360780E008950E94A606E7
:100EC000FBCF0E948306F8CF0E94ED06F5CF0E946B
:100ED000F406F2CF81E00895E82FE295EF70F0E09C
:100EE00032A1282F2F7081E090E001C0880F2A9551
:100EF000EAF78095832382A30895869A86EF0E945D
:100F00006C07879A87EF0C946C078E9A8F9A0895D6
:100F100086EF0E946C0787EF0C946C071F920F926C
:100F20000FB60F9211242F933F934F935F936F93BC
:100F30007F938F939F93AF93BF93EF93FF930E9401
:100F40008807FF91EF91BF91AF919F918F917F9112
:100F50006F915F914F913F912F910F900FBE0F9026
:100F60001F9018951F920F920FB60F9211242F9376
:100F70003F934F935F936F937F938F939F93AF9321
:100F8000BF93EF93FF938091880090918900813007
:100F9000914010F00E948507FF91EF91BF91AF91B2
:100FA0009F918F917F916F915F914F913F912F9181
:100FB0000F900FBE0F901F901895CF92DF92EF9277
:100FC000FF92CF93C82F8430A8F4811114C0809170
:100FD000880090918900892B51F080916F008D7F5E
:100FE00080936F0080916F008E7F80936F000E94CE
:100FF000880711C0C3E08091880090918900892BF7
:1010000051F480916F00826080936F0080916F0037
:10101000816080936F002C2F30E0AFEFBFEF0E9414
:101020009B2223E030E040E050E00E946C22B42F8D
:10103000A32F922F8827492F5A2F6B2F7727CA016A
:101040004C3724E1520728F469E070E00E945822EE
:1010500029C0DB01CA018A50974DAF4FBF4F6627A9
:10106000782F892F9A2F25EF38E241E050E00E9437
:101070006C2269017A01CA01B9010E9448229B01D0
:10108000AC01C701B6010E944822BB27A92F982FA7
:10109000872F009721E0A207B10511F0BC0102C023
:1010A0006FEF7FEF7093890060938800CF91FF907E
:1010B000EF90DF90CF90089508950E947D0782E021
:1010C0008093800089E1809381008FEF9FEF909360
:1010D0008700809386000C94620682E290E00E9472
:1010E000B522813281F483E290E00E94B522833000
:1010F00051F484E290E00E94B52291E0813009F041
:1011000090E0892F01C080E081700895CF93C82FAF
:10111000811102C06FEF01C061E282E290E00E94A3
:10112000C322C11102C06FEF01C063E083E290E00F
:101130000E94C322C11102C06FEF01C061E084E2CE
:1011400090E0CF910C94C32280E00E9486080C941A
:10115000D418089585E290E00E94B522682F70E0CF
:1011600080E090E0089585E290E00C94C3220E9414
:10117000A9080E946D0881110CC060E070E0CB01ED
:101180000E94B3080E942C0A0E94F20A81E00C948B
:1011900086080895CF93FB01C281CC23E9F09C011E
:1011A00022513F452031310520F482510E94020B2B
:1011B0000CC08031FFE59F0751F481E00E94AF161B
:1011C00043E062E081E00E942B03C0E018C081315F
:1011D0009F45A9F482E0F2CF8031EFE59E0711F43C
:1011E00081E004C081319F4549F482E00E94D0161D
:1011F00043E062E081E00E942B0301C0C1E08C2F3C
:10120000CF9108952FEFFC0120830895CF93DF93B2
:10121000FC012081293029F02A3079F4FC01118267
:101220000CC0EC010E945C06FFEF8F9FC0011124EF
:1012300063E070E00E9458226983DF91CF910895A6
:10124000FC012081293061F48181F3E08F9FC0018E
:1012500011246FEF70E00E945822862F0C941D0716
:1012600008951F93CF93DF93EC01162F0196E88129
:101270004E2F50E0FA013197E331F10508F09DC09F
:10128000EA5AFF4F0C948E22198289E0A2C089810C
:10129000823041F0833009F499C08130B1F40E946A
:1012A000731A02C00E94AA089A838B837C836D8381
:1012B00086C08981823049F46A817B818C819D81DD
:1012C0000E9494220E94B3087AC0612FCE010E942E
:1012D000020975C04B816A8189810E94FE099C8345
:1012E0008D836DC02C813D813227232732274B818E
:1012F0006A8189810E94170A62C00E942C0A5FC01D
:101300000E9420095CC00E94060959C00E9458062C
:1013100056C00E94A50A23C00E94A70A998359C0FB
:101320006B8170E089819A81AE014C5F5F4F982795
:10133000892798270E94AA0A42C06B8170E08981A0
:101340009A81AE014C5F5F4F9827892798270E94AA
:10135000CF0A35C00E94F20A32C00E94EB0989838D
:101360002EC06B8170E089819A81AE014C5F5F4F26
:101370009827892798270E94540A21C06B8170E022
:1013800089819A81AE014C5F5F4F98278927982702
:101390000E94770A14C00E94A40811C0CE010E94C6
:1013A000671B2FEF81EE94E0215080409040E1F7E1
:1013B00000C000000E94B41A02C08FEF8883612F22
:1013C000CE01DF91CF911F910C94671B80E00E94AA
:1013D000A9058A83F4CF84E0089550E0440F551F97
:1013E00028E0629F400D511D11249A0168E0869FFC
:1013F000200D311D1124C901869608950F931F9366
:10140000CF93DF930E94ED098C010E94B522C82F73
:10141000D0E0DC2FCC27C80101960E94B5229E01A6
:10142000282BC901DF91CF911F910F9108950F9340
:101430001F93CF93DF93122F032F0E94ED09EC012E
:10144000602F0E94C322612FCE010196DF91CF91C0
:101450001F910F910C94C322FF920F931F93CF9370
:10146000DF93F12C00E010E0C0E0D0E0FE01E00FDF
:10147000F11FEE0FFF1FEE5DFE4F259134914C2FB3
:1014800060E08F2D0E94170A2196C430D10571F7B4
:101490000C5F1F4FF39484E0F812E6CFDF91CF91F9
:1014A0001F910F91FF900895EF92FF920F931F935A
:1014B000CF93DF93EA017A01E60EF71E8C01C80193
:1014C0008696CE15DF0561F00032110520F40E94EA
:1014D000B522888301C0188221960F5F1F4FEFCF7E
:1014E000DF91CF911F910F91FF90EF900895EF92B0
:1014F000FF920F931F93CF93DF93EA017A01E60ED9
:10150000F71E8C01C8018696CE15DF0551F000321A
:10151000110518F468810E94C32221960F5F1F4FA6
:10152000F1CFDF91CF911F910F91FF90EF90089530
:10153000462F843038F4711105C0643018F460E02F
:101540000C94FE0980E090E0089580E108958AEB14
:1015500093E00895EF92FF920F931F93CF93DF9341
:10156000EA017A01E60EF71E8C01C8018A5B9F4FE3
:10157000CE15DF0569F00A3B23E0120720F40E9434
:10158000B522888301C0188221960F5F1F4FEDCFCF
:10159000DF91CF911F910F91FF90EF900895EF92FF
:1015A000FF920F931F93CF93DF93EA017A01E60E28
:1015B000F71E8C01C8018A5B9F4FCE15DF0559F0DD
:1015C0000A3B23E0120718F468810E94C322219687
:1015D0000F5F1F4FEFCFDF91CF911F910F91FF90C2
:1015E000EF900895CF93DF93C6E4D0E060E0CE01A2
:1015F0000E94C3222196C11584E0D807B9F7DF9174
:10160000CF910895DF92EF92FF920F931F93CF93A4
:10161000DF9300D000D0CDB7DEB7F82E8FE08F1566
:10162000E8F18FEF93E00E94B522811137C006E404
:1016300010E0FF2069F0011584E0180779F1C80176
:101640000E94B522811101C0FA940F5F1F4FF1CFA4
:1016500019821A821B821C82DD24D39478018FEFB9
:10166000E81AF80AC8010E94B52289831A828823E1
:10167000A9F09FEF980F933058F48A83D9820E5FB8
:101680001F4FC7010E94B5228B83882339F0780150
:10169000CE0101960E94D4028701E0CF0F900F90F7
:1016A0000F900F90DF91CF911F910F91FF90EF90CE
:1016B000DF900895AF92BF92CF92DF92EF92FF92A8
:1016C0000F931F93CF93DF937C015B01C42FD22F25
:1016D000FC0182818823F9F0409387010E94671AF8
:1016E000909386018093850180E28C0F883008F00A
:1016F0006EC0C77081E001C0880FCA95EAF7DF911C
:10170000CF911F910F91FF90EF90DF90CF90BF90FE
:10171000AF900C94D50F80918701481335C080910C
:101720008501909186010E947F1A6C01B701C50165
:101730000E940F15C816D90638F510E21D0FCD17F7
:10174000B9F080E28C0F883040F4C77081E001C0AE
:10175000880FCA95EAF70E94DC0F183058F581E02F
:101760009D2F977001C0880F9A95EAF70E94D50FB8
:10177000802F0E94C20F183050F5D77081E001C051
:10178000880FDA95EAF70AC080E28C0F8830F8F407
:10179000C77081E001C0880FCA95EAF7DF91CF9149
:1017A0001F910F91FF90EF90DF90CF90BF90AF907F
:1017B0000C94DC0F802FDF91CF911F910F91FF9040
:1017C000EF90DF90CF90BF90AF900C94C20FDF915D
:1017D000CF911F910F91FF90EF90DF90CF90BF902E
:1017E000AF9008950F939C01CB01243F4CE5340743
:1017F00031F188F4293DFCE53F07D9F02A3D4CE55D
:10180000340779F1283D3C45A9F506E221EE41EE89
:1018100068ED7CE52BC0263FFCE53F07E1F0A8F032
:10182000273F3C4539F507E225EE46EE67EF7CE5BC
:101830001DC007E225EE45EE69ED7CE517C006E226
:1018400021EE40EE64EF7CE511C007E225EE44EEA8
:1018500065EF7CE50BC006E221EE42EE66EF7CE52B
:1018600005C008E221E045EE6AED7CE50E945A0BD6
:1018700080E008C0FC018281882319F01092870162
:1018800001C081E00F910895CF93DF93EC01FB013C
:101890008281882309F41FC1C230FCE5DF0708F408
:1018A0001BC1C6319CE5D90738F09E012B5F3C4532
:1018B0002930310508F010C10E94ED189093F8010D
:1018C0008093F701C031ECE5DE0709F4C3C008F0EE
:1018D00041C0C8308CE5D80709F49AC0F0F4C43090
:1018E000ECE5DE0709F487C068F4C2308CE5D80760
:1018F00009F477C0C330DC4509F0E3C08091F701FB
:10190000826076C0C630ECE5DE0709F46EC008F0F0
:101910007BC08091F70188606BC0CC308CE5D80724
:1019200009F485C068F4CA30ECE5DE0709F474C038
:1019300008F079C00E9456128091F701806858C063
:10194000CE308CE5D80709F476C008F07FC08091CE
:10195000F7018BC0CC3FECE5DE0709F44FC018F56A
:10196000C3318CE5D80709F47DC078F4C131ECE5CA
:10197000DE0709F473C0C231DC4509F0A2C00E9441
:1019800056128091F7018F7733C0C5318CE5D807A7
:1019900009F472C008F486C0CB3FDC4509F091C061
:1019A0008091F8013EC0C115FDE5DF0709F45FC075
:1019B00058F4CE3F9CE5D90709F444C008F43FC071
:1019C0008091F80182602DC0C230FDE5DF0709F487
:1019D00075C008F45DC0C330DD4509F072C080E019
:1019E0006EC08091F701816003C08091F701806132
:1019F0008093F70166C08091F70111C08091F801D2
:101A000082608093F8015DC08091F7018062F0CF21
:101A10008091F7018064ECCF8091F7018860846049
:101A2000E7CF8160EECF8091F7018E7FE1CF80918B
:101A3000F7018D7FDDCF8091F701877FD9CF80912E
:101A4000F80118C08091F8018D7FDBCF8091F701FC
:101A50008F7ECECF8091F7018F7DCACF8091F70125
:101A60008F7BC6CF8091F701877F8B7FC1CF80911D
:101A7000F8018D7F8E7FC5CF8091F70182FB2227F1
:101A800020F991E0922790FB82F990FB83F9B0CF87
:101A90008091F801982F909591708E7F892B90FB03
:101AA00081F9AFCF0E9456128091F70187FB222760
:101AB00020F991E0922790FB87F99ACF81E00E946C
:101AC0008C198091F7019091F8010E94FE180E94F4
:101AD000561280E001C081E0DF91CF910895CF934D
:101AE000DF9386319C4541F5EB010E942318982F26
:101AF0008A812091000130910101882379F09A7A3E
:101B000081E009F480E080938801911102C069E2CC
:101B100001C065E3C9010E94D3190AC08091880100
:101B2000811102C069E201C065E3C9010E94D519B3
:101B30000E94711880E001C081E0DF91CF9108958B
:101B400090938E0180938D010895E0918D01F09125
:101B50008E01309721F00190F081E02D099480E012
:101B60000895E0918D01F0918E01309721F002806F
:101B7000F381E02D0994089520918B0130918C011F
:101B80002817390771F090938C0180938B01E091B5
:101B90008D01F0918E01309721F00680F781E02DC4
:101BA000099408952091890130918A0128173907F5
:101BB00071F090938A0180938901E0918D01F091F9
:101BC0008E01309721F00084F185E02D099408956D
:101BD00085B7806885BF85B7806885BF089581E037
:101BE00008950C94EF0D08950C94F30D0C94F30DDF
:101BF0000C94F60D0C94F30D0C94FA0D0C94F30D5B
:101C00000E94E80D0E94FE0D0C94FC0D0E945E1ACD
:101C10000E94B5050E94B7080E94DB1A0E94620666
:101C20000C94F80DFF920F931F93CF93DF93CDB7D2
:101C3000DEB72A970FB6F894DEBF0FBECDBF0E9465
:101C4000F40D0E94F30D0E94E3050E94F10D88231C
:101C500079F180E00E94A905082FF0909001F82604
:101C600039F18091E40181FD0E94AF0580E011E02F
:101C70009F2D9123C9F08E831F82012381E009F4F7
:101C800080E088870E94671A8160782F9A87898709
:101C90004E815F8168858A850E948D0E80919001BA
:101CA00018271093900114C08F5F110F843001F733
:101CB0008FEF89838A831B820E94671A8160782F45
:101CC0009D838C8349815A816B818D810E948D0E09
:101CD0000E945C080E94A50D90918F01891789F0E0
:101CE0000E94A50D80938F012A960FB6F894DEBF4F
:101CF0000FBECDBFDF91CF911F910F91FF900C943C
:101D0000AB032A960FB6F894DEBF0FBECDBFDF91AE
:101D1000CF911F910F91FF900895CF93DF93CDB78F
:101D2000DEB72B970FB6F894DEBF0FBECDBF4F8343
:101D3000588769877A878B87DE01119686E0FD01D7
:101D400011928A95E9F785E0FE01379601900D9290
:101D50008A95E1F749815A816B817C818D819E81D1
:101D60000E9412152B960FB6F894DEBF0FBECDBFA2
:101D7000DF91CF910895FC01808191810E94E41749
:101D80000895CF93882309F49CC0C82F8238C1F4EA
:101D90000E94A50D81FD95C069E38091000190919D
:101DA00001010E94D3190E9471182FEF81EE94E077
:101DB000215080409040E1F700C0000069E319C065
:101DC000833801F50E94A50D80FD7BC063E58091FD
:101DD0000001909101010E94D3190E9471182FEF08
:101DE00081EE94E0215080409040E1F700C0000077
:101DF00063E580910001909101010E94D519CF9176
:101E00000C9471188438C1F40E94A50D82FD59C04C
:101E100067E480910001909101010E94D3190E9412
:101E200071182FEF81EE94E0215080409040E1F74F
:101E300000C0000067E4DDCF8CEF8C0F813AD0F456
:101E40006C2F80910001909101010E949D198823BF
:101E500049F06C2F80910001909101010E94D519E9
:101E60000E9471186C2F80910001909101010E94D5
:101E7000D319C5CF80E28C0F883048F4C77081E059
:101E800001C0880FCA95EAF70E942618B8CFEBE583
:101E9000EC0FE33040F4F0E0E059FE4F808190E039
:101EA000CF910C94BC0DC85AC73158F4EC2FF0E018
:101EB000EE0FFF1FEE5BFE4F80819181CF910C945E
:101EC000D20DCF910895882309F45BC0682F823822
:101ED00079F40E94A50D81FF54C069E3809100014F
:101EE000909101010E94D3190E94711869E310C0FA
:101EF0008338B1F40E94A50D80FF43C063E5809153
:101F00000001909101010E94D3190E94711863E5AC
:101F100080910001909101010E94D5190C947118D3
:101F2000843879F40E94A50D82FF2BC067E480916C
:101F30000001909101010E94D3190E94711867E479
:101F4000E7CF8CEF860F813A18F380E2860F883056
:101F500048F4677081E001C0880F6A95EAF70E9433
:101F60002C18DCCF8BE5860F833020F480E090E0E6
:101F70000C94BC0D685A673120F480E090E00C941A
:101F8000D20D0895CF93C82F0E94C10EC93349F4D2
:101F90002FEF87EE93E0215080409040E1F700C0A2
:101FA00000008C2FCF910C94630F882321F00E94A6
:101FB00026180C9471180895882321F00E942C187B
:101FC0000C9471180895CF92DF92EF92FF920F93C5
:101FD0001F93CF93DF937C01062FC72FFC01158140
:101FE00012951F70D281D1110E9443180E941C18B3
:101FF000882399F0DD2389F08C2F807F803421F0B5
:1020000080E2800F883048F082E00E94BB180E9476
:102010001C1891E0D82ED92601C0D12CCC2EC29408
:102020008FE0C8228C2D90E0FC01E759FF4F0C9403
:102030008E228C2F807FCF70882311F0C295C07FB5
:10204000DD2399F0CC2309F482C180E2800F88302F
:1020500010F0011104C08C2F0E94261803C08C2F91
:102060000E9436180E94711872C1802F0E94630F5F
:10207000CC2309F491C180E2800F883010F0011167
:1020800004C08C2F0E942C1803C08C2F0E943C1877
:102090000E94711881C18C2F807FCF70803211F027
:1020A000C295C07F002319F00130C9F022C0DD23A2
:1020B00071F0112341F0113031F40E9456188C2B2D
:1020C0000E945E1869C10E9456188C2B1DC01123F6
:1020D00019F0113009F460C10E94671825C0DD2392
:1020E00021F0163008F058C10EC0153008F054C168
:1020F0001BC0DD2361F0112331F0F701858180FFE2
:1021000026C18F7085838C2F0E94D50F45C1112366
:1021100059F0093309F02CC1FFEF27EE83E0F150AD
:1021200020408040E1F722C18C2F0E94DC0F34C197
:102130008C2F86958695837019F0813061F02CC1C3
:10214000DD2321F0802F9C2F937002C080E090E06F
:102150000E94BC0D29C1DD2321F0802F9C2F93709C
:1021600002C080E090E00E94D20D1EC18C2F8370CF
:1021700009F045C0D11114C1402F429546954770D2
:10218000440F440F602F6F70862F90E0A0E0B0E006
:10219000042E04C0880F991FAA1FBB1F0A94D2F7F0
:1021A00004FF10C00FE010E020E030E004C0000F9A
:1021B000111F221F331F4A95D2F7009510952095C5
:1021C000309503C000E010E09801C695C695C37035
:1021D000BC01CD01602B712B822B932BC23049F0B7
:1021E00058F4C13019F00E946316DAC00E945116EB
:1021F000D7C00E947516D4C00E944F16D1C0DD23EF
:1022000019F08C2F817001C08695882309F4C8C00D
:10221000402F429546954770440F440F602F6F70D2
:10222000862F90E0A0E0B0E0042E04C0880F991F34
:10223000AA1FBB1F0A94D2F704FF10C00FE010E0E2
:1022400020E030E004C0000F111F221F331F4A9509
:10225000D2F7009510952095309503C000E010E06E
:102260009801C695C695C370BC01CD01602B712B3A
:10227000822B932BC23049F058F4C13019F00E94E0
:1022800028178EC00E9416178BC00E943A1788C06C
:102290000E94891685C0CF70DD2339F08C2F0E94F3
:1022A000AF16802F0E94D50F7BC0802F0E94DC0FBD
:1022B0008C2F0E94D01674C0023F01F128F4003F19
:1022C00041F0013FA1F03FC0033FF9F0043F39F175
:1022D0003AC0DD2341F0153008F05EC08C2F8F71BD
:1022E0000E94F51659C0163008F056C0F7CFDD230E
:1022F00039F08C2F8F710E94AF164EC0DD23C9F3C9
:102300008C2F8F710E94D01647C0DD2329F08C2FAF
:102310008F710E949A1640C00E9495163DC0DD2321
:1023200049F0CF718C2F0E94AF1663E08C2F0E9472
:10233000A61832C081E00E94BB18123068F182E01A
:102340000E94BB1829C0DD2331F0112391F2802FA8
:102350000E94C10E21C0112399F2093349F49FEF65
:10236000E7EEF3E09150E040F040E1F700C00000FC
:10237000802F0E94630F10C04C2F4F70602FC70139
:102380000E94B4030E94C0150FC04C2F4F70602FE5
:10239000C7010E94B70308C088EF8C0D843020F479
:1023A0000E94A50D0E94AB03DD20C9F00E94181801
:1023B00080FD15C0F70112820E9412180E94AF160C
:1023C000C7010E9410120E941218DF91CF911F9135
:1023D0000F91FF90EF90DF90CF900C94D016DF918B
:1023E000CF911F910F91FF90EF90DF90CF900895C4
:1023F0000F931F93CF93DF93EC01688179818A81DA
:102400000E94EF178C010E944C170E943D16B801E4
:10241000CE010E94E30FDF91CF911F910F9108959C
:10242000CF93DF93EC01988189812B813C81232B11
:1024300031F08F3F31F481E09F3F19F403C081E018
:1024400001C080E080FD19C0CE010E945B038111B4
:102450000CC00E941C18882381F08A81882369F0AF
:1024600082E0DF91CF910C94BB18CE010E94F8114D
:10247000CE01DF91CF910C941402DF91CF9108959A
:102480000E9443180E9453180E94711880E090E047
:102490000E94BC0D80E090E00C94D20D8091000170
:1024A000909101010E94D7190C9440120E94331898
:1024B0000C944E12E92FE295EF704E2F50E0FA0186
:1024C0003297EE30F105B0F4E758FF4F0C948E22AE
:1024D000803F91F018F4883E68F40EC0843F51F4B8
:1024E0000BC0883E48F0813F29F406C093FB882743
:1024F00080F9089580E0089581E008950E94E4172E
:102500000E945A120895CF93DF9300D000D01F92FB
:10251000CDB7DEB70F900F900F900F900F90DF9117
:10252000CF910895CF93DF9300D000D000D0CDB7E6
:10253000DEB726960FB6F894DEBF0FBECDBFDF9193
:10254000CF9108951F93CF93DF93C091920116E02E
:1025500080919301C81799F0D0E01C9FF0011D9F56
:10256000F00D1124EC56FE4F408151816281738140
:10257000848195810E9492122196C770E9CFDF91E4
:10258000CF911F9108954091C4015091C501609170
:10259000C6017091C7018091C8019091C9010C9446
:1025A00092120F931F93CF93DF938091C90182956D
:1025B0008F7009F05DC08091C601882309F458C06E
:1025C00080919201109193016091C4017091C501B5
:1025D000C091C701D091C80191E06F3F09F090E030
:1025E000292F06E0811709F443C0209721F07F3F8F
:1025F00021F030E003C031E001C0322F90E030FD27
:1026000034C0089FF001099FF00D1124DF01AC5682
:10261000BE4F11963C911197371327C03C9136134A
:1026200024C012963C91129731111FC013964D9100
:102630005C9114974C1B5D0B483C5105B0F48091A4
:10264000C9018F7080618093C901E756FE4F808178
:102650008F708061808384EC91E00E941012DF9182
:10266000CF911F910F910C94A21201968770BACF4F
:10267000DF91CF911F910F9108959F92AF92BF92DA
:10268000CF92DF92EF92FF920F931F93CF93DF933E
:10269000CDB7DEB761970FB6F894DEBF0FBECDBFE2
:1026A0008C0185E0F801DE011D9601900D928A955E
:1026B000E1F7F80140815181E2809091C40160917D
:1026C000C5012091C7013091C8012115310531F0B4
:1026D0006F3F31F481E09F3F19F403C081E001C0F6
:1026E00080E0F82FF1709F2E80FD46C1F801A38095
:1026F000B48084ECC82E81E0D82EF090C601F5019C
:10270000E21BF30BFF2009F4DFC08091C901E83C14
:10271000F10508F09BC0282F207F09F052C0561306
:1027200013C0491311C0FE2CE1100EC08F708061E0
:102730008093C9010E94C312C6010E9410128091A9
:10274000C901F801858358C1AB2831F05F3F31F4EE
:1027500081E04F3F19F403C081E001C080E080FDBB
:1027600003C081E08E2502C080E090E0F82FF17078
:10277000FF2E80FF1CC0809192012091930136E0D2
:10278000821709F417C190E0389FF001399FF00DCE
:102790001124EC56FE4F6181561306C0608146132A
:1027A00003C06281E61203C001968770E9CFFE2C58
:1027B000EE2009F421C18091C90181608093C90193
:1027C0005AC0561306C0491304C0E11002C0F801F4
:1027D0009FC04D875E878D859E850E947E128823CF
:1027E00079F1EE2069F12091C901822F82958F70D5
:1027F00090E0029774F08091C4019091C501988790
:102800008F831986BB86AA862C87CE0107960E94E5
:10281000101286E0F801A4ECB1E001900D928A95C7
:10282000E1F70E94D1120E94C3120DC0561729F180
:102830004D875E878D859E850E947E1281112CC0FA
:10284000C8010E941012FF24F394D6C0282F207FC5
:1028500069F77A2DB98AA88A6E2D89890E94831218
:1028600084EC91E00E94101286E0F60111928A95A4
:10287000E9F70E94C312F12CBFC04913D9CFE11070
:10288000D7CFF8018583C8010E94101286E0F601B7
:1028900011928A95E9F7B0C0EE2091F22091C9011A
:1028A000822F82958F7090E002970CF4B2CF8091C6
:1028B000C4019091C5019A8389831B82BD82AC8239
:1028C0002E83CE010196A3CFE83CF10508F047C066
:1028D000FE2CEE2009F4B4CF561330C049132EC09D
:1028E0002091C90120FD21C0822F82958F70482F31
:1028F00050E041155105C9F0F80125834F305105CD
:1029000041F08F5F982F9295907F822F8F70892B47
:102910008583C8010E94101286E0F801A4ECB1E0A2
:1029200001900D928A95E1F742C086E0F801A4EC8F
:10293000B1E001900D928A95E1F75EC04D875E8708
:102940008D859E850E947E12811163CF8091C90181
:1029500081608093C901C8010E9410124DC07A2D78
:10296000B98AA88A6E2D89890E94831286E0F601B1
:1029700011928A95E9F71BC0EE2009F461CF4D87CB
:102980005E878D859E850E947E12F82E882309F42D
:1029900057CF86E0F801A4ECB1E001900D928A9542
:1029A000E1F784EC91E00E94BB0E0E94D1120E94DC
:1029B000C31222C04D875E878D859E850E94E417D5
:1029C000292F22952F70223028F49F7039F0811121
:1029D00005C00BC0243028F49F7049F4805E883015
:1029E00020F0C8010E9410129F2CF92C05C0F8019C
:1029F0009581907F99F7F9CF8F2D61960FB6F89456
:102A0000DEBF0FBECDBFDF91CF911F910F91FF9021
:102A1000EF90DF90CF90BF90AF909F90089588EC9B
:102A200090E008951F93CF93DF93CDB7DEB72C9737
:102A30000FB6F894DEBF0FBECDBF4F8358876987AE
:102A40007A878B879C87CE0107960E943D13882347
:102A5000D1F09F8188852A853B85232B31F08F3FDC
:102A600031F481E09F3F19F403C081E001C080E0B0
:102A700080FD47C04F81588569857A858B859C8507
:102A80000E9492123EC086E0FE013796DE0111964A
:102A900001900D928A95E1F7FF81E8856A857B8533
:102AA0006115710531F0EF3F31F481E0FF3F19F41A
:102AB00003C081E001C080E080FD23C0209193012C
:102AC00030E0C9010196877099274091920150E04A
:102AD00084179507F1F1F983EA837D836C8396E08F
:102AE000929FD001939FB00D1124AC56BE4FFE01B2
:102AF000319601900D929A95E1F7809393010E948F
:102B0000A21216E08091920190919301891771F1C0
:102B1000189FC00111248C569E4F0E943D1388239C
:102B200029F1E09192011E9FF0011124EC56FE4F15
:102B30004081518162817381848195810E949212CA
:102B40008091920190E0019687709927809392017D
:102B5000D9CF0E9456121092930110929201E4EC88
:102B6000F1E086E0DF011D928A95E9F72C960FB619
:102B7000F894DEBF0FBECDBFDF91CF911F910895B6
:102B8000EF92FF920F931F93CF93DF938C01892BCA
:102B900009F46CC0F12CEE24E394E8012196F801CD
:102BA0008491843740F4843008F051C0813081F042
:102BB000823019F15BC0853709F444C0A8F19CE765
:102BC000980F903708F052C08F770E94630F41C072
:102BD0000E5F1F4FFE01849190E2980F983050F4E1
:102BE0008770FE2D01C0FF0F8A95EAF78F2F0E9494
:102BF000461814C00E94C10E2DC00E5F1F4FFE016B
:102C0000849190E2980F983060F48770FE2D01C097
:102C1000FF0F8A95EAF78F2F0E944C180E947118B7
:102C200019C00E94630F16C00E5F1F4FFE01C491B2
:102C3000CC2381F08FE99FE00197F1F700C00000FD
:102C4000C150F6CF0E5F1F4FFE01F49003C00E94EB
:102C5000C10E8E018F2D882309F49FCFEFE9FFE08D
:102C60003197F1F700C000008150F5CFDF91CF918F
:102C70001F910F91FF90EF900895089508950C947F
:102C80003E160C943F160E9441166093D301709338
:102C9000D4018093D5019093D6010C9440120C94EA
:102CA00043160F931F930091D3011091D4012091EB
:102CB000D5013091D601602B712B822B932B1F9164
:102CC0000F910C9443160F931F930091D301109111
:102CD000D4012091D5013091D60160237123822344
:102CE00093231F910F910C9443160F931F93009100
:102CF000D3011091D4012091D5013091D6016027E4
:102D00007127822793271F910F910C9443160C94DF
:102D10003E160E9487166093CF017093D001809376
:102D2000D1019093D2010C94401260E070E0CB018D
:102D30000C9489160F931F9341E050E060E070E01F
:102D40008A019B0104C0000F111F221F331F8A95A7
:102D5000D2F7C901B8011F910F910C9489160F93F6
:102D60001F9341E050E060E070E004C0440F551F45
:102D7000661F771F8A95D2F78091CF019091D0017D
:102D8000A091D101B091D2018A019B01082B192B8E
:102D90002A2B3B2BC901B8011F910F910C94891666
:102DA0000F931F9341E050E060E070E004C0440FD7
:102DB000551F661F771F8A95D2F7409550956095ED
:102DC00070958091CF019091D001A091D101B091E7
:102DD000D2018A019B01082319232A233B23C9011D
:102DE000B8011F910F910C9489160F931F9341E026
:102DF00050E060E070E004C0440F551F661F771F6D
:102E00008A95D2F78091CF019091D001A091D10104
:102E1000B091D2018A019B01082719272A273B2755
:102E2000C901B8011F910F910C9489160F931F933C
:102E30000091CF011091D0012091D1013091D201A8
:102E4000602B712B822B932B1F910F910C94891661
:102E50000F931F930091CF011091D0012091D101C8
:102E60003091D20160237123822393231F910F910C
:102E70000C9489160F931F930091CF011091D001EC
:102E80002091D1013091D2016027712782279327A9
:102E90001F910F910C9489160895990F990F890F1E
:102EA000E82FE695E695E695877051E001C0550F4D
:102EB0008A95EAF785E0E89FF0011124E653FE4F7A
:102EC00020E030E070E04081CB01022E02C09695F8
:102ED00087950A94E2F7817081958427852384275A
:102EE00081932F5F3F4F2530310569F70895990F82
:102EF000990F890F682F669566956695982F97703C
:102F000085E0689FB001112440E050E080E0FB01C3
:102F1000E40FF51FE653FE4F208130E0092E02C07A
:102F2000369527950A94E2F721703327042E01C0C5
:102F3000220F0A94EAF7822B4F5F5F4F453051050D
:102F400031F70895BF92CF92DF92EF92FF920F93E5
:102F50001F93CF93DF938C01C090CF01D090D0010D
:102F6000E090D101F090D2018091D3019091D401F1
:102F7000A091D501B091D601C82AD92AEA2AFB2A04
:102F8000CFE1D0E0D701C6010C2E04C0B695A795BD
:102F9000979587950A94D2F780FD04C0219790F702
:102FA000B12C07C0BC2EB8018C2F0E94C003019722
:102FB000A9F38B2DDF91CF911F910F91FF90EF908F
:102FC000DF90CF90BF900895CF93DF93EC010E94E4
:102FD000A217BE010E94C003DF91CF9108951F93F5
:102FE000CF93DF93EB0190919101992321F0CB01D5
:102FF0000E94E41713C0882349F0CB010E94A21756
:10300000182F682FCE010E944D1704C0CB010E94DB
:103010007717182FBE01812F0E94C003DF91CF9137
:103020001F9108958091D70185958595859508957F
:103030008091D701877008959091D701977081E0B2
:1030400009F480E008958091E30108959091E301EF
:10305000892B8093E301089580959091E301892362
:103060008093E30108951092E30108959091E201A5
:10307000892B8093E201089580959091E201892344
:103080008093E20108951092E20108959091E10188
:10309000892B8093E101089580959091E101892326
:1030A0008093E10108951092E10108958091D80183
:1030B000089508950C9459180C945A189091D801B9
:1030C000981721F08093D8010C945C180895809192
:1030D000D801882329F01092D80180E00C945C1864
:1030E0000895E0910001F09101018091E301808356
:1030F000E0910001F091010190818091E201892B22
:103100008083E0910001F091010190818091E101C3
:10311000892B80838091D801882381F0E091000180
:10312000F09101019081892B808380910001909121
:1031300001010E94911981110E946718809100017C
:10314000909101010C94B10D0C94591898E0899F4D
:1031500090011124262B2093D7010E94AF16809155
:10316000D7018595859585950C94A4181092D70163
:1031700080E00C94A4182091D7018095822380933D
:10318000D701982F977079F430E0482F082E000C63
:10319000550B2417350739F08595859585950E943F
:1031A000D0160C94B61808956FEF7FEF80E090E092
:1031B0000C94E12280E090E00E94BD2221E08C3E50
:1031C0009E4F09F020E0822F089582E090E00C9459
:1031D000B52283E090E00C94B522CF9384E090E098
:1031E0000E94B522C82F81E290E00E94B5222C2FC8
:1031F00030E0A901582BCA01CF910895CF93C92F70
:10320000682F84E090E00E94C3226C2F81E290E05E
:10321000CF910C94C32286E090E00C94B522682FE5
:1032200086E090E00C94C322AB01BC018FE090E0FB
:103230000C94D522AB01BC0183E190E00C94D52223
:1032400060E070E0CB010C941A1960E070E0CB01F3
:103250000E9414190C9420196CEE7EEF80E090E02F
:103260000E94E12260E082E090E00E94C32260E0E0
:1032700083E090E00E94C3221092D3011092D40107
:103280001092D5011092D60160E084E090E00E9497
:10329000C32260E081E290E00E94C32260E085E00A
:1032A00090E00E94C32260E086E090E00E94C3228A
:1032B0006FEF87E090E00E94C32240E050E0BA0147
:1032C00088E090E00E94D52260E08DE090E00E94CE
:1032D000C32240E050E0BA0188E190E00E94D5228C
:1032E00060E087E190E00E94C32240E050E0BA0134
:1032F0008CE190E00E94D52260E080E290E00E94A4
:10330000C32240E050E0BA0188E190E00E94D5225B
:103310000C9425190C942C19682F8EE090E00C94D5
:10332000C322FC01329697E080E0915029F0219170
:103330002223D9F38F5FF9CF0895662349F0FC016A
:10334000329608962191621729F0E817F907D1F70C
:1033500080E0089581E008959C01FC0132969FEF82
:1033600080E04191461789F09F3F19F4411101C057
:10337000982F8F5F8630A9F79F3F39F0F901E90F49
:10338000F11D97FDFA956283089508959C012A5FC7
:103390003F4FFC014281461301C012820196821701
:1033A0009307B9F708950C94AC190C94C6190296BA
:1033B00026E0FC0111922A95E9F7089508950C94EE
:1033C000DE190C94DE190E94E1190E94E3050E94A7
:1033D000DF1980E00E94A90591E0811101C090E011
:1033E000892F08950C94DE190C94F2190E94F41997
:1033F0008091FD01843061F11092E50120E488E1C3
:1034000090E00FB6F894A895809360000FBE2093CB
:10341000600080E00E94DD0780E00E94AB030E9414
:10342000F41983B7817F846083BF83B7816083BFD2
:103430007894889583B78E7F83BF0FB6F894A8954C
:1034400080916000886180936000109260000FBEE0
:1034500008950C94DE190E9456120E9462060E9482
:10346000A50D0E94AB030C94291A1F920F920FB660
:103470000F9211248F939F93AF93BF938091E50197
:10348000811113C08091F3019091F401A091F50195
:10349000B091F6014196A11DB11D8093F301909367
:1034A000F401A093F501B093F601BF91AF919F9104
:1034B0008F910F900FBE0F901F90189582E084BDE2
:1034C00093E095BD9AEF97BD80936E0008952FB756
:1034D000F8948091F3019091F401A091F501B091DD
:1034E000F6012FBF08952FB7F8946091F301709102
:1034F000F4018091F5019091F6012FBF08959C0190
:103500004FB7F8948091F3019091F401A091F501E7
:10351000B091F6014FBF821B930B089578941F92D0
:103520000F920FB60F9211248F939F93AF93BF9377
:103530008091F3019091F401A091F501B091F60111
:103540000196A11DB11D8093F3019093F401A09306
:10355000F501B093F601BF91AF919F918F910F90BC
:103560000FBE0F901F90189587E797E7909301087B
:10357000809300089AE088E10FB6F894A8958093AC
:1035800060000FBE90936000FFCF0C94A4080E94CF
:10359000E3058FE39CE90197F1F700C000000E946A
:1035A000E30580E00E94A90580FF04C00E94C51ABF
:1035B0000C94B41A08950E94DA18811102C00E9476
:1035C0008A190E94E5188093E4010E94ED189093F7
:1035D000F8018093F7010E94E918682F70E080E0FD
:1035E00090E00E944F166091CF017091D0018091C0
:1035F000D1019091D2010C9487168091EE0108952B
:103600000895CF93DF9300D01F92CDB7DEB790918E
:10361000FD01943011F589837B836A839093E900DF
:103620008FEF9091E800815095FD06C095ED9A9539
:10363000F1F700008111F5CF8091E80085FF0DC002
:1036400040E050E063E070E0CE0101960E945F1D13
:103650008091E8008E778093E8000F900F900F9094
:10366000DF91CF910895BC0184E00C94011BBC0153
:1036700083E00C94011BCF93DF9321E02093E900BA
:103680002FEF3091E800215035FD06C035ED3A9519
:10369000F1F700002111F5CF2091E80025FF14C0BB
:1036A000EC0140E050E068E070E00E945F1D809116
:1036B000E8008E778093E80088E0FE01A6EEB1E096
:1036C00001900D928A95E1F7DF91CF910895CF9304
:1036D000603219F52091FD012430F9F4C091E90020
:1036E000CF703091EC00232F217030FD20E8C22BE9
:1036F00022E02093E9002091E80020FF0BC040E089
:1037000050E060E270E00E945F1D8091E8008E77DB
:103710008093E800CF70C093E900CF910895809125
:10372000FC01811109C00E943B1F0E94981F8091DB
:10373000E20084608093E20008951092FC010895F5
:10374000089508950C942B1A42E061EC81E00E94E8
:10375000B41E42E261EC84E00E94B41E42E261ECDD
:1037600082E00E94B41E42E260EC83E00C94B41E3E
:103770008091FF01833009F462C030F4813071F030
:10378000823009F49BC008958A3009F487C08B30D9
:1037900009F46DC0893009F0A9C020C08091FE01F4
:1037A000813A09F0A3C08091E800877F8093E80008
:1037B0008091020290910302892B21F468E086EE49
:1037C00091E003C060E080E090E070E00E94F51DB1
:1037D0008091E8008B778093E80008958091FE0146
:1037E000813209F083C08091020290910302009718
:1037F00019F0029709F07AC08091E800877F8093E2
:10380000E8008091E80082FD05C08091FD018111F2
:10381000F8CF6CC02091F3008091F20090E0922BE1
:10382000029729F48091F1008B7F813021F48091FF
:10383000F1008093EE018091E8008B7753C0809176
:10384000FE01813A09F052C0809102029091030278
:10385000892B09F04BC08091E800877F8093E800B6
:103860008091E80080FFFCCF80910C0136C08091F0
:10387000FE018132D9F58091020290910302892BD9
:10388000A9F58091E800877F8093E8000E94E91EF7
:103890008091000280930C010C9456128091FE01DD
:1038A000813221F58091E800877F8093E8000E94B3
:1038B000E91E809101028093EF0108958091FE013D
:1038C000813AA1F48091E800877F8093E80080919D
:1038D000E80080FFFCCF8091EF018093F1008091A0
:1038E000E8008E778093E8000C94E91E08951F93FA
:1038F000CF93DF93CDB7DEB7A0970FB6F894DEBFB6
:103900000FBECDBF84B7877F84BF0FB6F894A8954C
:1039100080916000886180936000109260000FBE0B
:1039200090E080E80FB6F894809361009093610076
:103930000FBE0E94000E0E943B1F0E94981F8091A4
:10394000E20084608093E20078940E942D220E941D
:10395000060E82E091E00E94A00D13E08091FD012F
:10396000853069F40E94F6198091FB018823B1F338
:103970000E94E319882391F30E94491DEFCF0E9412
:10398000120E8091FD01843009F51093E9008091B9
:10399000E80082FF1BC08091E80085FF0AC040E07C
:1039A00050E060E270E0CE0101960E94AA1D91E015
:1039B00001C090E08091E8008B778093E800992324
:1039C00029F060E2CE0101960E9431090E94F40DB7
:1039D0000E94F30DC3CF0C94ED1C292F3327233005
:1039E0003105C9F060F42130310581F02230310514
:1039F00009F047C08BE590E020E032E046C021327C
:103A0000310511F12232310561F13BC082E190E0D4
:103A10002BE532E03AC099278130910561F040F002
:103A20008230910559F0039761F5EAECF1E008C0A6
:103A3000ECEFF1E005C0EEEDF1E002C0E0EDF1E009
:103A4000849190E09F0121C063307105D0F4660F2E
:103A5000771FFB01E458FE4F2081318189E090E01F
:103A600014C06330710568F4FB01EE0FFF1FEA58C4
:103A7000FE4F20813181FB01ED58FE4F808190E0A7
:103A800004C080E090E020E030E0FA013183208340
:103A9000089580E189BD82E189BD09B400FEFDCFB2
:103AA0008091D8008F7D8093D8008091E000826063
:103AB0008093E0008091E00081FDFCCF0895CF92DB
:103AC000DF92EF92FF920F931F93CF93DF93EC015E
:103AD0008B017A010E94081F811133C0E114F104A7
:103AE00039F0F70180819181081B190BC80FD91F8C
:103AF000C12CD12C0115110519F18091E80085FD2B
:103B000016C08091E8008E778093E800E114F104FC
:103B100049F0F70180819181C80ED91ED182C082FF
:103B200085E00FC00E94081F882321F30AC08991F5
:103B30008093F10001501109FFEFCF1ADF0ADACFAD
:103B400080E0DF91CF911F910F91FF90EF90DF9078
:103B5000CF900895CF92DF92EF92FF920F931F9331
:103B6000CF93DF93EC018B017A010E94081F811132
:103B700033C0E114F10439F0F70180819181081B11
:103B8000190BC80FD91FC12CD12C0115110519F122
:103B90008091E80085FD16C08091E8008B778093C6
:103BA000E800E114F10449F0F70180819181C80E29
:103BB000D91ED182C08285E00FC00E94081F8823D1
:103BC00021F30AC08091F100899301501109FFEFA0
:103BD000CF1ADF0ADACF80E0DF91CF911F910F91EA
:103BE000FF90EF90DF90CF900895209104023091E4
:103BF00005022617370748F06115710539F4209141
:103C0000E8002E772093E80001C0B901FC0120E014
:103C10006115710579F18091FD018823F1F18530FD
:103C2000F1F18091E80083FD3CC08091E80082FDC5
:103C30002EC08091E80080FFEBCF2091F3008091AF
:103C4000F20090E0922B6115710551F088309105DA
:103C500038F421912093F100615071090196F3CF5E
:103C600021E0089709F020E08091E8008E778093AA
:103C7000E800CECF2111CFCF0AC08091FD0188236B
:103C800061F0853061F08091E80083FD0AC0809189
:103C9000E80082FFF2CF80E0089582E0089583E09B
:103CA000089581E0089520910402309105022617BD
:103CB000370748F06115710539F42091E8002E7737
:103CC0002093E80001C0B901FC0120E061157105F5
:103CD00091F18091FD01882309F440C0853009F4F9
:103CE0003FC08091E80083FD3DC08091E80082FDE7
:103CF0002FC08091E80080FFE9CF2091F3008091F0
:103D0000F20090E0922B6115710559F08830910511
:103D100040F424912093F10031966150710901968D
:103D2000F2CF21E0089709F020E08091E8008E773B
:103D30008093E800CBCF2111CCCF0AC08091FD0148
:103D4000882361F0853061F08091E80083FD0AC02E
:103D50008091E80082FFF2CF80E0089582E008952C
:103D600083E0089581E00895982F973068F5909347
:103D7000E900981739F07091EC002091ED00509116
:103D8000F00003C0242F762F50E021FD02C09F5F7A
:103D9000ECCF3091EB003E7F3093EB003091ED00A3
:103DA0003D7F3093ED003091EB0031603093EB00BC
:103DB0007093EC002093ED005093F0002091EE0002
:103DC00027FDE5CF80E008958F708093E90081E0C2
:103DD00008958091FE0187FF11C08091E80082FD67
:103DE00005C08091FD018111F8CF11C08091E800DC
:103DF0008B770BC08091FD01882349F08091E8000A
:103E000080FFF8CF8091E8008E778093E8000895D6
:103E10002091E4003091E50095E64091EC00842F7C
:103E2000817040FF23C08091E80080FD1DC080911B
:103E3000FD01882399F0853099F08091EB0085FD94
:103E400011C04091E4005091E5002417350729F393
:103E5000915011F09A01E1CF84E0089582E0089535
:103E600083E0089581E0089580E008954091E8009E
:103E700042FFDDCF08950E94A91F0E94B11FE0EE0E
:103E8000F0E0808181608083E8EDF0E080818F77D1
:103E9000808319BCA7EDB0E08C918E7F8C938081DC
:103EA0008F7E80831092FC0108950F931F93CF9310
:103EB000DF930E94A91F0E94B11FC8EDD0E0888146
:103EC0008F77888388818068888388818F7D8883C5
:103ED00019BC1092FD011092F9011092FB01109291
:103EE000FA0100EE10E0F80180818B7F80838881E9
:103EF0008160888342E060E080E00E94B41EE1EED1
:103F0000F0E080818E7F8083E2EEF0E0808181604E
:103F10008083808188608083F80180818E7F8083A8
:103F2000888180618883DF91CF911F910F910895DF
:103F3000E8EDF0E080818F7E8083E7EDF0E0808126
:103F40008160808384E082BF81E08093FC010C94D7
:103F5000551FE8EDF0E080818E7F80831092E200B3
:103F600008951092DA001092E10008951F920F92C6
:103F70000FB60F9211242F933F934F935F936F933C
:103F80007F938F939F93AF93BF93EF93FF93809112
:103F9000E10082FF0BC08091E20082FF07C08091A8
:103FA000E1008B7F8093E1000E942C228091DA0057
:103FB00080FF1FC08091D80080FF1BC08091DA0075
:103FC0008E7F8093DA008091D90080FF0DC080E160
:103FD00089BD82E189BD09B400FEFDCF81E08093F7
:103FE000FD010E948F1B05C019BC1092FD010E94AB
:103FF0009D1B8091E10080FF19C08091E20080FF4D
:1040000015C08091E2008E7F8093E2008091E200F3
:1040100080618093E2008091D80080628093D80014
:1040200019BC85E08093FD010E94A11B8091E100F5
:1040300084FF30C08091E20084FF2CC080E189BD04
:1040400082E189BD09B400FEFDCF8091D8008F7D4B
:104050008093D8008091E1008F7E8093E100809171
:10406000E2008F7E8093E2008091E2008160809385
:10407000E2008091F901882311F084E007C080916B
:10408000E30087FD02C081E001C083E08093FD0171
:104090000E94A21B8091E10083FF29C08091E20071
:1040A00083FF25C08091E100877F8093E10082E05B
:1040B0008093FD011092F9018091E1008E7F809341
:1040C000E1008091E2008E7F8093E2008091E20027
:1040D00080618093E20042E060E080E00E94B41ED4
:1040E0008091F00088608093F0000E94A01BFF91F7
:1040F000EF91BF91AF919F918F917F916F915F9160
:104100004F913F912F910F900FBE0F901F901895D8
:104110001F920F920FB60F9211242F933F934F933C
:104120005F936F937F938F939F93AF93BF93CF933F
:10413000DF93EF93FF93C091E900CF708091EC0083
:10414000D82FD17080FDD0E81092E9008091F00066
:10415000877F8093F00078940E94CC201092E90031
:104160008091F00088608093F000CD2BCF70C093D9
:10417000E900FF91EF91DF91CF91BF91AF919F91B6
:104180008F917F916F915F914F913F912F910F9000
:104190000FBE0F901F9018951F93CF93DF93CDB74D
:1041A000DEB7AA970FB6F894DEBF0FBECDBFEEEF15
:1041B000F1E08091F100819322E0E630F207C9F747
:1041C0000E94B81B8091E80083FF2EC18091FE0100
:1041D0009091FF01492F50E04A30510508F024C169
:1041E000FA01E957FF4F0C948E22803821F0823873
:1041F00009F01AC108C08091FA019091FB0199233E
:1042000089F082600FC0809102028F70873008F0C1
:104210000BC18093E9008091EB0085FB882780F932
:104220001092E9009091E800977F9093E8008093C6
:10423000F1001092F100D1C0282F2D7F09F0F4C0B9
:10424000882319F0823061F0EFC080910002813044
:1042500009F0EAC0933009F080E08093FB012EC0A2
:104260008091000281112AC0809102028F702FEF8D
:10427000280F263008F0D8C08093E9002091EB0089
:1042800020FF1CC0933021F48091EB00806214C0A9
:104290009091EB0090619093EB0021E030E0A90158
:1042A00002C0440F551F8A95E2F74093EA0010922E
:1042B000EA008091EB0088608093EB001092E900A7
:1042C0008091E800877F8093E8000E94E91EACC0DF
:1042D0008111AAC0109100021F778091E3008078BD
:1042E000812B8093E3008091E800877F8093E80032
:1042F0000E94E91E8091E80080FFFCCF8091E300DE
:1043000080688093E300111102C082E001C083E065
:104310008093FD0189C08058823008F085C080916B
:104320000002909101028C3D53E0950779F583E0FE
:104330008A838AE289834FB7F894DE01139620E0DE
:104340003EE051E2E32FF0E050935700E49120FF6C
:1043500003C0E295EF703F5FEF708E2F90E0EA3080
:1043600010F0C79601C0C0968D939D932F5F2431A6
:1043700049F74FBF8091E800877F8093E8006AE2A9
:1043800070E0CE0101960E94F51D16C060910202F8
:1043900070910302AE014F5F5F4F0E94EB1CBC01A6
:1043A000892B09F441C09091E800977F9093E80031
:1043B00089819A810E94531E8091E8008B778093B7
:1043C000E80032C0803881F58091E800877F8093D3
:1043D000E8008091F9018093F1008091E8008E77E8
:1043E00072CF811121C08091000290910102992722
:1043F0000297D4F48091E800877F8093E800809151
:1044000000028093F9010E94E91E8091F901811157
:1044100006C08091E30087FD02C081E001C084E016
:104420008093FD010E94A41B8091E80083FF0AC0D5
:104430008091E800877F8093E8008091EB008062A4
:104440008093EB00AA960FB6F894DEBF0FBECDBFE7
:10445000DF91CF911F9108950895CF938091FD0131
:104460008823A1F0C091E900CF709091EC00892FD2
:10447000817090FD80E8C82B1092E9008091E800DF
:1044800083FD0E94CC20CF70C093E900CF910895A6
:10449000DB018F939F930E94AA22BF91AF91A29FAD
:1044A000800D911DA39F900DB29F900D1124089532
:1044B000AA1BBB1B51E107C0AA1FBB1FA617B7074A
:1044C00010F0A61BB70B881F991F5A95A9F7809566
:1044D0009095BC01CD010895A1E21A2EAA1BBB1B29
:1044E000FD010DC0AA1FBB1FEE1FFF1FA217B307C0
:1044F000E407F50720F0A21BB30BE40BF50B661FD6
:10450000771F881F991F1A9469F760957095809599
:1045100090959B01AC01BD01CF010895EE0FFF1FE7
:104520000590F491E02D099469279627692778274B
:10453000872778270895A29FB001B39FC001A39F4A
:10454000700D811D1124911DB29F700D811D1124CC
:10455000911D08950E949B22A59F900DB49F900DE0
:10456000A49F800D911D11240895F999FECF92BD4D
:1045700081BDF89A992780B50895A8E1B0E042E09E
:1045800050E00C94E922262FF999FECF92BD81BD0F
:10459000F89A019700B4021639F01FBA20BD0FB681
:1045A000F894FA9AF99A0FBE08950396272F0E945D
:1045B000C4220E94C322252F0E94C422242F0C94BF
:1045C000C4220196272F0E94C4220C94C322DC012E
:1045D000CB01FC01F999FECF06C0F2BDE1BDF89A0E
:1045E000319600B40D9241505040B8F70895F894B8
:0245F000FFCFFB
:1045F200D901FD1A3B1B001B371B331B01E200E9EB
:1046020000EA00B500B600B700CD008301CC008AF5
:10461200019201940121022302240225022602278B
:10462200022A02B300B4006F007000818283C69731
:104632006694E200E900EA00B500B600B700CD00DA
:104642008301CC008A0192019401210223022402F7
:104652002502260227022A02B300B4006F0070006E
:10466200818283402232C1026D028F0212022B022A
:024672004B02F9
:00000001FF
