:100000000C94C6020C940D030C940D030C940D0378
:100010000C940D030C940D030C940D030C940D0320
:100020000C940D030C940D030C940B280C94DD28F8
:100030000C9472220C940D030C940D030C940D037C
:100040000C940D030C940D030C940D030C940D03F0
:100050000C940D030C94CB220C940D030C940D0303
:100060000C940D030C940D030C940D030C940D03D0
:100070000C940D030C940D030C940D030C940D03C0
:100080000C940D030C940D030C940D030C940D03B0
:100090000C940D030C940D030C940D030C940D03A0
:1000A0000C940D030C940D030C940D03050F080F15
:1000B000100F150F1A0F1F0F240F290F2E0F330FBC
:1000C000380F3D0F3F0F420F450F480F4B0F4E0F9C
:1000D000500F550F8E119111A311B411BC11C711FE
:1000E000CA11CD11D01115121812D311D611DA116F
:1000F000E711F411F711FB110812EF17EF17211890
:1001000021186E18A219A219A2198C1821193219D6
:1001100032199219A219A2199B193E1A3E1A501AA5
:10012000501A471A501A501A501A3E1A3E1A4C1AB0
:10013000501A501A4C1A4A297129692A7129692AB8
:10014000BD29E029692A372A462A1E001F002000FF
:100150002100210000000000000000002A2B2800E0
:100160000000000000000000000000000000002966
:10017000000000002C1E3420212224342627252EA6
:10018000362D3738271E1F202122232425263333DE
:10019000362E37381F0405060708090A0B0C0D0E0A
:1001A0000F101112131415161718191A1B1C1D2FD6
:1001B0003130232D350405060708090A0B0C0D0EF6
:1001C0000F101112131415161718191A1B1C1D2FB6
:1001D0003130354C0000000000000000000000003D
:1001E00000000000000000007E0F00D4FFFFFFC7EA
:1001F0000000007832190A00047F3F1F6432146443
:100200003214783C1E1E140A052223252628292A8A
:100210002C2D2F3032333536383A3B3D3E40424369
:100220004547494A4C4E5051535557595A5C5E60A8
:1002300062646668696B6D6F71737577797B7D7FBA
:1002400081838587898A8C8E90929496989A9C9EB9
:100250009FA1A3A5A7A8AAACAEAFB1B3B4B6B8B9D5
:10026000BBBCBEBFC1C2C3C5C6C7C9CACBCCCDCE3D
:10027000D0D1D2D2D3D4D5D6D7D7D8D9D9DADADB20
:10028000DBDBDCDCDCDCDCDDDDDDDDDCDCDCDCDCAC
:10029000DBDBDBDADAD9D9D8D7D7D6D5D4D3D2D2EB
:1002A000D1D0CECDCCCBCAC9C7C6C5C3C2C1BFBED3
:1002B000BCBBB9B8B6B4B3B1AFAEACAAA8A7A5A33E
:1002C000A19F9E9C9A98969492908E8C8A898785FD
:1002D00083817F7D7B79777573716F6D6B696866DC
:1002E0006462605E5C5A5957555351504E4C4A49AE
:1002F00047454342403E3D3B3A3836353332302F56
:100300002D2C2A292826252322FFAA7F55400001CB
:1003100001010101010101010202020202020202C5
:100320000203030303030303030404040404040497
:10033000050505050506060606060707070707085B
:10034000080808090909090A0A0A0B0B0B0C0C0C0E
:100350000D0D0D0E0E0E0F0F0F10101111111212A8
:1003600013131414151516161717181819191A1A25
:100370001B1B1C1D1D1E1E1F202021222223242486
:10038000252626272829292A2B2C2D2D2E2F3031C2
:100390003232333435363738393A3B3C3D3E3F40D4
:1003A0004142434445464748494A4C4D4E4F5051BF
:1003B0005354555658595A5B5D5E5F616264656679
:1003C00068696B6C6D6F7072737577787A7B7D7E00
:1003D0008082838587888A8C8E8F91939596989A50
:1003E0009C9EA0A2A3A5A7A9ABADAFB1B3B5B7BA68
:1003F000BCBEC0C2C4C6C9CBCDCFD1D4D6D8DBDD3C
:10040000DFE2E4E7E9EBEEF0F3F5F8FAFDFF0403D1
:100410003000000016036D0069006E0069004D0099
:100420004100430052004F00350000001E036C00E5
:10043000650061006600630075007400740065006B
:1004400072006C0061006200730000000403090484
:1004500009025B00030100A0FA0904000001030186
:100460000100092111010001224000070581030854
:10047000000A090401000203000000092111010023
:100480000122220007058203200001070503032043
:10049000000109040200010300000009211101000C
:1004A00001226D000705840320000A1201100100DB
:1004B000000008EBCE07000100010203010660FF07
:1004C0000961A1010962150026FF009520750881C8
:1004D000020963150026FF00952075089102C005EA
:1004E000010980A101850319012AB700150126B76A
:1004F00000950175108100C0050C0901A10185045A
:1005000019012AA002150126A0029501751081008B
:10051000C005010906A1018505050719E029E715B0
:100520000025019508750181020507190029EF15BD
:1005300000250195F075018102050819012905952D
:100540000575019102950175039101C00501090628
:10055000A101050719E029E7150025019508750196
:1005600081029501750881010507190029FF150011
:1005700026FF0095067508810005081901290595D3
:100580000575019102950175039101C011241FBEEB
:10059000CFEFDAE0DEBFCDBF04B603FE27C0809107
:1005A000DB029091DC02A091DD02B091DE02873087
:1005B000904BA740B04BD1F41092DB021092DC02BA
:1005C0001092DD021092DE0214BE84B7877F84BFD2
:1005D0000FB6F894A89580916000886180936000C0
:1005E000109260000FBEE0E0F8E3099511E0A0E092
:1005F000B1E0E2E2F8E502C005900D92A03EB1073D
:10060000D9F722E0A0EEB1E001C01D92AB3DB207E8
:10061000E1F70E94CC240C940F2C0C940000853040
:1006200038F4662311F08AEA01C089EA0C9498171D
:10063000089581E0089581E008950C941B030895C6
:100640000C941F031F93CF93DF9300D000D01F9211
:10065000CDB7DEB749835A836B83309123028981FA
:100660009A81311114C0662359F0222349F00E9467
:100670007C1F182F682F89819A810E94231F03C035
:100680000E944F1F182F69817A81812F04C00E9418
:100690007C1F69817A810F900F900F900F900F90BF
:1006A000DF91CF911F910C94E212FC01262F408123
:1006B00051816281738184810C942203CF93DF93F3
:1006C000EC0160E00E945503BE01DF91CF910C94D4
:1006D0002003FF920F931F93CF93DF93E82FF0E057
:1006E000EC5AFE4FF490C82FC695C695C695D0E03B
:1006F000FE01EC51FE4F0491877010E0082E02C0FD
:10070000159507950A94E2F701701127FE01EC5246
:10071000FE4FC491D0E002C0D595C7958A95E2F707
:10072000C170DD270115110519F081EE0E941E1719
:10073000209719F086EE0E941E178F2D0E949817A1
:10074000CD2B19F086EE0E946C17012B41F081EE43
:10075000DF91CF911F910F91FF900C946C17DF9157
:10076000CF911F910F91FF900895EF92FF920F93F9
:100770001F93CF93DF93EC01162F0AE08881882323
:1007800009F455C0813009F043C08981813041F4BA
:100790007E0182E0E80EF11C8A810E94981709C050
:1007A000823049F47E01E2E0EE0EF11C8A810E9463
:1007B0001E17E7012FC0833041F47E01F2E0EF0EF7
:1007C000F11C8A810E946C17F4CF843011F02196BD
:1007D00021C02A81229680E090E030E02053310948
:1007E0002A30310558F4089FA001099F500D1124AB
:1007F000C901840F951F21962881EFCF009751F0F2
:10080000EFE9FFE03197F1F700C000000197F6CF64
:100810000E9469032196812F882309F4AFCFEFE965
:10082000FFE03197F1F700C000008150F5CFDF9174
:10083000CF911F910F91FF90EF90089560E00C947D
:10084000B5038F929F92AF92BF92CF92DF92EF92B9
:10085000FF920F931F936B017C0181E090E0A0E079
:10086000B0E04C015D0104C0880C991CAA1CBB1CA3
:100870004A95D2F7AC01BD0104C0440F551F661F55
:10088000771F2A95D2F7482959296A297B2904C05C
:10089000880F991FAA1FBB1F0A95D2F78A019B01D7
:1008A0000C211D212E213F2140175107620773079C
:1008B00039F4BC01CD016C297D298E299F290AC0FC
:1008C00080959095A095B095BC01CD016C217D21BE
:1008D0008E219F211F910F91FF90EF90DF90CF907D
:1008E000BF90AF909F908F9008950F93382F262F31
:1008F0006091610270916202809163029091640242
:10090000042F432F0E9421040F910C945F1E0E941C
:1009100004230E94B420811102C00E945B210C9428
:10092000FF060C94FB0608950E942C1A0E94930463
:100930002FEF84E39CE0215080409040E1F700C01D
:1009400000000C94F1220F931F93CF93DF93EC01DF
:1009500061E00E9455038C01BE010E94E9108823CA
:10096000A9F1BE01C8010E941D03882379F1BE01CF
:10097000C8010E943C14882349F1BE01C8010E94AD
:100980008E14882319F1BE01C8010E94B91588236D
:10099000E9F0BE01C8010E94EE0E8823B9F08A81F9
:1009A000882369F001158CE5180731F00F3D1C45CF
:1009B00031F40E945B210AC00E94940407C0CE015A
:1009C000DF91CF911F910F910C94190380E0DF917B
:1009D000CF911F910F91089508950C94EC0481E03C
:1009E00008950C94EF04CF93C82F0E94ED048C2F30
:1009F0000E94F104CF91089580E090E00895089559
:100A0000880F991FFC01EC50FE4F85919491089539
:100A1000CF93DF930E94E2120E941A06EC01811527
:100A2000904508F043C0C11580E4D80708F0CBC05A
:100A3000C03ED10528F5C03CD10508F0B3C0C83A86
:100A4000D10578F4C53AD10508F0A4C0C130D1056C
:100A500009F4ECC008F4E8C0C430D10508F0E6C0E1
:100A6000E3C0CF3BD10508F0DFC0C85AD0E0CC0FBF
:100A7000DD1FCC5DDE4F0990D881C02DD464D6C077
:100A8000C11590E2D90750F4C11521E0D20708F052
:100A9000CDC0C83ED10508F4C9C0C6C0C11580E3A9
:100AA000D80708F086C0CE019F707FC0C11595E5BC
:100AB000D90708F043C0C11524E5D20708F09AC051
:100AC000C11582E5D80708F5C11591E5D90708F0E9
:100AD0007DC0CE0174E0969587957A95E1F7837095
:100AE0009C2F937021E030E002C0220F331F9A95B3
:100AF000E2F73C68382BCF70C695C69580E2C89F58
:100B0000E0011124C22BD32B91C09E012370332707
:100B10008C2F86958695C115D34508F05CC0C1E041
:100B2000D0E002C0CC0FDD1F2A95E2F720E2829FC1
:100B3000C0011124C82BD92BDC6878C0C11529E568
:100B4000D207A0F4C11588E5D80708F058C0C11530
:100B500096E5D90708F068C08C2F0E94AE068F7109
:100B6000C82FD0E0DC2FCC27D06260C0C1152AE5A9
:100B7000D20708F449C0CE0190568115904208F082
:100B800053C08D2F8F710E94AE06DD27D0628F710A
:100B9000D82B4CC0C55AD0E0CE5ADE4FC881D0E029
:100BA000D06444C0CE01805C91090E940005EC0134
:100BB0003DC0CE019927D3FF03C0EC01D86C36C0ED
:100BC000EC01D06C33C0DF70D06A30C0DC2FCC2792
:100BD000C16FD06A2BC0C1E0D0E002C0CC0FDD1FD6
:100BE0002A95E2F720E2829FC0011124C82BD92B5D
:100BF000DA681CC0DC2FCC27C46FD06A17C0DC2F8A
:100C0000CC27C06FD06A12C08C2F8F700E94AE06A6
:100C100094E0D695C7959A95E1F7CF70D0E0DC2F98
:100C2000CC27D069C82B02C0C0E0D0E0CE01DF9154
:100C3000CF9108958238910569F1B0F4813391051F
:100C400009F46DC048F48932910509F463C08A3211
:100C5000910509F469C008958533910509F455C0DB
:100C600089339105B9F00895833E910569F138F40F
:100C7000803E9105B1F0823E910509F10895863ECE
:100C80009105A9F1873E9105B9F1843E910509F0DE
:100C900064C023C02091CC0220FD4FC021FD4DC077
:100CA00008958091CC0280FD44C08091CD0280FFE8
:100CB00044C08091CC0284FD42C083EE4DC080913F
:100CC000CC0282FF38C0F5CF8091CC0282FD33C0C8
:100CD0008091CD0280FD31C0ECCF8091CD0281FFAB
:100CE00032C08091CC0284FD2AC087EE35C080914D
:100CF000CC0283FF26C0F5CF8091CC0283FD21C0BA
:100D00008091CD0281FD1FC0ECCF8091CC0285FD8A
:100D10001CC01DC08091CC0285FD19C016C08091F9
:100D2000CC0286FD16C017C08091CC0286FD13C090
:100D300010C089E311C082EE0FC080EE0DC080E0CC
:100D40000BC086EE09C084EE07C089E205C085E3CA
:100D500003C08AE201C081E390E008959091CC0243
:100D600092FF0DC0282F2871283019F4877F8460E6
:100D700006C0282F2471243011F48B7F886093FFE4
:100D80000DC0282F2871283119F4877E846106C090
:100D9000282F2471243111F48B7E88612091CD029B
:100DA00020FF0DC0382F3871383019F4877F8160EB
:100DB00006C0382F3171313011F48E7F886021FFE9
:100DC0000DC0282F2871283119F4877E816106C053
:100DD000282F2171213111F48E7E886194FD877E48
:100DE0000895E82FF0E0ED54FD4F808108950895B7
:100DF00008950C94F8060C94F9060C94F8060C94DB
:100E0000FD06CF93DF93A5E5B1E06AE571E041E02F
:100E100050E08D918F3F71F46A177B07D1F71092E4
:100E2000B2021092B30281E00E946D07DF91CF9170
:100E30000C948704E82FE295EF70F0E021A18F7009
:100E4000EA0102C0CC0FDD1F8A95E2F7CE019C2F8C
:100E50009095922391A392A1892B82A3DDCFCF936A
:100E6000A5E5B1E040E050E030E061E070E02D91B8
:100E70002F3FC1F0E22FE295EF70F0E080A190E00B
:100E80002F7002C0959587952A95E2F780FD07C0DF
:100E9000CB01042E01C0880F0A94EAF702C080E05B
:100EA00090E0382B4F5F5F4F4530510501F780913F
:100EB000B202831721F03093B202C1E001C0C0E05A
:100EC0002C2F41E063EB72E082EB92E00E946E0710
:100ED0000E9491048C2FCF9108950895FF920F9353
:100EE0001F93CF93DF938C01F62ED72FC42F22238D
:100EF00049F081E08093E2010E94A4229093E101F5
:100F00008093E0018091E2018823C1F08091E001AB
:100F10009091E1010E94BC22069780F0EF2DFD2FF9
:100F2000D8014C2F50E0CD01801B910B8417950701
:100F30001CF48D918193F7CF1092E201DF91CF9154
:100F40001F910F91FF900895EF92FF920F931F93BF
:100F5000CF93DF938B01682F11110AC0442329F02E
:100F6000E82FF0E0E25FFC4F6491762F862F75C08A
:100F7000212F30E0E82FF0E0442321F0E25FFC4F26
:100F8000E491F0E046E0049FC0011124CFEFD0E0EF
:100F9000BE010E94B72A4BEA4603C001479F900D4D
:100FA0001124800F911D800F911D982F990F890F8B
:100FB000AE01421B530B4E9FD0014F9FB00D5E9F61
:100FC000B00D11249B2F189FA0011124452F5527E8
:100FD0008E01041B150B0E9FA0010F9F500D1E9F2D
:100FE000500D11247E01E81AF108E29E8001E39E73
:100FF000100DF29E100D1124212F3327C21BD30B8D
:10100000CE9F9001CF9F300DDE9F300D11246230B6
:101010007105A9F048F46115710569F06130710539
:10102000C9F48B2F752F0DC06430710581F058F015
:101030006630710579F47E2F8B2F932F0DC0832F8F
:101040007B2F9E2F09C08E2F7B2F952F05C08E2FB3
:10105000732F02C07E2F852F692FDF91CF911F91B3
:101060000F91FF90EF90089541E00E94A40708952A
:1010700008950E9434080895CF93DF93762FE901F5
:10108000682F842F0E943908798368838A83DF91CF
:10109000CF9108958091B402282F269530E0211534
:1010A000310519F48170826005C02B32310524F0BE
:1010B000817084658093B402089588E090E00C9478
:1010C000B02BCF92DF92EF92FF926B017C010E94D6
:1010D0004A08B701A60188E090E0FF90EF90DF900A
:1010E000CF900C94CE2B6091B4027091B502809198
:1010F000B6029091B7020C946108E4EBF2E083E051
:10110000808311828FEF8283838314826081718157
:10111000828193810C9461088091B40280FF02C0A7
:101120008695089580E008959091B802933018F460
:101130009F5F9093B802882351F06091B402709140
:10114000B5028091B6029091B7020C94610808959F
:1011500081E00C9494089091B802992319F0915071
:101160009093B802882351F06091B4027091B50257
:101170008091B6029091B7020C946108089581E0C5
:101180000C94AB088091B80208958093B80266234E
:1011900051F06091B4027091B5028091B6029091C5
:1011A000B7020C946108089560E00C94C508809122
:1011B000B50208958091B60208958091B70208950E
:1011C00070E00C945F0F609108018091B40280FF81
:1011D0000AC08091070123E0829FC0011124875437
:1011E0009D4F0C94E0088091090190910A018917A4
:1011F00080F7E82FF0E09F01220F331FE20FF31F6B
:10120000E754FD4F1182108212828F5FF0CF9091D0
:10121000B40290FF16C09091090120910A01921723
:1012200070F4E92FF0E0DF01AA0FBB1FEA0FFB1FEC
:10123000E754FD4F8183608342839F5FF0CF0C941E
:10124000E3080895CF93DF9300D01F92CDB7DEB7A8
:101250009091B40290FF0AC09E012F5F3F4F0E9401
:101260003C084B8169818A810E9407090F900F9089
:101270000F90DF91CF910895CF93DF93EC01EC8134
:10128000F0E0E75FFD4F4491E4EBF2E062818181A1
:101290000E9422098C818F5F8C83DF91CF9108950A
:1012A000CF93DF93EC01E4EBF2E0438162818C8128
:1012B0000E9422098C818F5F8C83DF91CF910895EA
:1012C0000F931F93CF93DF9300D01F92CDB7DEB75C
:1012D0008C018091E30181110AC09E012F5F3F4F75
:1012E0004FEF6FEF0E943C088A818093E301F80181
:1012F0008481813051F028F0823061F44091E30123
:101300000AC08091E30140E007C06091E30140E042
:1013100080E003C040E080E060E00E940709F8013F
:10132000848190E0019663E070E00E94CB2A848380
:101330000F900F900F90DF91CF911F910F91089513
:10134000AF92BF92CF92DF92EF92FF920F931F93D3
:10135000CF93DF9300D01F92CDB7DEB7182FF62EB4
:10136000042FE22E9091B40290FF6DC0E92FE69514
:10137000AE2FB0E0A65ABE4F8C91809306029E7F9E
:10138000923061F49E012F5F3F4F812F0E943C08F5
:101390004B8169818A810E94070943C0823019F418
:1013A0000091B7023EC0863019F41091B50239C0E1
:1013B0008930D9F38931A9F5E9518E2F8170D82E62
:1013C000E695F0E0E75FFC4FA590B490C12CBB24FC
:1013D00060910B01C61618F52C2D30E0A29EC001BD
:1013E000A39E900DB29E900D112470E00E94B72A2A
:1013F000812FD11002C0860F01C0861B9091090178
:10140000290F311DA901440F551F240F351F2754E3
:101410003D4F402F6F2D0E943C08C394D9CF0E94AE
:10142000E3081093B502F092B6020093B702EE20E3
:1014300051F06091B4027091B5028091B602909122
:10144000B7020E9461080F900F900F90DF91CF912B
:101450001F910F91FF90EF90DF90CF90BF90AF90D2
:101460000895E4EBF2E09181282F4381628188E0C6
:10147000890F0C94A00981E00C94310AE4EBF2E0AE
:101480009181282F4381628188EF890F0C94A009F4
:1014900081E00C943E0AE4EBF2E0628121E1620F0C
:1014A00008F46FEF282F438181810C94A00981E01B
:1014B0000C944B0AE4EBF2E0628121E1621B08F438
:1014C00060E0282F438181810C94A00981E00C9475
:1014D0005A0AE4EBF2E0438121E1420F08F44FEFB6
:1014E000282F628181810C94A00981E00C94690A03
:1014F000E4EBF2E0438121E1421B08F440E0282FB5
:10150000628181810C94A00981E00C94780A20E02A
:101510000C94A009FF920F931F93CF93DF93EC01DC
:10152000F12C0FEF10E060910B01F616F0F48091B2
:1015300009012F2D30E0280F311DC901880F991F97
:10154000280F391F27543D4F70E0C8010E94CB2A55
:10155000962F8C814091B7026091B602F99E800D62
:1015600011240E943C08F394DECF0E94E3089A8184
:101570008C8190FF02C08F5F01C081508C83DF910E
:10158000CF911F910F91FF900895AF92BF92CF928C
:10159000DF92EF92FF920F931F93CF93DF93FC01A3
:1015A000828180FF02C00FEF01C001E010E045E042
:1015B000A42E80910B01181708F043C080910901F7
:1015C000C12ED12CE601C80FD11DCE01880F991F65
:1015D000C80FD91FC754DD4F198218821A8234E010
:1015E000E32EF12CB12C8091E5018B0D86302CF08F
:1015F0006A2D0E94A92A892F05C087FF03C09091F8
:101600000B01890F082E000C990BC816D90691F40E
:101610008091B7028E9DA0018F9D500D112455958C
:101620004795559547959E016091B6028091B50208
:101630000E943C08B00EF1E0EF1AF108A1F61F5F1E
:10164000B8CF0E94E3088091E501013031F48111A7
:1016500002C080910B01815007C090E0019660911B
:101660000B0170E00E94CB2A8093E501DF91CF91BE
:101670001F910F91FF90EF90DF90CF90BF90AF90B0
:101680000895CF938091090190910A01891770F410
:10169000E82FF0E09F01220F331FE20FF31FE75402
:1016A000FD4F1182108212828F5FF0CFC0E06091F7
:1016B0000B01C617C0F5EC2FF0E070E0CF010E94DF
:1016C000CB2A20910901820F2091E401022E000C07
:1016D000330B90E0E217F307CCF020910601022EC5
:1016E000000C330B2E173F078CF09C01220F331F89
:1016F000820F931F9C0127543D4F4091B702609188
:10170000B6028091B5020E943C080BC0FC01EE0FAE
:10171000FF1F8E0F9F1FFC01E754FD4F11821082A7
:101720001282CF5FC4CF0E94E3082091050180910F
:10173000E401820F8093E40190910601920F90934F
:10174000060119165CF4082E000C990B40910B0150
:1017500050E041505109841795071CF021952093C2
:101760000501CF9108958F929F92AF92BF92CF9231
:10177000DF92EF92FF920F931F93CF93DF938C0131
:10178000FC014481C42FD0E09E01DE010E94162B93
:101790009B01AC010E942C2B6B017C01E0E2F0E08C
:1017A000EC1BFD0BA5E5B0E09B01AC010E942C2BCE
:1017B0004B015C019F01DF010E940E2B9B01AC01DC
:1017C0000E94372B9B01AC012C0D3D1D4E1D5F1D52
:1017D000C501B4010E94DF2AC22FD22F2A3228F479
:1017E000F3E02F9F900111240DC025E530E02C1B64
:1017F0003109C901880F991F280F391F37FF02C00F
:101800002F5F3F4F35952795C22FC095F12C85E569
:10181000E82EED1A80910B01F816C8F4F1FC02C015
:101820008E2D01C08D2F909109012F2D30E0290FB1
:10183000311DA901440F551F240F351F27543D4F5B
:101840004C2F6091B6020E943C08F394E3CF0E94B3
:10185000E308F8018481811102C091E003C0803265
:1018600019F49FEF9093040190910401890FF801FE
:101870008483DF91CF911F910F91FF90EF90DF90C4
:10188000CF90BF90AF909F908F9008950F931F932C
:10189000CF93DF93EC0100E010E080910B01282F43
:1018A00030E00217130724F5909109019801290FE0
:1018B000311DA901440F551F240F351F27543D4FDB
:1018C000869590E04C81081719071CF4442331F0E9
:1018D00002C0411103C04091B70201C040E06091D5
:1018E000B6028091B5020E943C080F5F1F4FD5CF12
:1018F0000E94E3088C8190E00196817099278C8387
:10190000DF91CF911F910F9108958F929F92AF9287
:10191000BF92CF92DF92EF92FF920F931F93CF93DC
:10192000DF93FC01B280948081E0848300E015E0C5
:101930005BE4A52E88248394EE24EA94F12C7BE4C6
:10194000C72ED12C80910B01081708F08FC0C02F33
:10195000D0E01C9FF0011D9FF00D1124EA51FE4FB5
:10196000911003C01382128267C02381222389F160
:10197000215023833481332319F09A2D921B01C007
:10198000922F8091B7021C9FF0011D9FF00D112432
:10199000EA51FE4F899FC0011124B6010E94B72A67
:1019A0006283211104C0332311F01482A38222E048
:1019B0002B1508F441C01C9FF0011D9FF00D112450
:1019C000EA51FE4F8091B50280838091B6028183F7
:1019D00033C00E948B2B8230914074F582E08B15CE
:1019E00030F40E948B2BB7010E94CB2A02C0809159
:1019F000B5021C9FF0011D9FF00D1124EA51FE4F0E
:101A0000808322E02B1558F40E948B2B2091B60284
:101A10002695622F70E00E94CB2A820F02C080912F
:101A2000B6021C9FF0011D9FF00D1124EA51FE4FDC
:101A300081831282A3828482809109019E01280FF2
:101A4000311DC901880F991F280F391F27543D4F99
:101A50001C9FF0011D9FF00D1124EA51FE4F4281A1
:101A6000618180810E943C080F5F6CCFDF91CF9134
:101A70001F910F91FF90EF90DF90CF90BF90AF90AC
:101A80009F908F900C94E308E4EBF2E080818E7FCE
:101A9000808360817181828193810E9461081092AC
:101AA00007022FEF80E792E0215080409040E1F75D
:101AB00000C000000C94E308E4EBF2E080818E7F2C
:101AC0008083109207022FEF80E792E02150804040
:101AD0009040E1F700C000000C94E3086091B4026C
:101AE000669570E04BE050E08CE091E00E949B2B0B
:101AF000892B19F481E0809307020E94A42290931D
:101B000000028093FF0108959091B40290FF35C0C8
:101B10009170811102C0926006C08B3210F0946502
:101B200002C0880F982B9093B402662351F0609105
:101B3000B4027091B5028091B6029091B7020E94F2
:101B400061086091B402669570E04BE050E08CE073
:101B500091E00E949B2B892B19F01092070202C082
:101B60000E946E0D81E0809302024091B702609165
:101B7000B6028091B5020C94870A0895682F90915F
:101B8000B402969581E0890F8B3208F081E00C94C5
:101B9000840D81E00C94BE0D682F9091B40296954F
:101BA0008FEF890F09F48AE20C94840D81E00C9484
:101BB000CC0D61E00C94840DE4EBF2E08081816057
:101BC000808386950C94D90D8091B40280FD0C948D
:101BD000440D0C94DC0D60E00C94840D80910502A2
:101BE00081112EC00E94B420811104C00E945B218B
:101BF0000E947D080E945D086093B4027093B50254
:101C00008093B6029093B7026E7F61F40E947D08C4
:101C10000E945D086093B4027093B5028093B6028F
:101C20009093B7020E944A08109207028091B40272
:101C300080FF03C086950E94EB0D81E08093050232
:101C40000895E4EBF2E080818160808386950C94B6
:101C5000EB0D0F931F93CF93DF938091070288239F
:101C600009F49CC080910602E091B402E695E81B5D
:101C7000E0930102823049F4F0E0EB5FFD4FE49124
:101C8000CE2FD0E00CE319E059C0863049F4F0E0E3
:101C9000EE5FFD4FE491CE2FD0E000E519E04EC09D
:101CA000893051F4E695F0E0E150FE4FE491CE2FFB
:101CB000D0E00AE81AE042C08F3051F4E695F0E037
:101CC000E450FE4FE491CE2FD0E005EC1AE036C090
:101CD000853149F4F0E0E750FE4FE491CE2FD0E09B
:101CE00001E41BE02BC08831D9F0833239F4E7EFEF
:101CF000F1E0C591D49100E619E020C08432A9F04A
:101D00008532C1F48E2F63E00E949D2AE92FF0E016
:101D1000EC50FE4FE491CE2FD0E005E81CE00EC061
:101D2000C8E2D0E003EB1BE009C0C4EFD1E006E459
:101D30001CE004C0C0EDD7E008E318E08091020287
:101D4000882389F0109202020E94A4229E0120950D
:101D50003095820F931F909300028093FF011092A1
:101D60000402109203028091FF01909100020E94F0
:101D7000BC228C179D0790F0E091FF01F0910002CA
:101D8000CE0FDF1FD0930002C093FF018FEF91E0D1
:101D9000F801DF91CF911F910F910994DF91CF91BD
:101DA0001F910F910895882311F0FA0101C0FB01E2
:101DB0000994CF93DF93C82FD62F0E948C088C17DD
:101DC00040F00E948C088D1720F4DF91CF910C9485
:101DD000C90D8C2FDF91CF910C94D90D0F931F93C8
:101DE000CF93FB01C281CC2309F463C08C010E9414
:101DF000FD1F8272F801E35CFC45E431F10508F057
:101E000059C0EA5AFF4F0C94012B0E94E40D06C002
:101E100046ED5DE069EC7DE00E94D30EC0E04AC073
:101E200049EC5DE066ED7DE0F7CF48E45AE06BE316
:101E30007AE0F2CF4BE35AE068E47AE0EDCF46E691
:101E40005AE067E57AE0E8CF47E55AE066E67AE0EF
:101E5000E3CF44E85AE065E77AE0DECF45E75AE0B1
:101E600064E87AE0D9CF4FEB58E068EA78E0D4CF65
:101E700048EA58E06FEB78E0CFCF81E017C065E02B
:101E800082E010C068E086E00DC06EE089E00AC024
:101E900064E18FE007C067E185E104C088E106C026
:101EA00062E289E10E94D90EB9CF83E20E94D90D86
:101EB000B5CFC1E08C2FCF911F910F910895259A36
:101EC00025B12F7D35B130624FB7F894FC01CB01BD
:101ED000880F991F680F791F6E0F7F1FE617F7078E
:101EE00089F0819198E035B9000000C087FF25B9DD
:101EF000880F000000C000C000C025B900C09A953E
:101F000091F7ECCF4FBF8FE594E00197F1F700C058
:101F1000000008950C940F03FF920F931F93CF932B
:101F2000DF93C2E1D2E04AE951E025E931E061E026
:101F300070E0F2E0C731DF0709F44CC0FA0101910B
:101F4000AF01A02FA295AF70B0E09196EC91919760
:101F50000F70CB01002E01C0880F0A94EAF7982F6A
:101F600090959E2391969C93919792969C9192978F
:101F7000892B92968C939297F90111919F01E12FF1
:101F8000E295EF70F0E0F1A01F70CB01012E01C0CF
:101F9000880F0A94EAF7982F90959F2191A392A118
:101FA000892B82A390968C9190E002C0959587959D
:101FB0000A95E2F78170E0A1F0E002C0F595E7959F
:101FC0001A95E2F7E0FD02C090E001C092E0892B93
:101FD0008993AFCFDF91CF911F910F91FF9008951B
:101FE0003F924F925F926F927F928F929F92AF92A9
:101FF000BF92CF92DF92EF92FF920F931F93CF93F6
:10200000DF9382E1682E82E0782E9AE9E92E91E052
:10201000F92E05E911E02DE0822E22E0922EC8E093
:10202000D2E063015301312C32E0432E512CD50113
:10203000ED915D014E2F440F440FF60141936F0166
:10204000D7012D917D01E22FE295EF70F0E080A1A4
:1020500090E02F7002C0959587952A95E2F78170E0
:102060009927F80151918F01E52FE295EF70F0E08B
:1020700020A130E05F7002C0359527955A95E2F7B0
:10208000F901E170FF2720FF02C0E2E0F0E0E82B59
:10209000F92BE42BD301ED933D01EF70F0E0EB570A
:1020A000FE4F9081F4018081890F808382303CF063
:1020B00088818F5F888360E0832D0E948A0FD4011E
:1020C0008C918F3F3CF488818150888361E0832D1F
:1020D0000E948A0FF4018081082E000C990BB20136
:1020E0000E94CB2AD4018D934D0133942196B5E003
:1020F0003B129DCFDF91CF911F910F91FF90EF90F9
:10210000DF90CF90BF90AF909F908F907F906F9017
:102110005F904F903F90089582E290E00E94A82B3C
:10212000813281F483E290E00E94A82B833051F445
:1021300084E290E00E94A82B91E0833009F090E0C7
:10214000892F01C080E081700895CF93C82F81113D
:1021500002C06FEF01C061E282E290E00E94BC2BFE
:10216000C11102C06FEF01C063E083E290E00E9402
:10217000BC2BC11102C06FEF01C063E084E290E0AC
:10218000CF910C94BC2B80E00E94A5100C94AE2043
:10219000089585E290E00E94A82B682F70E080E00F
:1021A00090E0089585E290E00C94BC2B0E94C8104A
:1021B0000E948C1081110CC060E070E0CB010E9485
:1021C000D2100E9476120E943C1381E00C94A5105C
:1021D0000895CF93FB01C281CC23E9F09C012251E9
:1021E0003F452031310520F482510E944C130CC030
:1021F0008031FFE59F0751F481E00E94851E43E096
:1022000062E081E00E947504C0E018C081319F4502
:10221000A9F482E0F2CF8031EFE59E0711F481E06E
:1022200004C081319F4549F482E00E94A61E43E02C
:1022300062E081E00E94750401C0C1E08C2FCF9163
:1022400008952FEFFC0120830895CF93DF93EC01D5
:102250008881813889F028F48038A1F40E94DD0853
:1022600010C0823861F0833869F40E94D7088983EE
:102270000E94DA088A8306C00E948C0802C00E946D
:10228000C2088983DF91CF910895CF93DF93EC014A
:1022900088818138B1F058F4803851F5D9810E9495
:1022A000DA08C82F0E94D7084D2F6C2F1DC0823826
:1022B000B1F08338E9F40E94DD08482F6A818981F2
:1022C00013C089810E94EB0D8981811104C0DF91C7
:1022D000CF910C945C0DDF91CF910C94210E8981EC
:1022E000DF91CF910C94D408DF91CF910C94870AA1
:1022F000DF91CF9108951F93CF93DF93EC01162FB9
:102300000196E8814E2F50E0FA013197E331F10553
:1023100008F09DC0E659FF4F0C94012B198289E00B
:10232000A2C08981823041F0833009F499C08130A4
:10233000B1F40E94B02202C00E94C9109A838B831C
:102340007C836D8386C08981823049F46A817B8178
:102350008C819D810E94072B0E94D2107AC0612F30
:10236000CE010E94211175C04B816A8189810E9432
:1023700048129C838D836DC02C813D813227232799
:1023800032274B816A8189810E94611262C00E945A
:1023900076125FC00E9445115CC00E94251159C091
:1023A0000E94730856C00E94EF1223C00E94F112CF
:1023B000998359C06B8170E089819A81AE014C5F2D
:1023C0005F4F9827892798270E94F41242C06B819B
:1023D00070E089819A81AE014C5F5F4F9827892711
:1023E00098270E94191335C00E943C1332C00E94E6
:1023F000351289832EC06B8170E089819A81AE018C
:102400004C5F5F4F9827892798270E949E1221C012
:102410006B8170E089819A81AE014C5F5F4F982794
:10242000892798270E94C11214C00E94C31011C0AE
:10243000CE010E94BC232FEF81EE94E0215080401A
:102440009040E1F700C000000E94F12202C08FEF2F
:102450008883612FCE01DF91CF911F910C94BC2313
:1024600080E00E94F1068A83F4CF84E0089550E072
:10247000440F551F2AE0629F400D511D11249A01FF
:102480006AE0869F200D311D1124C90186960895AA
:102490000F931F93CF93DF930E9437128C010E94FA
:1024A000A82BC82FD0E0DC2FCC27C80101960E94B2
:1024B000A82B9E01282BC901DF91CF911F910F916D
:1024C00008950F931F93CF93DF93122F032F0E9432
:1024D0003712EC01602F0E94BC2B612FCE010196B8
:1024E000DF91CF911F910F910C94BC2BFF920F9312
:1024F0001F93CF93DF93F12C00E010E0C0E0D0E019
:10250000FE01E00FF11FEE0FFF1FE65BFE4F25916E
:1025100034914C2F60E08F2D0E9461122196C530BE
:10252000D10571F70B5F1F4FF39484E0F812E6CFEB
:10253000DF91CF911F910F91FF900895EF92FF923D
:102540000F931F93CF93DF93EA017A01E60EF71EF4
:102550008C01C8018696CE15DF0561F008321105A1
:1025600020F40E94A82B888301C0188221960F5F57
:102570001F4FEFCFDF91CF911F910F91FF90EF9001
:102580000895EF92FF920F931F93CF93DF93EA0189
:102590007A01E60EF71E8C01C8018696CE15DF057E
:1025A00051F00832110518F468810E94BC2B219665
:1025B0000F5F1F4FF1CFDF91CF911F910F91FF90D0
:1025C000EF900895462F843038F4711105C06530BE
:1025D00018F460E00C94481280E090E0089580E1E7
:1025E000089582EB93E00895EF92FF920F931F936B
:1025F000CF93DF93EA017A01E60EF71E8C01C80142
:10260000825B9F4FCE15DF0569F0023B23E0120786
:1026100020F40E94A82B888301C0188221960F5FA6
:102620001F4FEDCFDF91CF911F910F91FF90EF9052
:102630000895EF92FF920F931F93CF93DF93EA01D8
:102640007A01E60EF71E8C01C801825B9F4FCE1502
:10265000DF0559F0023B23E0120718F468810E945D
:10266000BC2B21960F5F1F4FEFCFDF91CF911F91B2
:102670000F91FF90EF900895CF93DF93CEE4D0E0D9
:1026800060E0CE010E94BC2B2196C11584E0D807E2
:10269000B9F7DF91CF910895DF92EF92FF920F93F8
:1026A0001F93CF93DF9300D000D0CDB7DEB7F82EC5
:1026B0008FE08F15E8F18FEF93E00E94A82B811136
:1026C00037C00EE410E0FF2069F0011584E0180720
:1026D00079F1C8010E94A82B811101C0FA940F5F03
:1026E0001F4FF1CF19821A821B821C82DD24D394E2
:1026F00078018FEFE81AF80AC8010E94A82B898395
:102700001A828823A9F09FEF980F933058F48A8398
:10271000D9820E5F1F4FC7010E94A82B8B8388238D
:1027200039F07801CE0101960E941E048701E0CFA6
:102730000F900F900F900F90DF91CF911F910F91FD
:10274000FF90EF90DF900895AF92BF92CF92DF920B
:10275000EF92FF920F931F93CF93DF937C015B0166
:10276000C42FD22FFC0182818823F9F040931902F3
:102770000E94A422909318028093170280E28C0F8B
:10278000883008F06EC0C77081E001C0880FCA951C
:10279000EAF7DF91CF911F910F91FF90EF90DF90BB
:1027A000CF90BF90AF900C94AB1780911902481353
:1027B00035C080911702909118020E94BC226C01D2
:1027C000B701C5010E94E51CC816D90638F510E20C
:1027D0001D0FCD17B9F080E28C0F883040F4C77020
:1027E00081E001C0880FCA95EAF70E94B21718303D
:1027F00058F581E09D2F977001C0880F9A95EAF7F0
:102800000E94AB17802F0E949817183050F5D77090
:1028100081E001C0880FDA95EAF70AC080E28C0FE8
:102820008830F8F4C77081E001C0880FCA95EAF7D4
:10283000DF91CF911F910F91FF90EF90DF90CF909C
:10284000BF90AF900C94B217802FDF91CF911F9162
:102850000F91FF90EF90DF90CF90BF90AF900C94CE
:102860009817DF91CF911F910F91FF90EF90DF901C
:10287000CF90BF90AF9008950F939C01CB01243F60
:102880004CE5340731F188F4293DFCE53F07D9F0E8
:102890002A3D4CE5340779F1283D3C45A9F506E28F
:1028A00021EE41EE68ED7CE52BC0263FFCE53F07BD
:1028B000E1F0A8F0273F3C4539F507E225EE46EE6A
:1028C00067EF7CE51DC007E225EE45EE69ED7CE58E
:1028D00017C006E221EE40EE64EF7CE511C007E28E
:1028E00025EE44EE65EF7CE50BC006E221EE42EEFC
:1028F00066EF7CE505C008E221E045EE6AED7CE587
:102900000E94A41380E008C0FC018281882319F092
:102910001092190201C081E00F910895CF93DF93C7
:10292000EC01FB018281882309F41FC1C230FCE560
:10293000DF0708F41BC1C6319CE5D90738F09E01BA
:102940002B5F3C452930310508F010C10E94C7209B
:102950009093CD028093CC02C031ECE5DE0709F400
:10296000C3C008F041C0C8308CE5D80709F49AC04C
:10297000F0F4C430ECE5DE0709F487C068F4C23037
:102980008CE5D80709F477C0C330DC4509F0E3C013
:102990008091CC02826076C0C630ECE5DE0709F497
:1029A0006EC008F07BC08091CC0288606BC0CC30D8
:1029B0008CE5D80709F485C068F4CA30ECE5DE0779
:1029C00009F474C008F079C00E942C1A8091CC02DE
:1029D000806858C0CE308CE5D80709F476C008F07E
:1029E0007FC08091CC028BC0CC3FECE5DE0709F4C0
:1029F0004FC018F5C3318CE5D80709F47DC078F4D1
:102A0000C131ECE5DE0709F473C0C231DC4509F0E1
:102A1000A2C00E942C1A8091CC028F7733C0C5319E
:102A20008CE5D80709F472C008F486C0CB3FDC45BA
:102A300009F091C08091CD023EC0C115FDE5DF07D0
:102A400009F45FC058F4CE3F9CE5D90709F444C0AF
:102A500008F43FC08091CD0282602DC0C230FDE5F8
:102A6000DF0709F475C008F45DC0C330DD4509F027
:102A700072C080E06EC08091CC02816003C0809102
:102A8000CC0280618093CC0266C08091CC0211C0E0
:102A90008091CD0282608093CD025DC08091CC0296
:102AA0008062F0CF8091CC028064ECCF8091CC0228
:102AB00088608460E7CF8160EECF8091CC028E7F0A
:102AC000E1CF8091CC028D7FDDCF8091CC02877FDA
:102AD000D9CF8091CD0218C08091CD028D7FDBCF00
:102AE0008091CC028F7ECECF8091CC028F7DCACFD9
:102AF0008091CC028F7BC6CF8091CC02877F8B7F69
:102B0000C1CF8091CD028D7F8E7FC5CF8091CC02C9
:102B100082FB222720F991E0922790FB82F990FB1B
:102B200083F9B0CF8091CD02982F909591708E7FD0
:102B3000892B90FB81F9AFCF0E942C1A8091CC0297
:102B400087FB222720F991E0922790FB87F99ACF03
:102B500081E00E945D218091CC029091CD020E9483
:102B6000D8200E942C1A80E001C081E0DF91CF9133
:102B70000895CF93DF9386319C4541F5EB010E9488
:102B8000FD1F982F8A812091170130911801882309
:102B900079F09A7A81E009F480E080931A02911129
:102BA00002C069E201C065E3C9010E94F8210AC0C0
:102BB00080911A02811102C069E201C065E3C90176
:102BC0000E9403220E944B2080E001C081E0DF913F
:102BD000CF9108959093200280931F020895E09171
:102BE0001F02F0912002309721F00190F081E02D3A
:102BF000099480E00895E0911F02F091200230973F
:102C000099F020912301222359F02091CC0227FF33
:102C100007C0DC012C9111962C93119725E02C9381
:102C20000280F381E02D0994089520911D023091D6
:102C30001E022817390771F090931E0280931D021F
:102C4000E0911F02F0912002309721F00680F78179
:102C5000E02D0994089520911B0230911C02281741
:102C6000390771F090931C0280931B02E0911F02C0
:102C7000F0912002309721F00084F185E02D099435
:102C8000089585B7806885BF85B7806885BF08953A
:102C900081E008950C94481608950C944C160C94F9
:102CA0004C160C944F160C944C160C9453160C9412
:102CB0004C160E9441160E9457160C9455160E94FD
:102CC0009B220E9401070E94D6100E941B230E9493
:102CD000EE0D0E948C0F0C945116FF920F931F93D0
:102CE000CF93DF93CDB7DEB72A970FB6F894DEBF48
:102CF0000FBECDBF0E944D160E944C160E942F079A
:102D00000E944A16882379F180E00E94F106082F7C
:102D1000F0902202F82639F180918E0281FD0E9406
:102D2000F70680E011E09F2D9123C9F08E831F826A
:102D3000012381E009F480E088870E94A422816059
:102D4000782F9A8789874E815F8168858A850E945E
:102D5000EA168091220218271093220214C08F5F76
:102D6000110F853001F78FEF89838A831B820E94C0
:102D7000A4228160782F9D838C8349815A816B8145
:102D80008D810E94EA160E94290E0E94F00F0E9477
:102D9000EF1590912102891789F00E94EF15809319
:102DA00021022A960FB6F894DEBF0FBECDBFDF9189
:102DB000CF911F910F91FF900C94F3042A960FB6B8
:102DC000F894DEBF0FBECDBFDF91CF911F910F9161
:102DD000FF900895CF93DF93CDB7DEB72B970FB653
:102DE000F894DEBF0FBECDBF4F83588769877A87BF
:102DF0008B87DE01119686E0FD0111928A95E9F735
:102E000085E0FE01379601900D928A95E1F74981A0
:102E10005A816B817C818D819E810E94E81C2B965A
:102E20000FB6F894DEBF0FBECDBFDF91CF910895EE
:102E3000FC01808191810E94BE1F0895CF93882359
:102E400009F448C0C82F8CEF8C0F813AD0F46C2F56
:102E500080911701909118010E947821882349F0F0
:102E60006C2F80911701909118010E9403220E94FB
:102E70004B206C2F80911701909118010E94F8212E
:102E80000CC080E28C0F883058F4C77081E001C01C
:102E9000880FCA95EAF70E940020CF910C944B202E
:102EA000EBE5EC0FE33040F4F0E0E353FE4F8081BC
:102EB00090E0CF910C941516C85AC73158F4EC2FF6
:102EC000F0E0EE0FFF1FE156FE4F80819181CF9120
:102ED0000C942B16CF910895882349F1682F8CEF1D
:102EE000860F813A38F480911701909118010E9461
:102EF00003220CC080E2860F883050F4677081E0B6
:102F000001C0880F6A95EAF70E9406200C944B20B6
:102F10008BE5860F833020F480E090E00C9415164A
:102F2000685A673120F480E090E00C942B160895E5
:102F3000CF93C82F0E941E17C93349F42FEF87EE95
:102F400093E0215080409040E1F700C000008C2FBA
:102F5000CF910C946C17882321F00E9400200C94D0
:102F60004B200895882321F00E9406200C944B20CA
:102F70000895CF92DF92EF92FF920F931F93CF931A
:102F8000DF937C01062FC72FFC01158112951F705E
:102F9000D281D1110E941D200E94F61F882399F032
:102FA000DD2389F08C2F807F803421F080E2800F38
:102FB000883048F082E00E9495200E94F61F91E040
:102FC000D82ED92601C0D12CCC2EC2948FE0C82295
:102FD0008C2D90E0FC01E358FF4F0C94012B8C2FBB
:102FE000807FCF70882311F0C295C07FDD2399F0D8
:102FF000CC2309F482C180E2800F883010F00111E7
:1030000004C08C2F0E94002003C08C2F0E9410202F
:103010000E944B2072C1802F0E946C17CC2309F4B0
:1030200091C180E2800F883010F0011104C08C2F14
:103030000E94062003C08C2F0E9416200E944B2065
:1030400081C18C2F807FCF70803211F0C295C07FFC
:10305000002319F00130C9F022C0DD2371F01123E3
:1030600041F0113031F40E9430208C2B0E94382026
:1030700069C10E9430208C2B1DC0112319F0113022
:1030800009F460C10E94412025C0DD2321F01630E3
:1030900008F058C10EC0153008F054C11BC0DD2324
:1030A00061F0112331F0F701858180FF26C18F7017
:1030B00085838C2F0E94AB1745C1112359F009332A
:1030C00009F02CC1FFEF27EE83E0F1502040804053
:1030D000E1F722C18C2F0E94B21734C18C2F869544
:1030E0008695837019F0813061F02CC1DD2321F0C9
:1030F000802F9C2F937002C080E090E00E941516F4
:1031000029C1DD2321F0802F9C2F937002C080E025
:1031100090E00E942B161EC18C2F837009F045C0D1
:10312000D11114C1402F429546954770440F440F6A
:10313000602F6F70862F90E0A0E0B0E0042E04C0F6
:10314000880F991FAA1FBB1F0A94D2F704FF10C053
:103150000FE010E020E030E004C0000F111F221F3C
:10316000331F4A95D2F7009510952095309503C0EE
:1031700000E010E09801C695C695C370BC01CD0172
:10318000602B712B822B932BC23049F058F4C13045
:1031900019F00E94391EDAC00E94271ED7C00E9473
:1031A0004B1ED4C00E94251ED1C0DD2319F08C2FE8
:1031B000817001C08695882309F4C8C0402F4295CC
:1031C00046954770440F440F602F6F70862F90E034
:1031D000A0E0B0E0042E04C0880F991FAA1FBB1FF7
:1031E0000A94D2F704FF10C00FE010E020E030E0B6
:1031F00004C0000F111F221F331F4A95D2F70095FC
:1032000010952095309503C000E010E09801C69518
:10321000C695C370BC01CD01602B712B822B932B03
:10322000C23049F058F4C13019F00E94FE1E8EC021
:103230000E94EC1E8BC00E94101F88C00E945F1E5F
:1032400085C0CF70DD2339F08C2F0E94851E802F22
:103250000E94AB177BC0802F0E94B2178C2F0E9458
:10326000A61E74C0023F01F128F4003F41F0013F67
:10327000A1F03FC0033FF9F0043F39F13AC0DD232C
:1032800041F0153008F05EC08C2F8F710E94CB1E6C
:1032900059C0163008F056C0F7CFDD2339F08C2F17
:1032A0008F710E94851E4EC0DD23C9F38C2F8F7154
:1032B0000E94A61E47C0DD2329F08C2F8F710E942B
:1032C000701E40C00E946B1E3DC0DD2349F0CF71CF
:1032D0008C2F0E94851E63E08C2F0E94802032C0BC
:1032E00081E00E949520123068F182E00E949520D2
:1032F00029C0DD2331F0112391F2802F0E941E1787
:1033000021C0112399F2093349F49FEFE7EEF3E06E
:103310009150E040F040E1F700C00000802F0E9493
:103320006C1710C04C2F4F70602FC7010E94FC0417
:103330000E94961D0FC04C2F4F70602FC7010E9436
:10334000FF0408C088EF8C0D843020F40E94EF1534
:103350000E94F304DD20C9F00E94F21F80FD15C019
:10336000F70112820E94EC1F0E94851EC7010E9475
:10337000E6190E94EC1FDF91CF911F910F91FF90F2
:10338000EF90DF90CF900C94A61EDF91CF911F910C
:103390000F91FF90EF90DF90CF9008950F931F93C0
:1033A000CF93DF93EC01688179818A810E94C91FE4
:1033B0008C010E94221F0E94131EB801CE010E94A0
:1033C000B917DF91CF911F910F910895CF93DF939C
:1033D000EC01988189812B813C81232B31F08F3F37
:1033E00031F481E09F3F19F403C081E001C080E027
:1033F00080FD19C0CE010E94A30481110CC00E945F
:10340000F61F882381F08A81882369F082E0DF91AA
:10341000CF910C949520CE010E94CE19CE01DF9160
:10342000CF910C945E03DF91CF9108950E941D20EF
:103430000E942D200E944B2080E090E00E941516F3
:1034400080E090E00C942B16809117019091180168
:103450000E940E220C94161A0E940D200C94241A1D
:10346000E92FE295EF704E2F50E0FA013297EE30DF
:10347000F105B0F4E357FF4F0C94012B803F91F01E
:1034800018F4883E68F40EC0843F51F40BC0883EA7
:1034900048F0813F29F406C093FB882780F90895FE
:1034A00080E0089581E008950E94BE1F0E94301AB6
:1034B0000895CF93DF9300D000D01F92CDB7DEB731
:1034C0000F900F900F900F900F90DF91CF91089574
:1034D000CF93DF9300D000D000D0CDB7DEB72696D3
:1034E0000FB6F894DEBF0FBECDBFDF91CF91089528
:1034F0001F93CF93DF93C091240216E080912502A1
:10350000C81799F0D0E01C9FF0011D9FF00D112409
:10351000EA5DFD4F40815181628173818481958193
:103520000E94681A2196C770E9CFDF91CF911F9151
:10353000089540915602509157026091580270913F
:10354000590280915A0290915B020C94681A0F9371
:103550001F93CF93DF9380915B0282958F7009F068
:103560005DC080915802882309F458C080912402DC
:10357000109125026091560270915702C091590234
:10358000D0915A0291E06F3F09F090E0292F06E0B8
:10359000811709F443C0209721F07F3F21F030E0EC
:1035A00003C031E001C0322F90E030FD34C0089FED
:1035B000F001099FF00D1124DF01AA5DBD4F1196A6
:1035C0003C911197371327C03C91361324C01296B3
:1035D0003C91129731111FC013964D915C91149735
:1035E0004C1B5D0B483C5105B0F480915B028F7021
:1035F000806180935B02E55DFD4F80818F7080610B
:10360000808386E592E00E94E619DF91CF911F91B9
:103610000F910C94781A01968770BACFDF91CF91F1
:103620001F910F9108959F92AF92BF92CF92DF9218
:10363000EF92FF920F931F93CF93DF93CDB7DEB737
:1036400061970FB6F894DEBF0FBECDBF8C0185E049
:10365000F801DE011D9601900D928A95E1F7F801BF
:1036600040815181E28090915602609157022091F1
:10367000590230915A022115310531F06F3F31F472
:1036800081E09F3F19F403C081E001C080E0F82F82
:10369000F1709F2E80FD46C1F801A380B48086E5BD
:1036A000C82E82E0D82EF0905802F501E21BF30BF1
:1036B000FF2009F4DFC080915B02E83CF10508F0CF
:1036C0009BC0282F207F09F052C0561313C0491306
:1036D00011C0FE2CE1100EC08F70806180935B02E0
:1036E0000E94991AC6010E94E61980915B02F801B6
:1036F000858358C1AB2831F05F3F31F481E04F3F03
:1037000019F403C081E001C080E080FD03C081E0C6
:103710008E2502C080E090E0F82FF170FF2E80FF30
:103720001CC0809124022091250236E0821709F402
:1037300017C190E0389FF001399FF00D1124EA5D28
:10374000FD4F6181561306C06081461303C062813C
:10375000E61203C001968770E9CFFE2CEE2009F433
:1037600021C180915B02816080935B025AC0561335
:1037700006C0491304C0E11002C0F8019FC04D8784
:103780005E878D859E850E94541A882379F1EE20EC
:1037900069F120915B02822F82958F7090E00297F1
:1037A00074F0809156029091570298878F83198602
:1037B000BB86AA862C87CE0107960E94E61986E072
:1037C000F801A6E5B2E001900D928A95E1F70E941A
:1037D000A71A0E94991A0DC0561729F14D875E87C6
:1037E0008D859E850E94541A81112CC0C8010E94AB
:1037F000E619FF24F394D6C0282F207F69F77A2D8D
:10380000B98AA88A6E2D89890E94591A86E592E0A4
:103810000E94E61986E0F60111928A95E9F70E9466
:10382000991AF12CBFC04913D9CFE110D7CFF801B5
:103830008583C8010E94E61986E0F60111928A95F7
:10384000E9F7B0C0EE2091F220915B02822F8295C1
:103850008F7090E002970CF4B2CF80915602909155
:1038600057029A8389831B82BD82AC822E83CE014C
:103870000196A3CFE83CF10508F047C0FE2CEE20EE
:1038800009F4B4CF561330C049132EC020915B0207
:1038900020FD21C0822F82958F70482F50E0411566
:1038A0005105C9F0F80125834F30510541F08F5F74
:1038B000982F9295907F822F8F70892B8583C801D6
:1038C0000E94E61986E0F801A6E5B2E001900D92AB
:1038D0008A95E1F742C086E0F801A6E5B2E00190E2
:1038E0000D928A95E1F75EC04D875E878D859E8536
:1038F0000E94541A811163CF80915B028160809392
:103900005B02C8010E94E6194DC07A2DB98AA88AC7
:103910006E2D89890E94591A86E0F60111928A95C6
:10392000E9F71BC0EE2009F461CF4D875E878D85D6
:103930009E850E94541AF82E882309F457CF86E0FA
:10394000F801A6E5B2E001900D928A95E1F786E5CF
:1039500092E00E9418170E94A71A0E94991A22C08A
:103960004D875E878D859E850E94BE1F292F2295DB
:103970002F70223028F49F7039F0811105C00BC0E0
:10398000243028F49F7049F4805E883020F0C8010C
:103990000E94E6199F2CF92C05C0F8019581907FB3
:1039A00099F7F9CF8F2D61960FB6F894DEBF0FBE51
:1039B000CDBFDF91CF911F910F91FF90EF90DF90DE
:1039C000CF90BF90AF909F90089588EC90E00895BD
:1039D0001F93CF93DF93CDB7DEB72C970FB6F89434
:1039E000DEBF0FBECDBF4F83588769877A878B872D
:1039F0009C87CE0107960E94131B8823D1F09F81DC
:103A000088852A853B85232B31F08F3F31F481E077
:103A10009F3F19F403C081E001C080E080FD47C0F2
:103A20004F81588569857A858B859C850E94681AA7
:103A30003EC086E0FE013796DE01119601900D92A0
:103A40008A95E1F7FF81E8856A857B8561157105B7
:103A500031F0EF3F31F481E0FF3F19F403C081E022
:103A600001C080E080FD23C02091250230E0C90123
:103A70000196877099274091240250E0841795079A
:103A8000F1F1F983EA837D836C8396E0929FD00104
:103A9000939FB00D1124AA5DBD4FFE013196019098
:103AA0000D929A95E1F7809325020E94781A16E00C
:103AB0008091240290912502891771F1189FC0010D
:103AC00011248A5D9D4F0E94131B882329F1E091E8
:103AD00024021E9FF0011124EA5DFD4F40815181B7
:103AE00062817381848195810E94681A8091240289
:103AF00090E001968770992780932402D9CF0E9485
:103B00002C1A1092250210922402E6E5F2E086E0DB
:103B1000DF011D928A95E9F72C960FB6F894DEBF67
:103B20000FBECDBFDF91CF911F910895EF92FF920D
:103B30000F931F93CF93DF938C01892B09F46CC0F3
:103B4000F12CEE24E394E8012196F8018491843766
:103B500040F4843008F051C0813081F0823019F196
:103B60005BC0853709F444C0A8F19CE7980F9037F3
:103B700008F052C08F770E946C1741C00E5F1F4F34
:103B8000FE01849190E2980F983050F48770FE2DDA
:103B900001C0FF0F8A95EAF78F2F0E94202014C0E2
:103BA0000E941E172DC00E5F1F4FFE01849190E2F0
:103BB000980F983060F48770FE2D01C0FF0F8A9532
:103BC000EAF78F2F0E9426200E944B2019C00E94E6
:103BD0006C1716C00E5F1F4FFE01C491CC2381F0FD
:103BE0008FE99FE00197F1F700C00000C150F6CFC8
:103BF0000E5F1F4FFE01F49003C00E941E178E013E
:103C00008F2D882309F49FCFEFE9FFE03197F1F77B
:103C100000C000008150F5CFDF91CF911F910F912F
:103C2000FF90EF900895089508950C94141E0C943D
:103C3000151E0E94171E60936502709366028093A2
:103C40006702909368020C94161A0C94191E0F9335
:103C50001F930091650210916602209167023091D6
:103C60006802602B712B822B932B1F910F910C9468
:103C7000191E0F931F930091650210916602209107
:103C800067023091680260237123822393231F917E
:103C90000F910C94191E0F931F93009165021091C0
:103CA000660220916702309168026027712782279F
:103CB00093271F910F910C94191E0C94141E0E94AF
:103CC0005D1E609361027093620280936302909321
:103CD00064020C94161A60E070E0CB010C945F1E35
:103CE0000F931F9341E050E060E070E08A019B0178
:103CF00004C0000F111F221F331F8A95D2F7C9017C
:103D0000B8011F910F910C945F1E0F931F9341E018
:103D100050E060E070E004C0440F551F661F771F3D
:103D20008A95D2F78091610290916202A09163021C
:103D3000B09164028A019B01082B192B2A2B3B2B83
:103D4000C901B8011F910F910C945F1E0F931F932F
:103D500041E050E060E070E004C0440F551F661F72
:103D6000771F8A95D2F74095509560957095809110
:103D7000610290916202A0916302B09164028A0193
:103D80009B01082319232A233B23C901B8011F9152
:103D90000F910C945F1E0F931F9341E050E060E081
:103DA00070E004C0440F551F661F771F8A95D2F735
:103DB0008091610290916202A0916302B0916402CD
:103DC0008A019B01082719272A273B27C901B80127
:103DD0001F910F910C945F1E0F931F93009161022E
:103DE000109162022091630230916402602B712B6A
:103DF000822B932B1F910F910C945F1E0F931F9397
:103E0000009161021091620220916302309164027C
:103E100060237123822393231F910F910C945F1EC3
:103E20000F931F930091610210916202209163022F
:103E30003091640260277127822793271F910F9189
:103E40000C945F1E089524E0929F900D1124890F19
:103E5000E82FE695E695E695877051E001C0550F8D
:103E60008A95EAF785E0E89FF0011124E45AFD4FB6
:103E700020E030E070E04081CB01022E02C0969538
:103E800087950A94E2F7817081958427852384279A
:103E900081932F5F3F4F2530310569F7089524E066
:103EA000929F900D1124890F682F669566956695EF
:103EB000982F977085E0689FB001112440E050E092
:103EC00080E0FB01E40FF51FE45AFD4F208130E054
:103ED000092E02C0369527950A94E2F72170332700
:103EE000042E01C0220F0A94EAF7822B4F5F5F4F26
:103EF0004530510531F70895BF92CF92DF92EF928E
:103F0000FF920F931F93CF93DF938C01C0906102B8
:103F1000D0906202E0906302F090640280916502AA
:103F200090916602A0916702B0916802C82AD92ACE
:103F3000EA2AFB2ACFE1D0E0D701C6010C2E04C04B
:103F4000B695A795979587950A94D2F780FD04C0FA
:103F5000219790F7B12C07C0BC2EB8018C2F0E947E
:103F600008050197A9F38B2DDF91CF911F910F9138
:103F7000FF90EF90DF90CF90BF900895CF93DF93A5
:103F8000EC010E947C1FBE010E940805DF91CF91C9
:103F900008951F93CF93DF93EB0190912302992310
:103FA00021F0CB010E94BE1F13C0882349F0CB0132
:103FB0000E947C1F182F682FCE010E94231F04C06F
:103FC000CB010E944F1F182FBE01812F0E940805B0
:103FD000DF91CF911F910895809169028595859514
:103FE000859508958091690287700895909169027E
:103FF000977081E009F480E0089580918D02089522
:1040000090918D02892B80938D02089580959091D7
:104010008D02892380938D02089510928D02089558
:1040200090918C02892B80938C02089580959091B9
:104030008C02892380938C02089510928C0208953B
:1040400090918B02892B80938B020895809590919B
:104050008B02892380938B02089510928B0208951E
:1040600080916A02089508950C9433200C943420B2
:1040700090916A02981721F080936A020C9436207E
:10408000089580916A02882329F010926A0280E0E4
:104090000C9436200895E0911701F0911801809159
:1040A0008D028083E0911701F09118019081809139
:1040B0008C02892B8083E0911701F0911801908187
:1040C00080918B02892B808380916A02882381F002
:1040D000E0911701F09118019081892B80838091E4
:1040E0001701909118010E94622181110E944120C4
:1040F00080911701909118010C94FB150C943320BA
:1041000098E0899F90011124262B209369020E9438
:10411000851E809169028595859585950C947E20F4
:104120001092690280E00C947E20209169028095B3
:10413000822380936902982F977079F430E0482F9A
:10414000082E000C550B2417350739F085958595F9
:1041500085950E94A61E0C94902008956FEF7FEF26
:1041600080E090E00C94DA2B80E090E00E94B62B87
:1041700021E08C3E9E4F09F020E0822F089582E0DE
:1041800090E00C94A82B83E090E00C94A82BCF93A4
:1041900084E090E00E94A82BC82F81E290E00E946A
:1041A000A82B2C2F30E0A901582BCA01CF910895DC
:1041B000CF93C92F682F84E090E00E94BC2B6C2F16
:1041C00081E290E0CF910C94BC2BAB01BC018FE05D
:1041D00090E00C94CE2BAB01BC0183E190E00C94F9
:1041E000CE2B60E070E0CB010C94EB2060E070E03F
:1041F000CB010E94E5200C94F1206CEE7EEF80E074
:1042000090E00E94DA2B60E082E090E00E94BC2BFC
:1042100060E083E090E00E94BC2B10926502109257
:104220006602109267021092680260E084E090E0FB
:104230000E94BC2B60E081E290E00E94BC2B60E019
:1042400085E090E00E94BC2B60E086E090E00E9458
:10425000BC2B6FEF87E090E00E94BC2B40E050E069
:10426000BA0188E090E00E94CE2B60E08DE090E003
:104270000E94BC2B40E050E0BA0188E190E00E942F
:10428000CE2B60E087E190E00E94BC2B40E050E044
:10429000BA018CE190E00E94CE2B60E080E290E0D9
:1042A0000E94BC2B40E050E0BA0188E190E00E94FF
:1042B000CE2B0C94F6200C94FD20682F8EE090E01D
:1042C0000C94BC2BFC01329680912301882331F0A1
:1042D0008091CC0287FF02C09EE101C096E080E0A1
:1042E000915028F021912223D9F38F5FF9CF0895BF
:1042F000662351F1209123012223E9F02091CC0281
:1043000027FF19C0462F4695469546954E31E0F455
:10431000677021E030E002C0220F331F6A95E2F798
:10432000FC01E40FF11D828190E02823392381E014
:10433000232B69F409C0FC0132960896219162177B
:1043400029F0E817F907D1F780E0089581E0089592
:104350009C01FC0132969FEF80E04191461789F065
:104360009F3F19F4411101C0982F8F5F8630A9F744
:104370009F3F39F0F901E90FF11D97FDFA9562832E
:10438000089508959C012A5F3F4FFC014281461326
:1043900001C01282019682179307B9F70895262F5C
:1043A0002695269526952E3168F4FC01E20FF11D25
:1043B000677021E030E001C0220F6A95EAF7828140
:1043C000282B22830895262F2695269526952E3173
:1043D00070F4FC01E20FF11D677021E030E001C0D4
:1043E000220F6A95EAF72095828128232283089577
:1043F00020912301222329F02091CC0227FD0C9447
:10440000CF210C94A82120912301222329F020916F
:10441000CC0227FD0C94E3210C94C22120912301AE
:10442000FC013296222331F08091CC0287FF02C03A
:104430008EE101C086E0DF011D928A95E9F70895BB
:1044400008950C9420220C9420220E9423220E9482
:104450002F070E94212280E00E94F10691E0811145
:1044600001C090E0892F08950C9420220C943422EE
:104470000E9436228091D202843049F110928F023C
:1044800020E488E190E00FB6F894A895809360004E
:104490000FBE2093600080E00E94F3040E94362249
:1044A00083B7817F846083BF83B7816083BF789443
:1044B000889583B78E7F83BF0FB6F894A8958091B7
:1044C0006000886180936000109260000FBE0895C4
:1044D0000C9420220E942C1A0E94EF150E94F304D3
:1044E0000C9468221F920F920FB60F9211248F9393
:1044F0009F93AF93BF9380918F02811113C08091DE
:10450000C8029091C902A091CA02B091CB02419613
:10451000A11DB11D8093C8029093C902A093CA0245
:10452000B093CB02BF91AF919F918F910F900FBE2F
:104530000F901F90189582E084BD93E095BD9AEF8F
:1045400097BD80936E0008952FB7F8948091C802AC
:104550009091C902A091CA02B091CB022FBF0895D9
:104560002FB7F8946091C8027091C9028091CA0275
:104570009091CB022FBF08959C014FB7F894809182
:10458000C8029091C902A091CA02B091CB024FBF5C
:10459000821B930B089578941F920F920FB60F927F
:1045A00011248F939F93AF93BF938091C8029091F2
:1045B000C902A091CA02B091CB020196A11DB11D02
:1045C0008093C8029093C902A093CA02B093CB0211
:1045D000BF91AF919F918F910F900FBE0F901F9041
:1045E000189587E797E790930108809300089AE071
:1045F00088E10FB6F894A895809360000FBE909361
:104600006000FFCF0C94C3100E942F072FEF86E7A6
:1046100091E0215080409040E1F700C000000E94EE
:104620002F0780E00E94F10680FF04C00E94022351
:104630000C94F12208950E94B420811102C00E94BE
:104640005B210E94BF2080938E020E94C72090931E
:10465000CD028093CC020E94C320682F70E080E0DE
:1046600090E00E94251E609161027091620280912B
:104670006302909164020C945D1E8091B0020895D3
:104680000895CF93DF9300D01F92CDB7DEB79091FE
:10469000D202943011F589837B836A839093E90079
:1046A0008FEF9091E800815095FD06C095ED9A95A9
:1046B000F1F700008111F5CF8091E80085FF0DC072
:1046C00040E050E063E070E0CE0101960E94B42526
:1046D0008091E8008E778093E8000F900F900F9004
:1046E000DF91CF910895BC0184E00C944123BC017B
:1046F00083E00C944123CF93DF9320912301222365
:1047000039F02091CC0227FF03C060E224E002C010
:1047100068E021E02093E9002FEF3091E80021507C
:1047200035FD06C035ED3A95F1F700002111F5CFC2
:104730002091E80025FF1DC0EC018091230181112B
:1047400005C040E050E068E070E003C070E040E089
:1047500050E0CE010E94B4258091E8008E778093CE
:10476000E80080E2FE01A0E9B2E001900D928A9596
:10477000E1F7DF91CF910895CF93603219F5209141
:10478000D2022430F9F4C091E900CF703091EC00EE
:10479000232F217030FD20E8C22B22E02093E90076
:1047A0002091E80020FF0BC040E050E060E270E0A4
:1047B0000E94B4258091E8008E778093E800CF7046
:1047C000C093E900CF9108958091D102811109C071
:1047D0000E9490270E94ED278091E20084608093E0
:1047E000E20008951092D1020895089508950C945E
:1047F0006A2242E061EC81E00E94092742E261EC1A
:1048000084E00E94092742E261EC82E00E940927CD
:1048100042E260EC83E00C9409278091D40283305B
:1048200009F462C030F4813071F0823009F49BC029
:1048300008958A3009F487C08B3009F46DC089303F
:1048400009F0A9C020C08091D302813A09F0A3C029
:104850008091E800877F8093E8008091D702909153
:10486000D802892B21F460E280E992E003C060E085
:1048700080E090E070E00E944A268091E8008B770B
:104880008093E80008958091D302813209F083C0BB
:104890008091D7029091D802009719F0029709F001
:1048A0007AC08091E800877F8093E8008091E800DB
:1048B00082FD05C08091D2028111F8CF6CC0209199
:1048C000F3008091F20090E0922B029729F48091FE
:1048D000F1008B7F813021F48091F1008093B00250
:1048E0008091E8008B7753C08091D302813A09F020
:1048F00052C08091D7029091D802892B09F04BC009
:104900008091E800877F8093E8008091E80080FF35
:10491000FCCF8091230136C08091D3028132D9F53A
:104920008091D7029091D802892BA9F58091E80057
:10493000877F8093E8000E943E278091D502809374
:1049400023010C942C1A8091D302813221F580919D
:10495000E800877F8093E8000E943E278091D6027E
:104960008093B10208958091D302813AA1F480919D
:10497000E800877F8093E8008091E80080FFFCCF0B
:104980008091B1028093F1008091E8008E7780934E
:10499000E8000C943E2708951F93CF93DF93CDB783
:1049A000DEB7A0970FB6F894DEBF0FBECDBF84B7B9
:1049B000877F84BF0FB6F894A895809160008861C6
:1049C00080936000109260000FBE90E080E80FB608
:1049D000F89480936100909361000FBE0E94591675
:1049E0000E9490270E94ED278091E20084608093CE
:1049F000E20078940E94822A0E945F1689E191E089
:104A00000E94EA1513E08091D202853069F40E9479
:104A100038228091D0028823B1F30E942522882376
:104A200091F30E949E25EFCF0E946D168091D202D5
:104A3000843009F51093E9008091E80082FF1BC0E3
:104A40008091E80085FF0AC040E050E060E270E03D
:104A5000CE0101960E94FF2591E001C090E0809177
:104A6000E8008B778093E800992329F060E2CE017B
:104A700001960E947B110E944D160E944C16C3CFD6
:104A80000C944225292F332723303105C9F060F4D7
:104A90002130310581F02230310509F047C08BE526
:104AA00090E020E534E046C02132310511F1223298
:104AB000310561F13BC082E190E02BEA34E03AC07D
:104AC00099278130910561F040F08230910559F0CD
:104AD000039761F5EEE0F4E008C0ECE4F4E005C013
:104AE000ECE2F4E002C0E4E1F4E0849190E09F01A4
:104AF00021C063307105D0F4660F771FFB01E752C8
:104B0000FE4F2081318189E090E014C0633071054F
:104B100068F4FB01EE0FFF1FED52FE4F2081318143
:104B2000FB01E053FE4F808190E004C080E090E004
:104B300020E030E0FA0131832083089580E189BDCF
:104B400082E189BD09B400FEFDCF8091D8008F7D40
:104B50008093D8008091E00082608093E000809193
:104B6000E00081FDFCCF0895CF92DF92EF92FF929B
:104B70000F931F93CF93DF93EC018B017A010E9477
:104B80005D27811133C0E114F10439F0F701808110
:104B90009181081B190BC80FD91FC12CD12C0115ED
:104BA000110519F18091E80085FD16C08091E8009B
:104BB0008E778093E800E114F10449F0F7018081D9
:104BC0009181C80ED91ED182C08285E00FC00E949B
:104BD0005D27882321F30AC089918093F100015059
:104BE0001109FFEFCF1ADF0ADACF80E0DF91CF9112
:104BF0001F910F91FF90EF90DF90CF900895CF928B
:104C0000DF92EF92FF920F931F93CF93DF93EC010C
:104C10008B017A010E945D27811133C0E114F104F8
:104C200039F0F70180819181081B190BC80FD91F3A
:104C3000C12CD12C0115110519F18091E80085FDD9
:104C400016C08091E8008B778093E800E114F104AE
:104C500049F0F70180819181C80ED91ED182C082AE
:104C600085E00FC00E945D27882321F30AC0809150
:104C7000F100899301501109FFEFCF1ADF0ADACF53
:104C800080E0DF91CF911F910F91FF90EF90DF9027
:104C9000CF9008952091D9023091DA022617370774
:104CA00048F06115710539F42091E8002E772093C2
:104CB000E80001C0B901FC0120E06115710579F13E
:104CC0008091D2028823F1F18530F1F18091E800E2
:104CD00083FD3CC08091E80082FD2EC08091E800F9
:104CE00080FFEBCF2091F3008091F20090E0922BB7
:104CF0006115710551F08830910538F421912093A8
:104D0000F100615071090196F3CF21E0089709F095
:104D100020E08091E8008E778093E800CECF2111CB
:104D2000CFCF0AC08091D202882361F0853061F034
:104D30008091E80083FD0AC08091E80082FFF2CFF5
:104D400080E0089582E0089583E0089581E0089569
:104D50002091D9023091DA022617370748F0611501
:104D6000710539F42091E8002E772093E80001C006
:104D7000B901FC0120E06115710591F18091D20229
:104D8000882309F440C0853009F43FC08091E800D1
:104D900083FD3DC08091E80082FD2FC08091E80036
:104DA00080FFE9CF2091F3008091F20090E0922BF8
:104DB0006115710559F08830910540F424912093D4
:104DC000F1003196615071090196F2CF21E0089708
:104DD00009F020E08091E8008E778093E800CBCF47
:104DE0002111CCCF0AC08091D202882361F0853096
:104DF00061F08091E80083FD0AC08091E80082FFA5
:104E0000F2CF80E0089582E0089583E0089581E084
:104E10000895982F973068F59093E900981739F026
:104E20007091EC002091ED005091F00003C0242F10
:104E3000762F50E021FD02C09F5FECCF3091EB0058
:104E40003E7F3093EB003091ED003D7F3093ED00DD
:104E50003091EB0031603093EB007093EC002093C5
:104E6000ED005093F0002091EE0027FDE5CF80E0AB
:104E700008958F708093E90081E008958091D302B6
:104E800087FF11C08091E80082FD05C08091D202A9
:104E90008111F8CF11C08091E8008B770BC0809111
:104EA000D202882349F08091E80080FFF8CF8091FA
:104EB000E8008E778093E80008952091E400309117
:104EC000E50095E64091EC00842F817040FF23C0FF
:104ED0008091E80080FD1DC08091D202882399F066
:104EE000853099F08091EB0085FD11C04091E40080
:104EF0005091E5002417350729F3915011F09A01DC
:104F0000E1CF84E0089582E0089583E0089581E090
:104F1000089580E008954091E80042FFDDCF0895B4
:104F20000E94FE270E940628E0EEF0E0808181606A
:104F30008083E8EDF0E080818F77808319BCA7ED56
:104F4000B0E08C918E7F8C9380818F7E80831092D5
:104F5000D10208950F931F93CF93DF930E94FE27F2
:104F60000E940628C8EDD0E088818F7788838881E9
:104F70008068888388818F7D888319BC1092D202D3
:104F80001092CE021092D0021092CF0200EE10E0EA
:104F9000F80180818B7F808388818160888342E0F3
:104FA00060E080E00E940927E1EEF0E080818E7FE2
:104FB0008083E2EEF0E08081816080838081886080
:104FC0008083F80180818E7F8083888180618883DF
:104FD000DF91CF911F910F910895E8EDF0E080816E
:104FE0008F7E8083E7EDF0E080818160808384E0C4
:104FF00082BF81E08093D1020C94AA27E8EDF0E013
:1050000080818E7F80831092E20008951092DA00F2
:105010001092E10008951F920F920FB60F92112483
:105020002F933F934F935F936F937F938F939F93B0
:10503000AF93BF93EF93FF938091E10082FF0BC08A
:105040008091E20082FF07C08091E1008B7F809316
:10505000E1000E94812A8091DA0080FF1FC08091C8
:10506000D80080FF1BC08091DA008E7F8093DA0029
:105070008091D90080FF0DC080E189BD82E189BDAA
:1050800009B400FEFDCF81E08093D2020E94E423A8
:1050900005C019BC1092D2020E94F2238091E10057
:1050A00080FF19C08091E20080FF15C08091E2006E
:1050B0008E7F8093E2008091E20080618093E20025
:1050C0008091D80080628093D80019BC85E08093DD
:1050D000D2020E94F6238091E10084FF30C08091CB
:1050E000E20084FF2CC080E189BD82E189BD09B462
:1050F00000FEFDCF8091D8008F7D8093D8008091F5
:10510000E1008F7E8093E1008091E2008F7E8093AA
:10511000E2008091E20081608093E2008091CE0203
:10512000882311F084E007C08091E30087FD02C06E
:1051300081E001C083E08093D2020E94F723809136
:10514000E10083FF29C08091E20083FF25C08091A8
:10515000E100877F8093E10082E08093D202109289
:10516000CE028091E1008E7F8093E1008091E20089
:105170008E7F8093E2008091E20080618093E20064
:1051800042E060E080E00E9409278091F0008860A2
:105190008093F0000E94F523FF91EF91BF91AF91B2
:1051A0009F918F917F916F915F914F913F912F913F
:1051B0000F900FBE0F901F9018951F920F920FB671
:1051C0000F9211242F933F934F935F936F937F938D
:1051D0008F939F93AF93BF93CF93DF93EF93FF93FF
:1051E000C091E900CF708091EC00D82FD17080FD84
:1051F000D0E81092E9008091F000877F8093F00062
:1052000078940E9421291092E9008091F000886032
:105210008093F000CD2BCF70C093E900FF91EF9108
:10522000DF91CF91BF91AF919F918F917F916F91BE
:105230005F914F913F912F910F900FBE0F901F9054
:1052400018951F93CF93DF93CDB7DEB7AA970FB60C
:10525000F894DEBF0FBECDBFE3EDF2E08091F10028
:10526000819322E0EB3DF207C9F70E940D24809163
:10527000E80083FF2EC18091D3029091D402492F80
:1052800050E04A30510508F024C1FA01E556FF4FBD
:105290000C94012B803821F0823809F01AC108C023
:1052A0008091CF029091D002992389F082600FC043
:1052B0008091D7028F70873008F00BC18093E9008E
:1052C0008091EB0085FB882780F91092E90090918E
:1052D000E800977F9093E8008093F1001092F1002E
:1052E000D1C0282F2D7F09F0F4C0882319F0823017
:1052F00061F0EFC08091D502813009F0EAC09330AF
:1053000009F080E08093D0022EC08091D5028111F7
:105310002AC08091D7028F702FEF280F263008F017
:10532000D8C08093E9002091EB0020FF1CC093308F
:1053300021F48091EB00806214C09091EB009061A9
:105340009093EB0021E030E0A90102C0440F551F0B
:105350008A95E2F74093EA001092EA008091EB0010
:1053600088608093EB001092E9008091E800877FCD
:105370008093E8000E943E27ACC08111AAC0109122
:10538000D5021F778091E3008078812B8093E30022
:105390008091E800877F8093E8000E943E278091FB
:1053A000E80080FFFCCF8091E30080688093E300F9
:1053B000111102C082E001C083E08093D20289C053
:1053C0008058823008F085C08091D5029091D60235
:1053D0008C3D53E0950779F583E08A838AE28983DF
:1053E0004FB7F894DE01139620E03EE051E2E32F40
:1053F000F0E050935700E49120FF03C0E295EF7076
:105400003F5FEF708E2F90E0EA3010F0C79601C03A
:10541000C0968D939D932F5F243149F74FBF8091A4
:10542000E800877F8093E8006AE270E0CE01019691
:105430000E944A2616C06091D7027091D802AE0130
:105440004F5F5F4F0E944025BC01892B09F441C08A
:105450009091E800977F9093E80089819A810E945B
:10546000A8268091E8008B778093E80032C08038CE
:1054700081F58091E800877F8093E8008091CE02DB
:105480008093F1008091E8008E7772CF811121C066
:105490008091D5029091D60299270297D4F48091F9
:1054A000E800877F8093E8008091D5028093CE0248
:1054B0000E943E278091CE02811106C08091E300B8
:1054C00087FD02C081E001C084E08093D2020E9487
:1054D000F9238091E80083FF0AC08091E800877F6C
:1054E0008093E8008091EB0080628093EB00AA96A5
:1054F0000FB6F894DEBF0FBECDBFDF91CF911F91E5
:1055000008950895CF938091D2028823A1F0C0918D
:10551000E900CF709091EC00892F817090FD80E8B8
:10552000C82B1092E9008091E80083FD0E94212998
:10553000CF70C093E900CF910895991B79E004C022
:10554000991F961708F0961B881F7A95C9F78095C2
:10555000089587FB082E062687FD819567FD6195D6
:105560000E949D2A0EF4919507FC81950895AA1B2F
:10557000BB1B51E107C0AA1FBB1FA617B70710F03E
:10558000A61BB70B881F991F5A95A9F78095909570
:10559000BC01CD01089597FB072E16F4009407D0A7
:1055A00077FD09D00E94B72A07FC05D03EF49095FC
:1055B00081959F4F0895709561957F4F0895A1E261
:1055C0001A2EAA1BBB1BFD010DC0AA1FBB1FEE1F7D
:1055D000FF1FA217B307E407F50720F0A21BB30BC8
:1055E000E40BF50B661F771F881F991F1A9469F744
:1055F00060957095809590959B01AC01BD01CF01A0
:105600000895EE0FFF1F0590F491E02D099469278E
:105610009627692778278727782708950E94162BD1
:10562000332312F48A1B9B0B0C94272BA29FB001EF
:10563000B39FC001A39F700D811D1124911DB29FC6
:10564000700D811D1124911D08950E94162BB7FF26
:105650000895821B930B08950E94162BA59F900D11
:10566000B49F900DA49F800D911D11240895B7FF44
:105670000C942C2B0E942C2B821B930B08958F9241
:105680009F92AF92BF92CF92DF92EF92FF92CF9311
:10569000DF93EC01688179818A819B8161157105B5
:1056A0008105910521F464E279ED8BE597E02DE128
:1056B00033EF41E050E00E94F02B49015A019B0179
:1056C000AC01A7EAB1E40E942C2B6B017C01ACEE8B
:1056D000B4EFA50194010E943A2BDC01CB018C0DA3
:1056E0009D1DAE1DBF1DB7FF03C00197A109B048A6
:1056F00088839983AA83BB839F77DF91CF91FF90A3
:10570000EF90DF90CF90BF90AF909F908F900895D3
:105710000E943F2B089580E091E00E943F2B089566
:10572000A0E0B0E08093000190930101A0930201FA
:10573000B09303010895FC014150504030F00190B6
:105740000616D1F73197CF01089588279927089534
:10575000F999FECF92BD81BDF89A992780B5089539
:10576000A6E1B0E044E050E00C94E22BA8E1B0E008
:1057700042E050E00C94E22B262FF999FECF92BD27
:1057800081BDF89A019700B4021639F01FBA20BD06
:105790000FB6F894FA9AF99A0FBE08950396272F38
:1057A0000E94BD2B0E94BC2B252F0E94BD2B242FB5
:1057B0000C94BD2B0196272F0E94BD2B0C94BC2B63
:1057C000DC01CB01FC01F999FECF06C0F2BDE1BDC1
:1057D000F89A319600B40D9241505040B8F70895B0
:1057E000052E97FB1EF400940E94072C57FD07D04E
:1057F0000E94DF2A07FC03D04EF40C94072C50952E
:105800004095309521953F4F4F4F5F4F08959095AC
:105810008095709561957F4F8F4F9F4F0895F894B5
:02582000FFCFB8
:1058220001000000010102000500050501191A1B13
:105832001C1D1E1F2021226B023D237B2340237748
:1058420023732301E200E900EA00B500B600B700C5
:10585200CD008301CC008A0192019401210223022E
:1058620024022502260227022A02B300B4006F0096
:105872007000818283F43632973400010202020200
:105882000606060909090909090F0F0F0F0F0F155F
:10589200151518191919191919191919192324255E
:1058A200252525252500FF0100010000FFFF00003E
:1058B200010001FF0093F6F79466F5929190C6E21B
:1058C20000E900EA00B500B600B700CD008301CCC4
:1058D200008A019201940121022302240225022658
:1058E2000227022A02B300B4006F00700081828393
:1058F20040226D4C05BD04DF0462047B049B04005E
:00000001FF
