:100000000C943F070C9486070C9486070C94860783
:100010000C9486070C9486070C9486070C9486072C
:100020000C9486070C9486070C944A240C9486231F
:100030000C94A61A0C9486070C9486070C948607D9
:100040000C9486070C9486070C9486070C948607FC
:100050000C9486070C94741A0C9486070C948607EB
:100060000C9486070C9486070C9486070C948607DC
:100070000C9486070C9486070C9486070C948607CC
:100080000C9486070C9486070C9486070C948607BC
:100090000C9486070C9486070C9486070C948607AC
:1000A0000C9486070C9486070C9486074A0BA70BC2
:1000B000AC0BB10BB60BBB0BC00BC50BCA0BCF0BFC
:1000C000D40BDB0B6C096C096C096C096C096C09AD
:1000D0006C096C09560C560C900C900CE30C860EB7
:1000E000860E860EFF0CDD0DEE0DEE0DC011C31158
:1000F000E011ED11F411131216128812AB1248130D
:100100005213B612B812BB12DF12001303130613F8
:100110002913141F021F251F9D1D04200420FF1EEC
:1001200004200420521F0420661FE11F0420042025
:1001300004200420941F04200420811F04203E1F5B
:1001400004200420FD1FFD1FFD1FFD1FFD1FFD1FBF
:10015000FD1FFD1FFD1FFF1F0420141FF81E04209C
:10016000042004200420042004200420042004206F
:100170000420FF1F04200420FF1E0420FB1FFB1F80
:10018000FB1FFB1FFB1FFB1FFB1FFB1FFB1FFF1F9B
:100190008821AF216823AF216823FB211E22682319
:1001A000202330230E260E2621262126172621263F
:1001B000212621260E260E261C26212621261C2637
:1001C000000000000000000000000000000000002F
:1001D000000000007E0F00D4FFFFFFC70000007882
:1001E00000000000000000002A2B28000000000092
:1001F00000000000000000000000002900000000D6
:100200002C1E3420212224342627252E362D373843
:10021000271E1F202122232425263333362E37384C
:100220001F0405060708090A0B0C0D0E0F1011120A
:10023000131415161718191A1B1C1D2F3130232DD6
:10024000350405060708090A0B0C0D0E0F101112D4
:10025000131415161718191A1B1C1D2F3130354C85
:100260007267626C696768742064697361626C6547
:10027000205B454550524F4D5D3A207267626C6974
:100280006768745F636F6E6669672E656E61626C26
:1002900065203D2025750A007267626C6967687485
:1002A00020656E61626C65205B454550524F4D5D27
:1002B0003A207267626C696768745F636F6E666923
:1002C000672E656E61626C65203D2025750A00729F
:1002D00067626C6967687420746F67676C65205B20
:1002E000454550524F4D5D3A207267626C696768B0
:1002F000745F636F6E6669672E656E61626C652000
:100300003D2025750A0044454255473A20646973EB
:1003100061626C65642E0A0044454255473A206587
:100320006E61626C65642E0A007267626C69676850
:10033000745F636F6E6669672E7370656564203DD8
:100340002025640A007267626C696768745F636F76
:100350006E6669672E76616C203D2025640A007206
:1003600067626C696768745F636F6E6669672E7336
:100370006174203D2025640A007267626C696768B9
:10038000745F636F6E6669672E687565203D202512
:10039000640A007267686C696768745F636F6E6691
:1003A00069672E6D6F6465203D2025640A007267C1
:1003B000626C696768745F636F6E6669672E656EED
:1003C00061626C65203D2025640A007267626C6979
:1003D0006768745F636F6E66696720454550524F6A
:1003E0004D3A0A007267626C696768745F696E698A
:1003F00074207267626C696768745F636F6E6669A8
:10040000672E6D6F6465203D20302E205772697411
:10041000652064656661756C742076616C756573C2
:1004200020746F20454550524F4D2E0A007267626E
:100430006C696768745F696E6974206565636F6E67
:10044000666967206973206E6F7420656E61626CE7
:1004500065642E0A007267626C696768745F696E12
:100460006974207374617274210A007267626C6926
:100470006768745F696E69742063616C6C65642E73
:100480000A000A0025303862003A20002530325830
:10049000000A722F632030313233343536370A0088
:1004A0000A0025303258006B6579626F6172645FB3
:1004B0007365745F6C65643A20007267626C69678B
:1004C00068742064697361626C65205B4E4F4545BA
:1004D00050524F4D5D3A207267626C696768745F75
:1004E000636F6E6669672E656E61626C65203D2084
:1004F00025750A007267626C6967687420656E61B1
:10050000626C65205B4E4F454550524F4D5D3A2021
:100510007267626C696768745F636F6E6669672E85
:10052000656E61626C65203D2025750A0072676208
:100530006C696768742073657420737065656420E6
:100540005B4E4F454550524F4D5D3A2025750A0090
:100550005B735D004B6579626F61726420737461D7
:1005600072742E0A007267626C69676874206D6F1E
:100570006465205B4E4F454550524F4D5D3A2025F6
:10058000750A007267626C69676874206D6F6465D4
:10059000205B454550524F4D5D3A2025750A0000BD
:1005A0000101010101010101010202020202020234
:1005B0000202030303030303030304040404040407
:1005C00004050505050506060606060707070707CD
:1005D00008080808090909090A0A0A0B0B0B0C0C80
:1005E0000C0D0D0D0E0E0E0F0F0F1010111111121C
:1005F0001213131414151516161717181819191A9B
:100600001A1B1B1C1D1D1E1E1F20202122222324FD
:1006100024252626272829292A2B2C2D2D2E2F303C
:10062000313232333435363738393A3B3C3D3E3F50
:10063000404142434445464748494A4C4D4E4F503D
:10064000515354555658595A5B5D5E5F61626465FB
:100650006668696B6C6D6F7072737577787A7B7D85
:100660007E8082838587888A8C8E8F9193959698D9
:100670009A9C9EA0A2A3A5A7A9ABADAFB1B3B5B7F5
:10068000BABCBEC0C2C4C6C9CBCDCFD1D4D6D8DBCC
:10069000DDDFE2E4E7E9EBEEF0F3F5F8FAFDFF72F7
:1006A00067626C696768742073657420687376206C
:1006B0005B4E4F454550524F4D5D3A2025752C25D8
:1006C000752C25750A007267626C696768742073FF
:1006D000657420687376205B454550524F4D5D3AF6
:1006E0002025752C25752C25750A001D001B000181
:1006F00000010001000100010001000A0025303264
:100700005820006B6579626F6172645F7265706F0B
:1007100072743A20006164645F6B65795F6269742A
:100720003A2063616E2774206164643A2025303278
:10073000580A0064656C5F6B65795F6269743A2082
:1007400063616E27742064656C3A20253032580A44
:10075000000A002575002E6E6B726F3A20000A00A9
:100760002575002E737761705F6261636B736C61D6
:1007700073685F6261636B73706163653A20000A3E
:10078000002575002E737761705F67726176655F13
:100790006573633A20000A002575002E6E6F5F674F
:1007A00075693A20000A002575002E737761705F25
:1007B00072616C745F726775693A20000A00257572
:1007C000002E737761705F6C616C745F6C67756924
:1007D0003A20000A002575002E737761705F7263FE
:1007E000746C5F726775693A20000A002575002EE7
:1007F000737761705F6C63746C5F6C6775693A20C6
:10080000000A002575002E636170736C6F636B5F67
:10081000746F5F636F6E74726F6C3A20000A00250C
:1008200075002E737761705F636F6E74726F6C5FAB
:10083000636170736C6F636B3A20000A002530327D
:1008400058006B65796D61705F636F6E6669672EC6
:100850007261773A20000A002575002E6D6F75735E
:10086000653A20000A002575002E6B6579626F617C
:1008700072643A20000A002575002E6D6174726959
:10088000783A20000A002575002E656E61626C655D
:100890003A20000A00253032580064656275675FAF
:1008A000636F6E6669672E7261773A20000A0025D1
:1008B000750064656661756C745F6C617965723A28
:1008C00020000A092D204D61676963202D0A443AF2
:1008D000094465627567204D6573736167652054CF
:1008E0006F67676C650A583A094D617472697820C0
:1008F0004465627567204D6F646520546F67676C4F
:1009000065202D2053686F77206B65797072657351
:1009100073657320696E206D6174726978206772E7
:1009200069640A4B3A094B6579626F6172642044CD
:100930006562756720546F67676C65202D2053686A
:100940006F77206B65797072657373207265706F55
:1009500072740A4D3A094465627567204D6F75736C
:100960006520546F67676C650A563A09566572735D
:10097000696F6E0A533A095374617475730A433A86
:1009800009416374697661746520436F6E736F6C9F
:1009900065204D6F64650A46312D4631303A095362
:1009A000776974636820746F204C617965722030B8
:1009B0002D392028463130203D204C30290A302D59
:1009C000393A0953776974636820746F204C6179F0
:1009D000657220302D390A47524156453A095377FE
:1009E0006974636820746F204C61796572203020CF
:1009F00028616C7465726E617465290A423A094A0D
:100A0000756D7020746F20426F6F746C6F616465D8
:100A1000720A4553433A094A756D7020746F20423B
:100A20006F6F746C6F616465722028616C7465729D
:100A30006E617465290A453A095072696E742045E1
:100A40004550524F4D2053657474696E67730A4266
:100A500053504143453A09436C6561722045455006
:100A6000524F4D0A4E3A094E4B524F20546F676712
:100A70006C650A000A092D20436F6E736F6C652048
:100A80002D0A4553432F713A09717569740A00475D
:100A900043433A20352E342E30204156522D4C49B6
:100AA00042433A20322E302E30204156525F41527E
:100AB00043483A20617672350A004F5054494F4EF0
:100AC000533A204C5546412045585452414B4559C4
:100AD00020434F4E534F4C4520434F4D4D414E44C4
:100AE000204E4B524F204C544F20343039360A00A0
:100AF0004255494C443A2022302E31302E35342D87
:100B0000312D676334316338662D646972747922DC
:100B1000202832323A33393A3331204A616E20315B
:100B2000382032303231290A005649443A20307890
:100B3000353334322853706163656D616E292050FE
:100B400049443A20307833323235283225204D69F5
:100B50006C6B29205645523A203078303030310ABB
:100B6000000A092D2056657273696F6E202D0A00E8
:100B700074696D65725F72656164333228293A2049
:100B80002530346C580A006B65796D61705F636F56
:100B90006E6669672E6E6B726F3A2025580A006B7D
:100BA0006579626F6172645F69646C653A2025588B
:100BB0000A006B6579626F6172645F70726F746F47
:100BC000636F6C3A2025580A00686F73745F6B6519
:100BD00079626F6172645F6C65647328293A2025BD
:100BE000580A000A092D20537461747573202D0A68
:100BF000003F004E4B524F3A206F66660A004E4B44
:100C0000524F3A206F6E0A000A6D6F7573653A2075
:100C10006F66660A000A6D6F7573653A206F6E0A1B
:100C2000000A6B6579626F6172643A206F66660ACA
:100C3000000A6B6579626F6172643A206F6E0A0018
:100C40000A6D61747269783A206F66660A000A6DEF
:100C500061747269783A206F6E0A000A6465627581
:100C6000673A206F66660A000A64656275673A2013
:100C70006F6E0A000A0A4A756D70696E6720746F9C
:100C800020626F6F746C6F616465722E2E2E20006F
:100C9000433E2000436C656172696E672045455094
:100CA000524F4D0A006565636F6E6669673A0A00C8
:100CB0004C25640A000631FF0974A101097515006D
:100CC00026FF009520750881020976150026FF0091
:100CD000952075089102C005010980A101850319BD
:100CE000012AB700150126B700950175108100C0D3
:100CF000050C0901A101850419012AA0021501268C
:100D0000A002950175108100C005010906A10185A9
:100D100005050719E029E7150025019508750181EA
:100D2000020507190029EF1500250195F0750181CD
:100D300002050819012905950575019102950175AE
:100D4000039101C00660FF0961A101096215002637
:100D5000FF009520750881020963150026FF0095A4
:100D60002075089102C005010906A101050719E0D7
:100D700029E715002501950875018102950175087F
:100D800081010507190029FF150026FF009506754A
:100D9000088100050819012905950575019102953D
:100DA0000175039101C05B435D005B445D005B53D3
:100DB0005D005B575D005B525D0009027B00040132
:100DC00000A0FA090400000103010100092111013A
:100DD00000012240000705810308000A0904010000
:100DE0000203000000092111010001222200070571
:100DF000820320000107050303200001090402000B
:100E00000103000000092111010001226D00070506
:100E1000840320000A0904030002030000000921E2
:100E200011010001222200070585032000010705AA
:100E300005032000011201100100000008425325A3
:100E400032010001020301040330000000100332EC
:100E500000250020004D0069006C006B00000012AE
:100E600003530070006100630065006D0061006E57
:100E7000000000040309043F00433E200000112449
:100E80001FBECFEFDAE0DEBFCDBF04B603FE27C042
:100E90008091140290911502A0911602B091170250
:100EA0008730904BA740B04BD1F4109214021092AF
:100EB0001502109216021092170214BE84B7877F93
:100EC00084BF0FB6F894A8958091600088618093E4
:100ED0006000109260000FBEE0E0F8E3099511E0B9
:100EE000A0E0B1E0EAE4F4E502C005900D92A0357F
:100EF000B107D9F722E0A0E5B1E001C01D92A4310D
:100F0000B207E1F70E94D70E0C94232A0C9400003C
:100F1000FF93EF93E0915001F0915101309709F068
:100F20000995EF91FF910895FC018591803011F0B2
:100F3000EFDFFBCF0895FF27E0E230E247FF0CC070
:100F4000419597FF09C0EDE2609570958095909569
:100F5000611D711D811D911D27FF02C0219530E388
:100F600050E2AA27660F771F881F991FAA1FA41790
:100F700010F0A41B63955A95A9F7AA3008F0A95F51
:100F8000A05DAF93F395611571058105910541F75A
:100F9000ED3211F4EF93F395F21718F43F93F395B4
:100FA000FBCF8F91B5DFFA95E1F70895E991F991BB
:100FB0008591803021F0853219F0AADFF9CF0895AC
:100FC00020E0E89455915532C1F3503311F4689400
:100FD00055915A3348F4505390F3220F022E220FAA
:100FE000220F200D250FF4CF0EF4219589919991B0
:100FF000533619F3533729F1533559F1BC0188277A
:101000009927E8945C3621F48991999168945591D7
:10101000543639F446EF7EF077FF0DC08FEF9FEF27
:101020000AC055374AE039F0583540E121F05236D0
:1010300042E009F00895FF93EF937DDFEF91FF9178
:10104000B7CFFF93EF93FC0181918030B9F360DF5C
:10105000FBCFFF93EF9368DFF1CFDF93CF93CDB753
:10106000DEB72596A3DFCF91DF9108955F926F924F
:101070007F928F929F92AF92BF92CF92DF92EF9228
:10108000FF920F931F93CF93DF93CDB7DEB72997CE
:101090000FB6F894DEBF0FBECDBFFC0180819181F9
:1010A00023813481232B31F09F3F31F491E08F3F36
:1010B00019F403C091E001C090E090FD62C67F0189
:1010C00085E0DE01119601900D928A95E1F7F70116
:1010D000228189819A81222349F00E945E1C182F67
:1010E000682F89819A810E94D41C03C00E94AB1C86
:1010F000182F69817A81812F0E9489158C01F7014F
:101100009281992309F4DEC0980122513F45203194
:10111000310508F003C18FEF93E00E94AE298111E1
:10112000DBC0025136E3832E912C002379F0811429
:10113000F4E09F0609F4D0C0C4010E94AE298111D9
:1011400001C001501FEF811A910AEFCF1E821F824A
:1011500018861986662463942AE0522E84010F5F54
:101160001F4FC4010E94AE298E831F82882309F479
:10117000B3C09FEF980F933060F48F836E8222E0AC
:10118000820E911CC8010E94AE298887811102C07D
:10119000A3C048018E010A5F1F4FF801208122235E
:1011A000E9F2213009F04CC08181813049F46801B5
:1011B000F2E0CF0ED11CF80182810E943E280AC0C5
:1011C000823051F46801F2E0CF0ED11CF801828127
:1011D0000E945128860173C0833049F46801F2E00F
:1011E000CF0ED11CF80182810E940C28F3CF8430ED
:1011F00019F00F5F1F4F63C0F80122810E5F1F4F70
:1012000080E090E030E0205331092A30310568F465
:10121000589EA001599E500D1124C901840F951F9D
:101220000F5F1F4FF8012081EDCF009709F447C0F1
:10123000EFE9FFE03197F1F700C000000197F5CF2B
:10124000E22FF0E0E052FE4F7490822F8695869553
:10125000869590E0FC01E053FE4FA4902770B12CDE
:10126000022E02C0B594A7940A94E2F7F1E0AF22EF
:10127000BB24FC01E054FE4FC490D12C02C0D59495
:10128000C7942A95E2F721E0C222DD24A114B1041B
:1012900019F081EE0E945128C114D10419F086EE94
:1012A0000E945128872D0E943E28CD2819F086EEF5
:1012B0000E940C28AB2819F081EE0E940C280F5FC9
:1012C0001F4F6BCF00313FE5130709F051C581E097
:1012D0000E94061D0E9483208091D401877009F42A
:1012E00050C5F7018281882309F44BC582E0299615
:1012F0000FB6F894DEBF0FBECDBFDF91CF911F9127
:101300000F91FF90EF90DF90CF90BF90AF909F90A4
:101310008F907F906F905F900C942B1D0031FFE5B4
:101320001F0711F481E005C001312FE5120721F4F8
:1013300082E00E94441DCECF033FFCE51F0749F425
:1013400006E221EE40EE63EF7CE5C7010E94A9149E
:10135000C3CF043F2CE5120708F04AC1083D3CE525
:10136000130731F407E225EE45EE68ED7CE5EDCF9D
:10137000093D8CE5180731F408E221E045EE69EDFE
:101380007CE5E3CF073DECE51E0731F406E221EEF4
:1013900041EE67ED7CE5D9CF992309F45EC1109247
:1013A000520102303CE5130708F441C106318CE5D7
:1013B000180738F098012A5F3C452930310508F0BC
:1013C00036C10E944E1B9093570180935601003105
:1013D0009CE5190709F4C3C008F041C00830FCE5DA
:1013E0001F0709F49AC0F0F404303CE5130709F430
:1013F00087C068F402309CE5190709F477C0033010
:101400001C4509F0E5C080915601826076C0063027
:10141000FCE51F0709F46EC008F07BC080915601FF
:1014200088606BC00C303CE5130709F485C068F494
:101430000A309CE5190709F474C008F079C00E94CD
:10144000E22780915601806858C00E30FCE51F07E6
:1014500009F476C008F07FC0809156018BC00B3F25
:101460003CE5130709F44FC018F503319CE5190753
:1014700009F47DC078F40131FCE51F0709F473C05D
:1014800002311C4509F0A4C00E94E2278091560158
:101490008F7733C005313CE5130709F472C008F4B7
:1014A00086C00A3F1C4509F093C0809157013EC099
:1014B0000F3FECE51E0709F45FC058F40D3F2CE523
:1014C000120709F444C008F43FC0809157018260BC
:1014D0002DC001308DE5180709F475C008F45DC012
:1014E00002301D4509F074C060E06EC08091560165
:1014F000816003C08091560180618093560168C06D
:101500008091560111C080915701826080935701EC
:101510005FC0809156018062F0CF80915601806457
:10152000ECCF8091560188608460E7CF8160EECF78
:10153000809156018E7FE1CF809156018D7FDDCF66
:1015400080915601877FD9CF8091570118C0809133
:1015500057018D7FDBCF809156018F7ECECF80915A
:1015600056018F7DCACF809156018F7BC6CF809167
:101570005601877F8B7FC1CF809157018D7F8E7FF2
:10158000C5CF8091560182FB222720F991E0922756
:1015900090FB82F990FB83F9B0CF80915701982F8F
:1015A000909591708E7F892B90FB81F9AFCF0E942F
:1015B000E2278091560187FB222720F991E09227AC
:1015C00090FB87F99ACF61E08EE090E00E94C229FB
:1015D000609156011091570184E090E00E94C22969
:1015E000612F81E290E00E94C2290E94E22774CE1E
:1015F000053FFCE51F0731F406E221EE42EE65EF00
:101600007CE5A3CE053F2CE5120730F407E225EE7A
:1016100044EE64EF7CE599CE063F3CE5130709F004
:10162000BBCE07E225EE46EE66EF7CE58ECE8091DE
:10163000D7010631ECE51E0709F58A7A91E009F435
:1016400090E090935301882311F065E301C069E2B3
:1016500087E791E00E94081B0EC006311C4509F087
:10166000DDC080915301882309F489C365E387E7CE
:1016700091E00E94CF1A0E94DA1B2ECE8272F801EE
:10168000E25CFC45E431F10508F09AC0EA5AFF4FEC
:101690000C94162A80915F0180FF10C08091600138
:1016A000809581701F928F938FEC92E09F938F9320
:1016B0000E942D080F900F900F900F908091600165
:1016C00080FF2CC08E7F80936001609160017091DB
:1016D000610180916201909163010E94F6158091F1
:1016E0005F0180FF0FC08091600181701F928F9316
:1016F00080E692E09F938F930E942D080F900F90A9
:101700000F900F90FFEF00E712E0F1500040104003
:10171000E1F700C000000E94BA15DECD8160809321
:10172000600180915F0180FF0DC01F9281E08F9367
:1017300088E992E09F938F930E942D080F900F905D
:101740000F900F908091600161E0869536C047E967
:1017500057E160EA77E12CC040EA57E167E977E1B9
:1017600027C048E257E161E377E122C041E357E156
:1017700068E277E11DC040E157E16CE177E118C014
:101780004CE157E160E177E113C048EF56E164E0D6
:1017900077E10EC044E057E168EF76E109C04AE323
:1017A00057E16BE477E104C04BE457E16AE377E18A
:1017B0000E94B41591CD61E081E00E945C178CCD50
:1017C00001302CE51207A1F00E3D3CE5130719F19D
:1017D00001151C4519F50E94E2279FEFE4E3FCE0A8
:1017E0009150E040F040E1F700C000000E94631A11
:1017F00080915F01982F9095917090FB80F9809374
:101800005F01992319F088E193E002C086E093E03C
:101810000E94940761CD0E945F1B5ECDF70100819D
:101820001181992349F0C8010E945E1CD82E682FAF
:10183000C8010E94D41C04C0C8010E94AB1CD82E51
:10184000B8018D2D0E9405188C01982EF701A580F6
:10185000A2949FE0A922D280D1101092D60180914B
:10186000D401877099F0DD2089F0812F807F80344A
:1018700021F080E2800F883048F082E00E942B1D2A
:101880008091D4018770CC24C3948111C12CB12ED6
:10189000B2948FE0B8228B2D90E08C30910508F047
:1018A00035C2FC01E659FF4F0C94162A812F807F28
:1018B0001F70882311F01295107FDD20B9F01123DD
:1018C00009F40FC280E2800F883010F0911006C03A
:1018D0008091D701182B1093D70105C08091D601B4
:1018E000182B1093D6010E94DA1BFBC1802F0E9497
:1018F0000C28112309F40AC2005E1095083010F07C
:10190000911006C08091D70118231093D70105C00C
:101910008091D60118231093D6010E94DA1BF6C1DC
:10192000812F807F1F70803211F01295107F9920D7
:1019300021F0F1E09F16E1F02AC0DD2081F08091D6
:10194000D801AA2051F001E0A01207C0182B1817E7
:1019500009F4DCC11093D801D9C1812B10C0AA2091
:1019600021F021E0A21609F4D1C10E94D41B27C0A6
:10197000DD2041F035E03A1508F4C8C1812F0E94FE
:101980000228C4C184E08A1508F4C0C118C0DD2053
:1019900049F0AA2099F3F701858180FFA2C18F70D9
:1019A0008583ECCFAA2059F0093309F0ACC1FFEFD1
:1019B00017EE23E0F15010402040E1F7A2C1812F43
:1019C0000E94F727A3C1812F86958695837019F011
:1019D000813059F09BC1DD2019F0C801937002C01D
:1019E00080E090E00E94871497C1DD2019F0C801C3
:1019F000937002C080E090E00E9471148DC1812F2D
:101A0000837009F069C0D11085C1902F9295969589
:101A10009770990F990F802F8F70882E912CA12C81
:101A2000B12C092E04C0880C991CAA1CBB1C0A945A
:101A3000D2F704FF12C04FE050E060E070E004C055
:101A4000440F551F661F771F9A95D2F7DB01CA0115
:101A500080959095A095B09503C080E090E0DC0162
:101A600016951695412F4370423019F1C8F4009134
:101A7000D9011091DA012091DB013091DC01413074
:101A800059F088299929AA29BB29BC01CD016023D5
:101A90007123822393230AC0802A912AA22AB32A7F
:101AA000BC01CD01682979298A299B290E94651DDD
:101AB00031C188299929AA29BB290091D9011091FE
:101AC000DA012091DB013091DC01BC01CD016027FE
:101AD000712782279327EACFDD2019F0812F8170AB
:101AE00001C08695882309F415C1902F929596958B
:101AF0009770990F990F802F8F70882E912CA12CA1
:101B0000B12C092E04C0880C991CAA1CBB1C0A9479
:101B1000D2F704FF12C04FE050E060E070E004C074
:101B2000440F551F661F771F9A95D2F7DB01CA0134
:101B300080959095A095B09503C080E090E0DC0181
:101B400016951695412F43704230D9F068F50091F3
:101B500010021091110220911202309113024130B3
:101B600059F088299929AA29BB29BC01CD016023F4
:101B70007123822393231EC0802A912AA22AB32A8A
:101B800013C088299929AA29BB2900911002109114
:101B900011022091120230911302BC01CD01602785
:101BA00071278227932706C0BC01CD0168297929B6
:101BB0008A299B290E94FC1CADC01F70DD2039F0D2
:101BC000812F0E94441D802F0E940228A3C0802FD5
:101BD0000E94F727812F0E94061D9CC0802F32EFA4
:101BE000931609F440C0391538F090EF991661F05A
:101BF000E1EF9E1699F170C0F3EF9F16D9F124EF33
:101C0000921609F44EC068C0DD2019F134E03A158F
:101C100008F47CC01F7181E090E0A0E0B0E0AC016E
:101C2000BD0104C0440F551F661F771F1A95D2F7D8
:101C30008091100290911102A0911202B0911302B2
:101C40008A019B01082719272A273B27C901B801C8
:101C500025C025E02A1508F459C0DCCFDD2029F085
:101C6000812F8F712CC0DD20D9F3812F8F710E94BD
:101C7000061D4CC0DD2079F01F7181E090E0A0E0EE
:101C8000B0E0BC01CD0104C0660F771F881F991F0B
:101C90001A95D2F703C060E070E0CB010E94FC1CF3
:101CA00035C0DD2079F01F71812F0E94441D38E07E
:101CB000139FC001112483608093D401812F0E945F
:101CC000441D24C081E00E942B1D81E08A15F0F4A0
:101CD00082E00E942B1D1AC0DD2039F0AA2009F4F1
:101CE000BFCF802F0E94512811C0AA2009F4BDCF78
:101CF000893349F49FEFE7EEF3E09150E040F04084
:101D0000E1F700C00000802F0E940C2888EF8B0DA7
:101D1000843010F40E949D14CC2099F18091D4015C
:101D200080FD2FC0F70112828595859585950E94CB
:101D3000441DC7010E9436088091D4018595859580
:101D4000859529960FB6F894DEBF0FBECDBFDF9103
:101D5000CF911F910F91FF90EF90DF90CF90BF90A8
:101D6000AF909F908F907F906F905F900C94061D26
:101D700001318FE5180709F0DFCA82E0A9CA69E2DC
:101D800076CC29960FB6F894DEBF0FBECDBFDF919B
:101D9000CF911F910F91FF90EF90DF90CF90BF9068
:101DA000AF909F908F907F906F905F900895CF93AA
:101DB000DF93CDB7DEB7AA970FB6F894DEBF0FBE9C
:101DC000CDBF84B7877F84BF0FB6F894A895809164
:101DD0006000886180936000109260000FBE90E008
:101DE00080E80FB6F89480936100909361000FBE75
:101DF00085B7806885BF85B7806885BF0E94CA2384
:101E00000E94E9238091E20084608093E20085E8EB
:101E100099E19093510180935001789480910F0241
:101E20008823A1F01091E9001F709091EC00892F98
:101E3000817090FD80E8182B1092E9008091E800F5
:101E400083FD0E94A1201F701093E90082E084BDF1
:101E500093E095BD9AEF97BD80936E0054985C9A7D
:101E60003E98469A109254011092650110925501C5
:101E7000109266010E94B3172FEF36E781E02150E0
:101E800030408040E1F700C000000E94B31780910D
:101E9000650180FF0AC080E00E9496156FEF7FEF1A
:101EA00080E090E00E94E02909C480E090E00E9478
:101EB000BC298C3E9E4F11F00E945F1B82E290E095
:101EC0000E94AE29813281F483E290E00E94AE2923
:101ED000813051F484E290E00E94AE2991E0883193
:101EE00009F090E0892F01C080E080FF0EC480E0FF
:101EF00090E00E94BC298C3E9E4F11F00E945F1B17
:101F000082E090E00E94AE2980935F010E944E1B08
:101F1000909357018093560183E090E00E94AE2990
:101F2000682F70E080E090E00E94651D809158016C
:101F30008111DEC080915F0180FF08C08BE694E0D4
:101F40009F938F930E942D080F900F9080915F01B7
:101F500080FF08C085E594E09F938F930E942D0831
:101F60000F900F9080E090E00E94BC298C3E9E4F25
:101F700081F080915F0180FF08C08DE294E09F9323
:101F80008F930E942D080F900F900E945F1B0E945C
:101F9000A41788E090E00E94B629609360017093D6
:101FA000610180936201909363016E7FD1F480910F
:101FB0005F0180FF08C084EE93E09F938F930E949F
:101FC0002D080F900F900E94A41788E090E00E94C7
:101FD000B6296093600170936101809362019093D0
:101FE00063010E94EB1580915F0180FF08C08BECBC
:101FF00093E09F938F930E942D080F900F908091F4
:102000005F0180FF0FC08091600181701F928F93EC
:102010008EEA93E09F938F930E942D080F900F906C
:102020000F900F9080915F0180FF0FC08091600141
:1020300086951F928F9383E993E09F938F930E94DD
:102040002D080F900F900F900F9080915F0180FFEF
:102050000EC0809161011F928F9389E793E09F9357
:102060008F930E942D080F900F900F900F908091EA
:102070005F0180FF0EC0809162011F928F938FE5F8
:1020800093E09F938F930E942D080F900F900F90D5
:102090000F9080915F0180FF0EC0809163011F92BD
:1020A0008F9385E493E09F938F930E942D080F9068
:1020B0000F900F900F9080915F0180FF0EC0809174
:1020C00064011F928F9389E293E09F938F930E9404
:1020D0002D080F900F900F900F908091600180FF5E
:1020E00004C060E086950E945C1781E080935801EF
:1020F00080E091E090935A018093590184E595E046
:102100000E94940773E0372E8E010F5F1F4F80915E
:102110000F02853009F03DC080E595E00E949407EC
:1021200080910F02843021F110925B0180E4E8E19C
:10213000F0E00FB6F894A895E09360000FBE80938E
:10214000600083B7817F846083BF83B7816083BF72
:102150007894889583B78E7F83BF0FB6F894A8953F
:1021600080916000886180936000109260000FBED3
:1021700080910502882309F4CACF0E94B317809189
:1021800065018111A3C280916601882309F4BFCF44
:102190009DC20E94B3175DE5A52E51E0B52E65E600
:1021A000662E61E0762EE12CF12C2E2CF30151905D
:1021B0003F01F50141905F01452409F453C080912E
:1021C0005F0181FD1BC040FE4DC019A22AA2852DD2
:1021D00081708BA30E949A1A8160782F9DA38CA393
:1021E00049A15AA16BA18DA10E94D513F701E35A11
:1021F000FE4F908181E0892780834CC081E994E083
:102200000E94940745E6842E41E0942EC12CD12CE7
:10221000DF92CF922CE834E03F932F930E942D0859
:1022200089E894E00E949407F40181914F010E9493
:10223000C21B1F928F9324E834E03F932F930E9498
:102240002D0882E894E00E9494079FEFC91AD90AEA
:102250000FB6F894DEBF0FBECDBFF2E0CF16D104AB
:10226000B9F6B1CF2FEFE21AF20A32E0E316F10429
:1022700009F09BCF8FEF8EA38FA318A60E949A1A06
:102280008160782F9AA789A74EA15FA168A58AA52A
:102290000E94D5130E949D1490915C01891739F119
:1022A0000E949D14F82E80935C0180915F0182FF53
:1022B0001EC080FF04C087EA94E00E9494078091CA
:1022C0005F0180FF0CC01F92FF9282EA94E09F930F
:1022D0008F930E942D080F900F900F900F90809178
:1022E0005F0180FF04C080EA94E00E94940780911F
:1022F0000F02843009F00BCF3092E9008091E800A2
:1023000082FF05CF8091E80085FF24C00E947725D9
:1023100081111EC030E2C32ED12C9E012F5F3F4F92
:10232000790109C08091F100F70181937F01F1E00B
:10233000CF1AD10869F08091E80085FDF3CF809134
:10234000E8008B778093E8000E947725882399F333
:1023500091E001C090E08091E8008B778093E800E5
:10236000992309F4D4CEE9818E2F90E0FC013197B6
:10237000E331F10508F0A4C1EA58FF4F0C94162A86
:102380001A8289E0DFC08A81823009F4B5C18330C6
:1023900089F0813009F094C12FB7F89480916701DA
:1023A00090916801A0916901B0916A012FBFBB8330
:1023B000AC8318C0809165018B8380916601C9C090
:1023C0008A81823009F07CC16B817C818D819E8104
:1023D0000E941C2A85E290E023C04C816B818A8197
:1023E0000E9464159D838FC1ED80FE80FE24EF2442
:1023F000FE248C81CB809A81D12CCC0CDD1C24E076
:10240000929FC00CD11C1124C80ED11CC80ED11C27
:102410006F2DC60186960E94C2296E2DC601879631
:102420000E94C2294FC10E9438154CC18A8181384F
:10243000B9F050F4803809F045C120E04B8160913B
:1024400062018091610161C0823809F44AC0833819
:1024500009F038C120E0409163016C818B8155C047
:1024600060E08B810E945C172B8190915F018091CD
:10247000600121111DC08E7F8093600190FF0CC010
:102480001F921F928AEB94E09F938F930E942D08D6
:102490000F900F900F900F90FFEF20E732E0F15078
:1024A00020403040E1F700C000000E94BA150AC188
:1024B00081608093600190FF0DC01F9281E08F9337
:1024C00084EF94E09F938F930E942D080F900F90BC
:1024D0000F900F908091600160E086950E945C17DC
:1024E000F1C08B818093640190915F0190FFEAC0FD
:1024F0001F928F932DE235E03F932F930E942D087A
:102500000F900F900F900F90DDC00E940816DAC058
:102510008A81813891F030F4803809F0D3C08091FD
:10252000630110C0823891F0833809F0CBC08091EC
:1025300061018B83809162010CC08091600180FFFA
:1025400003C086958B83BEC080E0FCCF8091640180
:10255000F9CF8C83B7C06091600170916101809167
:102560006201909163010E94F615ACC080E14CC0FD
:102570003A828AECE7CFEA80FB80FE24EF24FE2437
:10258000CC80D12C5801C701C6969501201B310B78
:102590002C153D0508F096C0EAECEE16E3E0FE06C9
:1025A00028F40E94AE29F501848302C0F50114824B
:1025B000FFEFEF1AFF0A2FEFA21AB20AE4CFEA8068
:1025C000FB80FE24EF24FE24CC80D12C5801C701CF
:1025D000C6969501201B310B2C153D0508F072C0E5
:1025E0003AECE31633E0F30620F4F50164810E942F
:1025F000C229FFEFEF1AFF0A2FEFA21AB20AE7CFA4
:102600000E9428155FC084E08A835CC0EA80FB805A
:10261000FE24EF24FE24CC80D12C5801C7018696DD
:102620009501201B310B2C153D0508F04BC030E106
:10263000E316F10428F40E94AE29F501848302C058
:10264000F5011482FFEFEF1AFF0A2FEFA21AB20A68
:10265000E5CFEA80FB80FE24EF24FE24CC80D12C41
:102660005801C70186969501201B310B2C153D059D
:1026700048F530E1E316F10420F4F50164810E948D
:10268000C229FFEFEF1AFF0A2FEFA21AB20AE9CF11
:1026900080E00E9496156FEF7FEF80E090E00E944F
:1026A000E02910C0C8010E94D6253FEF81EE94E0DA
:1026B000315080409040E1F700C000000E94631A52
:1026C0008FEF8983C8010E94D62521CD80E189BD85
:1026D00082E189BD09B400FEFDCF8091D8008F7DD5
:1026E0008093D8008091E00082608093E000809128
:1026F000E00081FDFCCF0BCD85E290E00E94AE2989
:102700001B821C821D828E83DDCF60E085E290E01B
:102710000E94C2290E9438150E94281581E00E945B
:102720009615E5CB9091560192FF0DC0282F287188
:10273000283019F4877F846006C0282F2471243044
:1027400011F48B7F886093FF0DC0282F28712831EA
:1027500019F4877E846106C0282F2471243111F476
:102760008B7E88612091570120FF0DC0382F387172
:10277000383019F4877F816006C0382F31713130CD
:1027800011F48E7F886021FF0DC0282F2871283119
:1027900019F4877E816106C0282F2171213111F43F
:1027A0008E7E886194FD877E08951F93CF93DF937B
:1027B000CDB7DEB767970FB6F894DEBF0FBECDBFBB
:1027C0004B8B5C8B6D8B7E8B8F8B86E09E01235FAA
:1027D0003F4FD901E82F1D92EA95E9F795E0FE01F8
:1027E0007396D90101900D929A95E1F7F901DE01F6
:1027F000179601900D928A95E1F7CE0107960E94F7
:10280000252681113EC086E0FE013796DE01119635
:1028100001900D928A95E1F7FF81E8856A857B85B5
:102820006115710531F0EF3F31F481E0FF3F19F49C
:1028300003C081E001C080E080FD23C020919D01A4
:1028400030E0C9010196877099274091CE0150E090
:102850008417950779F1F983EA837D836C8396E089
:10286000929FD001939FB00D1124A256BE4FFE013E
:10287000319601900D929A95E1F780939D010E9407
:102880000D2016E08091CE0190919D018917F9F0FD
:10289000189FC001112482569E4F0E94252688232E
:1028A000B1F08091CE0190E00196877099278093D6
:1028B000CE01E8CF0E94E22710929D011092CE0136
:1028C000E7E9F1E086E0DF011D928A95E9F7679676
:1028D0000FB6F894DEBF0FBECDBFDF91CF911F9131
:1028E000089520917501309176012817390771F00C
:1028F0009093760180937501E0915901F0915A010E
:10290000309721F00084F185E02D099408952091FD
:102910007301309174012817390771F09093740195
:1029200080937301E0915901F0915A01309721F0A1
:102930000680F781E02D09940895E0915901F09106
:102940005A01309721F00190F081E02D099480E048
:1029500008950F931F93CF93DF93C42F122FFC0181
:1029600082818823C9F0409352010E949A1A909361
:1029700072018093710180E28C0F883008F063C08F
:10298000C77081E001C0880FCA95EAF7DF91CF9147
:102990001F910F910C9402288091520148133CC062
:1029A00020917101309172014FB7F89480916701C5
:1029B00090916801A0916901B0916A014FBF821B9B
:1029C000930B883C910540F5D0E2D10FC117B9F0C7
:1029D00080E28C0F883040F4C77081E001C0880F1E
:1029E000CA95EAF70E94F727D83030F581E0912F99
:1029F000977001C0880F9A95EAF70E940228802FED
:102A00000E943E28D830F8F4212F277081E001C0C1
:102A1000880F2A95EAF70AC080E28C0F883098F474
:102A2000C77081E001C0880FCA95EAF7DF91CF91A6
:102A30001F910F910C94F727802FDF91CF911F9159
:102A40000F910C943E28DF91CF911F910F91089523
:102A5000CF93DF93C6E3D0E060E0CE010E94C229AD
:102A60002196C11584E0D807B9F7DF91CF91089579
:102A70000F931F93CF93DF93C6E2D0E0FE01EB5399
:102A8000F94F05911491612FCE010E94C229602F48
:102A9000CE0101960E94C229FE01E953F94F05912A
:102AA0001491612FCE0102960E94C229602FCE019F
:102AB00003960E94C2292496C633D105F9F6DF9108
:102AC000CF911F910F9108950F931F93CF93DF9391
:102AD00050E0440F551F460F511D460F511DEA018E
:102AE00024E0829FC00DD11D1124CE0186960E9444
:102AF000AE29082F10E0102F0027CE0187960E94E4
:102B0000AE299801282BC901DF91CF911F910F9118
:102B10000895843040F4723030F4611104C040E014
:102B2000672F0C94641580E090E00895CF93C82F30
:102B3000811102C06FEF01C061E282E290E00E9469
:102B4000C229C11102C06FEF01C061E083E290E0D1
:102B50000E94C229C11102C06FEF01C068E184E286
:102B600090E0CF910C94C229882311F0FA0101C0A2
:102B7000FB0109948091600180FD06C010926F01F5
:102B800010926E0110927001269A85B18F7B95B1DB
:102B900090642FB7F894EEE6F1E041E751E04E176C
:102BA0005F0789F0319168E095B9000000C037FFF8
:102BB00085B9330F000000C000C000C085B900C057
:102BC0006A9591F7ECCF2FBF8FE594E00197F1F76D
:102BD00000C00000089580916001982F9695913073
:102BE00021F081708260809360010895CF92DF921E
:102BF000EF92FF926B017C010E94EB15B701A601D9
:102C000088E090E0FF90EF90DF90CF900C94D42973
:102C10009F92AF92BF92CF92DF92EF92FF920F936B
:102C20001F93CF93DF939091600190FFD5C0922EB8
:102C3000142FD62FC82F9E7F923009F084C0E42F26
:102C4000F0E0611106C0E156FA4FE491FE2F2E2FFD
:102C500072C0E62EF12CE156FA4FF4910F2FCF2ED1
:102C6000D12C26E0829FC00111242FEF30E0B90162
:102C70000E94022A4BEA4603C001479F900D11248F
:102C80008C0F911D8C0F911DB82EBB0CB80EA90195
:102C90004E195F094C9DC0014D9D900D5C9D900D9E
:102CA0001124E92FDB9DA0011124452F5527D901BF
:102CB000A41BB50BAC9DA001AD9D500DBC9D500D4E
:102CC0001124D901AB19B1095D01AE9CD001AF9CB3
:102CD000B00DBE9CB00D1124AB2FBB272A1B3B0BA4
:102CE0002C9DD0012D9DB00D3C9DB00D11242B2F9E
:102CF0006230710591F048F461157105E1F06130C1
:102D00007105B9F42F2FF52F16C06430710569F0E5
:102D100040F06630710579F00CC02F2FF92FEB2FA2
:102D20000AC0F92FE02F252F06C0292FEF2FFB2FE8
:102D300002C0292FE52FF0936F0120936E01E093DD
:102D400070010E94BA15C0936101D0936201109383
:102D50006301992049F16091600170916101809156
:102D60006201909163010E94F61580915F0180FFDE
:102D700033C0809163011F928F93809162011F92F3
:102D80008F93809161011F928F9386EC96E09F93C1
:102D90008F930E942D088DB79EB708960FB6F894B2
:102DA0009EBF0FBE8DBF18C080915F0180FF14C011
:102DB0001F921F931F92DF931F92CF938FE996E08C
:102DC0009F938F930E942D08ADB7BEB718960FB68C
:102DD000F894BEBF0FBEADBFDF91CF911F910F9191
:102DE000FF90EF90DF90CF90BF90AF909F900895AD
:102DF000E0E6F1E0438121E1421B08F440E021E0FC
:102E0000628181810C940816E0E6F1E0438121E1C2
:102E1000420F08F44FEF21E0628181810C94081683
:102E2000E0E6F1E0628121E1621B08F460E021E06C
:102E3000438181810C940816E0E6F1E0628121E192
:102E4000620F08F46FEF21E0438181810C94081632
:102E5000E0E6F1E0818121E04381628188500C94B9
:102E60000816E0E6F1E0818121E043816281885F1C
:102E70000C94081680916401882319F08150809386
:102E80006401609160017091610180916201909193
:102E900063010C94F61580916401833018F48F5F00
:102EA0008093640160916001709161018091620181
:102EB000909163010C94F6158091600180FF36C0FB
:102EC00081708260809360016623B1F0609160013F
:102ED0007091610180916201909163010E94F615E9
:102EE00080915F0180FF19C08091600186951F92DB
:102EF0008F9383E895E009C080915F0180FF0DC04A
:102F00001F9281E08F9385E695E09F938F930E94B7
:102F10002D080F900F900F900F9020E040916301CB
:102F200060916201809161010C940816089580916E
:102F300060018695815009F481E061E00C945C1792
:102F400061E081E00C945C17E0E6F1E083E08083CF
:102F500011828FEF828383831482608171818281E9
:102F600093810C94F615CF9349B144FB882780F9DF
:102F700090E041E08427817090915401891721F0FD
:102F80008093540181E001C080E096B196FB222736
:102F900020F930E091E029272170909155012917FF
:102FA00021F020935501C1E001C0C0E0C82B49F0D9
:102FB00081E080936D010E949A1A90936C01809336
:102FC0006B0180916D018823E9F020916B013091B4
:102FD0006C014FB7F8948091670190916801A091BE
:102FE0006901B0916A014FBF821B930B069750F0A5
:102FF0008091540180936501809155018093660111
:1030000010926D018C2FCF910895CF93DF930E9482
:103010008915EC018238910559F1A0F481339105AD
:1030200009F473C040F48932910509F467C08A97A6
:1030300009F472C084C08533910509F458C0C9975A
:10304000B9F07DC0833E910571F138F4803E910561
:10305000B1F0823E910511F172C0863E9105B9F141
:10306000873E9105C9F1843E910509F068C024C0EE
:103070008091560180FD5DC081FD5BC060C0809184
:10308000560180FD50C08091570180FF36C180916C
:10309000560184FD30C1C3EED0E02FC180915601AE
:1030A00082FF2BC1F4CF8091560182FD3FC08091F9
:1030B000570180FD3EC0EBCF8091570181FF1DC1BC
:1030C0008091560184FD17C1C7EED0E016C18091F2
:1030D000560183FF12C1F4CF8091560183FD2CC0AD
:1030E0008091570181FFECCFC4EED0E006C1809102
:1030F000560185FF02C1C9E2D0E0FFC080915601B0
:1031000085FFFBC0C5E3D0E0F8C08091560186FF83
:10311000F4C0CAE2D0E0F1C08091560186FFEDC054
:10312000C1E3D0E0EAC0C9E3D0E0E7C0C2EED0E03E
:10313000E4C0C0EED0E0E1C0C6EED0E0DEC0C11514
:1031400082E5D80708F066C0C11591E5D90728F0D7
:10315000DC2FCC27C16FD06AD0C0C83ED10560F546
:10316000C03ED10508F0C9C0C83AD105B0F4C53A8F
:10317000D10540F0C55AD0E0C15EDE4FC881D0E035
:10318000D064BBC0C130D10509F4B7C008F4B3C0E6
:10319000C430D10508F4AFC0B0C0CF3BD10508F0B2
:1031A000AAC0C85AD0E0CC0FDD1FCE5DDE4F09901B
:1031B000D881C02DD464A1C0C11520E5D207E0F0AC
:1031C000CE0174E0969587957A95E1F783709C2FF0
:1031D000937021E030E002C0220F331F9A95E2F78E
:1031E0003C68382BCF70C695C69580E2C89FE00139
:1031F0001124C22BD32B81C0C11580E4D80718F04D
:10320000DF70D06A7AC0CE019A9581159F4108F48B
:1032100074C071C0C11586E5D807F0F5C11595E5F4
:10322000D90750F08C2F0E9492138F71C82FD0E0D5
:10323000DC2FCC27D06261C0C11524E5D20728F06D
:10324000DC2FCC27C46FD06A58C09E01237033276F
:103250008C2F86958695C115D34578F4C1E0D0E0D2
:1032600002C0CC0FDD1F2A95E2F720E2829FC00149
:103270001124C82BD92BDC6840C0C1E0D0E002C0CB
:10328000CC0FDD1F2A95E2F720E2829FC0011124B6
:10329000C82BD92BDA6831C0C1152AE5D207E8F46A
:1032A000C11589E5D80780F08C2F8F700E9492138A
:1032B00094E0D695C7959A95E1F7CF70D0E0DC2FD2
:1032C000CC27D069C82B19C0C11598E5D90798F04B
:1032D000DC2FCC27C06FD06A10C0CE01905681156C
:1032E000904248F48D2F8F710E949213DD27D06297
:1032F0008F71D82B02C0C0E0D0E0CE01DF91CF911A
:10330000089508958091E30108959FB7F89410926D
:10331000DF019FBF90910F02943009F057C0909148
:10332000E9009F703091EC00232F217030FD20E8E0
:10333000922B25E02093E9002091EB0020FF43C071
:103340002091EE0027FF3FC02091DE01222321F0D3
:103350002091E80025FF37C01092DE0126E0309171
:10336000E80035FD15C030910F02343061F5309121
:10337000EB0035FD28C0215021F481E08093DE016F
:1033800022C0EFE9FFE03197F1F700C00000E7CF7E
:103390008093F1008091E80085FD0AC08091E800EB
:1033A00080FFFCCF8091E8008E778093E80006C014
:1033B0008FB7F89421E02093DF018FBF9F70909327
:1033C000E90080E008959F709093E9008FEF0895E1
:1033D000CF93DF9300D01F92CDB7DEB790910F024D
:1033E000943011F589837B836A839093E9008FEF92
:1033F0009091E800815095FD06C095ED9A95F1F702
:1034000000008111F5CF8091E80085FF0DC040E0FC
:1034100050E063E070E0CE0101960E94AA25809101
:10342000E8008E778093E8000F900F900F90DF9167
:10343000CF910895BC0184E00C94E819BC0183E0AD
:103440000C94E819CF93DF9320910A01222339F0DD
:103450002091560127FF03C060E224E002C068E02B
:1034600021E02093E9002FEF3091E800215035FD55
:1034700006C035ED3A95F1F700002111F5CF209106
:10348000E80025FF1DC0EC0180910A01811105C0F3
:1034900040E050E068E070E003C070E040E050E0E1
:1034A000CE010E94AA258091E8008E778093E800E3
:1034B00080E2FE01A4EEB1E001900D928A95E1F761
:1034C000DF91CF91089587E797E790930108809364
:1034D00000089AE088E10FB6F894A8958093600000
:1034E0000FBE90936000FFCF78941F920F920FB69B
:1034F0000F9211248F939F93AF93BF938091670195
:1035000090916801A0916901B0916A010196A11D95
:10351000B11D8093670190936801A0936901B093F6
:103520006A01BF91AF919F918F910F900FBE0F9045
:103530001F9018952FB7F8948091670190916801BA
:10354000A0916901B0916A012FBF08951F920F9257
:103550000FB60F9211248F939F93AF93BF938091D7
:103560005B01811113C08091670190916801A09166
:103570006901B0916A014196A11DB11D8093670157
:1035800090936801A0936901B0936A01BF91AF91D4
:103590009F918F910F900FBE0F901F9018952091C3
:1035A0000A01222351F12091560127FF26C0262F20
:1035B0002695269526952E3178F4FC01E20FF11D13
:1035C000677081E090E001C0880F6A95EAF7809506
:1035D000928189238283089580915F0180FF17C0C3
:1035E0001F926F9383E397E09F938F930E942D0820
:1035F0000F900F900F900F900895FC010696228176
:10360000621301C012823196E817F907C1F70895D5
:1036100020910A01222349F12091560127FF25C05C
:10362000262F2695269526952E3170F4FC01E20F63
:10363000F11D677081E090E001C0880F6A95EAF79C
:103640009281892B8283089580915F0180FF25C03C
:103650001F926F9385E197E09F938F930E942D08AF
:103660000F900F900F900F900895FC0132962FEF5E
:1036700030E04191641789F02F3F19F4411101C0E6
:10368000232F3F5F3630A9F72F3F39F0FC01E20FBF
:10369000F11D27FDFA95628308950895CF9384E084
:1036A00090E00E94AE29C82F81E290E00E94AE29EE
:1036B0002C2F30E0A901582BCA01CF9108956CEE50
:1036C0007EEF80E090E00E94E02960E082E090E000
:1036D0000E94C22960E083E090E00E94C22910921B
:1036E000D9011092DA011092DB011092DC0160E046
:1036F00084E090E00E94C22960E081E290E00E94B4
:10370000C22960E085E090E00E94C22960E086E086
:1037100090E00E94C2296FEF87E090E00E94C229EA
:1037200040E050E0BA0188E090E00E94D42960E0D7
:103730008DE090E00E94C22940E050E0BA0188E1AB
:1037400090E00E94D42960E087E190E00E94C229C5
:1037500040E050E0BA018CE190E00E94D42960E0A2
:1037600080E290E00E94C22940E050E0BA018FE080
:1037700090E00E94D42940E050E0BA0183E190E05B
:103780000C94D4298295982F937344E0949F9001D0
:1037900011248C7C86958695282B822F8575880F21
:1037A0002A7A2695822B08958091D8018111109252
:1037B000D8010895EF92FF920F931F93CF939091AA
:1037C000D7018091D601892B2091D501982F922B7A
:1037D000909377018091D8018823D9F0892B809329
:1037E000770180910A01882331F08091560187FF8B
:1037F00002C08EE101C086E0E9E7F1E090E081508F
:1038000028F021912223D9F39F5FF9CF91110E94D3
:10381000D41BE0915901F0915A01309709F448C046
:1038200080910A01882359F08091560187FF07C0D3
:10383000809177018093780185E080937701028001
:10384000F381E02D87E791E0099580915F0182FF88
:103850002FC080FF04C083E097E00E94940707E731
:1038600011E0C8E08DEFE82E86E0F82E80915F0130
:1038700080FF0CC0F80180811F928F93FF92EF921E
:103880000E942D080F900F900F900F90C1500F5F66
:103890001F4FC111EBCF80915F0180FF09C08BEFFB
:1038A00096E0CF911F910F91FF90EF900C949407A9
:1038B000CF911F910F91FF90EF900895BF92CF92FB
:1038C000DF92EF92FF920F931F93CF93DF938C01C0
:1038D000C0901002D0901102E0901202F0901302FA
:1038E0008091D9019091DA01A091DB01B091DC01C6
:1038F000C82AD92AEA2AFB2ACFE1D0E0D701C6019B
:103900000C2E04C0B695A795979587950A94D2F783
:1039100080FD04C0219790F7B12C07C0BC2EB801E0
:103920008C2F0E9405180197A9F38B2DDF91CF9161
:103930001F910F91FF90EF90DF90CF90BF9008956F
:10394000CF93DF93EC010E945E1CBE010E9405181C
:10395000DF91CF910895890F682F669566956695DA
:10396000982F977085E0689FB001112440E050E0E7
:1039700080E0FB01E40FF51FE153FE4F208130E0B2
:10398000092E02C0369527950A94E2F72170332755
:10399000042E01C0220F0A94EAF7822B4F5F5F4F7B
:1039A0004530510531F70895890FE82FE695E695E2
:1039B000E695877051E001C0550F8A95EAF785E0DA
:1039C000E89FF0011124E153FE4F20E030E070E069
:1039D0004081CB01022E02C0969587950A94E2F7AA
:1039E0008170819584278523842781932F5F3F4FA2
:1039F0002530310569F70895609310027093110224
:103A000080931202909313020C94D4270F931F9368
:103A100041E050E060E070E004C0440F551F661FB5
:103A2000771F8A95D2F74095509560957095809153
:103A3000100290911102A0911202B09113028A011A
:103A40009B01082319232A233B23C901B8011F9195
:103A50000F910C94FC1C2091D401809582238093BB
:103A6000D401982F977079F430E0482F082E000C7D
:103A7000550B2417350739F08595859585950E9456
:103A8000061D1092D40108950F931F9341E050E05A
:103A900060E070E004C0440F551F661F771F8A95D1
:103AA000D2F78091100290911102A0911202B09170
:103AB00013028A019B01082B192B2A2B3B2BC901CE
:103AC000B8011F910F910C94FC1C6093D901709365
:103AD000DA018093DB019093DC010C94D427CF931F
:103AE000C82F1F928F9380EB9CE09F938F930E942F
:103AF0002D0881E090E0A0E0B0E0BC01CD0104C061
:103B0000660F771F881F991FCA95D2F70E94651DFF
:103B10000F900F900F900F90CF910C94E227CF93BE
:103B2000DF93482F50E0FA013597EF33F10508F0A5
:103B30006BC2E757FF4F0C94162A85EA9CE00E945F
:103B4000940782EB98E00E94940783E090E00E9443
:103B5000AE291F928F938FEA98E09F938F930E94D4
:103B60002D088DEA98E00E94940782E090E00E9480
:103B7000AE29C82F8AE998E00E9494071F92CF933C
:103B800085E998E09F938F930E942D0883E998E040
:103B90000E94940789E898E00E9494078C2F817016
:103BA0001F928F9386E898E09F938F930E942D0831
:103BB00084E898E00E9494078AE798E00E949407BE
:103BC000C1FB882780F91F928F9387E798E09F9326
:103BD0008F930E942D0885E798E00E94940789E65C
:103BE00098E00E949407C2FB882780F91F928F9368
:103BF00086E698E09F938F930E942D0884E698E0D4
:103C00000E9494078BE598E00E949407C3FBCC27A1
:103C1000C0F91F92CF9388E598E09F938F930E94FD
:103C20002D0886E598E00E9494070E944E1BEC0147
:103C300082E498E00E949407DF93CF938DE398E0AD
:103C40009F938F930E942D088BE398E00E94940726
:103C500082E298E00E9494078C2F81701F928F93CC
:103C60008FE198E09F938F930E942D088DB79EB7A8
:103C700080960FB6F8949EBF0FBE8DBF8DE198E081
:103C80000E94940786E098E00E949407C1FB882771
:103C900080F91F928F9383E098E09F938F930E9407
:103CA0002D0881E098E00E9494078FEE97E00E9433
:103CB00094078D2F81701F928F938CEE97E09F93C6
:103CC0008F930E942D088AEE97E00E94940788ED5A
:103CD00097E00E949407D695D1701F92DF9385EDEF
:103CE00097E09F938F930E942D0883ED97E00E94A9
:103CF000940781EC97E00E949407C2FB882780F923
:103D00001F928F938EEB97E09F938F930E942D08C5
:103D10008CEB97E00E9494078AEA97E00E94940750
:103D2000C3FB882780F91F928F9387EA97E09F93C0
:103D30008F930E942D0885EA97E00E9494078BE9F3
:103D400097E00E949407C4FB882780F91F928F9305
:103D500088E997E09F938F930E942D0886E997E06A
:103D60000E94940784E897E00E949407C5FB882787
:103D700080F91F928F9381E897E09F938F930E9421
:103D80002D088FE797E00E94940783E697E00E9452
:103D90009407C6FB882780F91F928F9380E697E0EF
:103DA0009F938F930E942D088DB79EB780960FB674
:103DB000F8949EBF0FBE8DBF8EE597E00E949407DA
:103DC00086E597E00E949407C7FBCC27C0F91F92B5
:103DD000CF9383E597E09F938F930E942D0881E511
:103DE00097E00E9494070F900F900F900F900AC1D8
:103DF00084E99CE00E9494070E945F1B03C182EC4F
:103E000098E0F6C080915F01817F8E7F80935F0193
:103E100084E79AE00E94940780E99CE00E9494075E
:103E200081E08093DD01EEC084E79CE00E9494076E
:103E30000E94E2279FEF24E38CE0915020408040D5
:103E4000E1F700C000000E94631A80915F01C82F53
:103E5000C095C170C0FB80F980935F01CC2319F03D
:103E600088E69CE0C0C08BE59CE00E9494078091AE
:103E70005F01897F877F80935F01C4C090915F015C
:103E800091FBCC27C0F981E0C827892FC0FB81F9BD
:103E900080935F01CC2319F08EE49CE027C080E47E
:103EA0009CE0A6C090915F0192FBCC27C0F981E015
:103EB000C827892FC0FB82F980935F01CC2319F0BA
:103EC00081E39CE013C081E29CE092C090915F018D
:103ED00093FBCC27C0F981E0C827892FC0FB83F969
:103EE00080935F01CC2351F085E19CE00E94940710
:103EF00080915F01816080935F018BC088E09CE0CE
:103F000077C081E69BE00E94940789E29BE00E94D3
:103F1000940780EF9AE00E9494078AEB9AE00E944F
:103F200094078FE89AE064C083EE9BE00E949407B8
:103F30000E949D141F928F9389EC9BE09F938F9317
:103F40000E942D0880910A011F928F9382EB9BE0C3
:103F50009F938F930E942D088091E2011F928F936F
:103F60008FE99BE09F938F930E942D0880915601CB
:103F700087FB882780F91F928F9387E89BE09F93A8
:103F80008F930E942D082FB7F8948091670190912C
:103F90006801A0916901B0916A012FBFBF93AF93EF
:103FA0009F938F9380E79BE09F938F930E942D08B0
:103FB0008DB79EB746960FB6F8949EBF0FBE8DBFC5
:103FC00021C00E94E2279091560197FBCC27C0F9AF
:103FD00081E0C827892FC0FB87F980935601CC2345
:103FE00029F08EEF9BE00E94940713C083EF9BE0C3
:103FF0000E94940707C0895303C08D5101C080E01F
:104000000E946F1DC1E005C081EF9BE00E949407F4
:10401000C0E08C2FDF91CF9108958091CE019091D7
:104020009D01891719F08F5F8770FBCF08950F935B
:104030001F93CF93DF9380919C0182958F7009F03D
:104040005DC080919901882309F458C08091CE0108
:1040500010919D016091970170919801C0919A0112
:10406000D0919B0191E06F3F09F090E0292F06E08D
:10407000811709F443C0209721F07F3F21F030E001
:1040800003C031E001C0322F90E030FD34C0089F02
:10409000F001099FF00D1124DF01A256BE4F1196C9
:1040A0003C911197371327C03C91361324C01296C8
:1040B0003C91129731111FC013964D915C9114974A
:1040C0004C1B5D0B483C5105B0F480919C018F70F6
:1040D000806180939C01ED55FE4F80818F708061DF
:1040E000808387E991E00E943608DF91CF911F918C
:1040F0000F910C940D2001968770BACFDF91CF916C
:104100001F910F9108950F931F938091100290912A
:104110001102A0911202B09113028C019D01067050
:10412000112722273327BC01CD01063011052105B7
:10413000310511F4686001C0677F1F910F910C94E5
:10414000FC1C1F93CF93DF93CDB7DEB7AA970FB6B2
:10415000F894DEBF0FBECDBFE7E0F2E08FE092E063
:104160002091F10021938E179F07D1F780910802CB
:10417000833009F462C030F4813071F0823009F488
:104180009CC0B3C08A3009F488C08B3009F46DC07C
:10419000893009F0AAC020C080910702813A09F055
:1041A000A4C08091E800877F8093E80080910B0293
:1041B00090910C02892B21F460E284EE91E003C01F
:1041C00060E080E090E070E00E9450298091E8007B
:1041D0008B778093E80089C080910702813209F0D3
:1041E00084C080910B0290910C02009719F0029705
:1041F00009F07BC08091E800877F8093E800809180
:10420000E80082FD05C080910F028111F8CF6DC0DA
:104210002091F3008091F20090E0922B029729F414
:104220008091F1008B7F813021F48091F1008093A7
:10423000E3018091E8008B7754C080910702813AB6
:1042400009F053C080910B0290910C02892B09F068
:104250004CC08091E800877F8093E8008091E8005F
:1042600080FFFCCF80910A0137C080910702813224
:10427000E1F580910B0290910C02892BB1F58091B0
:10428000E800877F8093E8000E94FC288091090263
:1042900080930A010E94E22728C0809107028132A0
:1042A00021F58091E800877F8093E8000E94FC2838
:1042B00080910A028093E20118C080910702813A3E
:1042C000A1F48091E800877F8093E8008091E80066
:1042D00080FFFCCF8091E2018093F1008091E800A3
:1042E0008E778093E8000E94FC288091E80083FF8D
:1042F000EFC18091070290910802492F50E04A30A7
:10430000510508F0E5C1FA01E853FF4F0C94162A55
:10431000803821F0823809F0DBC108C080910402A6
:1043200090910502992389F082600FC080910B0261
:104330008F70873008F0CCC18093E9008091EB004A
:1043400085FB882780F91092E9009091E800977F1B
:104350009093E8008093F1001092F1007DC1282F26
:104360002D7F09F0B5C1882319F0823061F0B0C10A
:1043700080910902813009F0ABC1933009F080E0EF
:10438000809305022EC08091090281112AC080917C
:104390000B028F702FEF280F263008F099C1809301
:1043A000E9002091EB0020FF1CC0933021F48091A4
:1043B000EB00806214C09091EB0090619093EB0051
:1043C00021E030E0A90102C0440F551F8A95E2F7B1
:1043D0004093EA001092EA008091EB00886080939D
:1043E000EB001092E9008091E800877F8093E8005D
:1043F0000E94FC286DC181116BC1109109021F77C9
:104400008091E3008078812B8093E3008091E80025
:10441000877F8093E8000E94FC288091E80080FF5D
:10442000FCCF8091E30080688093E300111102C00B
:1044300082E001C083E080930F024AC1805882303D
:1044400008F046C12091090230910A022C3D53E048
:10445000350779F583E08A838AE289834FB7F89438
:10446000DE01139620E03EE051E2E32FF0E05093AE
:104470005700E49120FF03C0E295EF703F5FEF70BB
:104480008E2F90E0EA3010F0C79601C0C0968D9351
:104490009D932F5F243149F74FBF8091E800877FBC
:1044A0008093E8006AE270E0CE0101960E945029F4
:1044B000C1C080910B0290910C02432F55274330CD
:1044C0005105B1F068F44130510509F410C1423092
:1044D000510509F0FDC08BE790E0EAEBFDE057C025
:1044E0004132510589F14232510509F43CC0F0C016
:1044F000C901992781309105B9F070F0823091059A
:10450000D9F0039709F0E4C0E7E4FEE0E4918E2FD0
:1045100090E0E7E4FEE038C0E3E7FEE0E4918E2FB0
:1045200090E0E3E7FEE030C0EFE5FEE0E4918E2F9F
:1045300090E0EFE5FEE028C0EDE4FEE0E4918E2F90
:1045400090E0EDE4FEE020C08430910508F0C0C0AA
:10455000880F991FFC01E95EFE4F0190F081E02D6C
:1045600089E090E014C08430910508F0B1C0FC01EE
:10457000EE0FFF1FE15FFE4F0190F081E02DDC01A7
:10458000A55FBE4F8C9190E0009709F4A1C02091E7
:10459000E800277F2093E80020910D0230910E0261
:1045A0008217930708F49C0140E02115310589F139
:1045B00080910F02882309F43DC08530D9F18091A4
:1045C000E80083FD37C08091E80082FD2FC0809114
:1045D000E80080FFEACF4091F3008091F20090E084
:1045E000942B2115310559F08830910540F4449100
:1045F0004093F1003196215031090196F2CF41E00C
:10460000089709F040E08091E8008E778093E800F9
:10461000CCCF4111CDCF0AC080910F02882351F039
:10462000853041F08091E80083FD04C08091E8006E
:1046300082FFF2CF8091E8008B778093E80048C03A
:10464000803809F045C08091E800877F8093E800BA
:10465000809106028093F1008091E8008E77C6CEAB
:10466000811136C08091090290910A029927029720
:104670007CF58091E800877F8093E8001091090223
:10468000109306020E94FC28111106C08091E300DD
:1046900087FD02C081E001C084E080930F0242E008
:1046A00061EC81E00E941B2942E261EC84E00E94FF
:1046B0001B2942E261EC82E00E941B2942E260EC8D
:1046C00083E00E941B2942E261EC85E00E941B29E5
:1046D0008091E80083FF10C08091E800877F80937D
:1046E000E8008091EB0080628093EB0005C082E1DE
:1046F00090E0E5E3FEE04BCFAA960FB6F894DEBF5C
:104700000FBECDBFDF91CF911F9108951F920F92E1
:104710000FB60F9211242F933F934F935F936F9394
:104720007F938F939F93AF93BF93CF93DF93EF9339
:10473000FF93C091E900CF708091EC00D82FD17029
:1047400080FDD0E81092E9008091F000877F80938F
:10475000F00078940E94A1201092E9008091F0006E
:1047600088608093F000CD2BCF70C093E900FF915B
:10477000EF91DF91CF91BF91AF919F918F917F91F9
:104780006F915F914F913F912F910F900FBE0F90BE
:104790001F901895E8EDF0E080818E7F8083109265
:1047A000E2001092DA001092E100A0EEB0E08C91ED
:1047B00081608C9380818F77808319BCA7EDB0E0F6
:1047C0008C918E7F8C9380818F7E80831092E1010B
:1047D0000895CF92DF92EF92FF920F931F93CF93A2
:1047E000DF93C8EDD0E088818F7E8883E7EDF0E02D
:1047F00080818160808384E082BF81E08093E101D9
:1048000088818E7F888302EE10E0F801108210927A
:10481000DA0081EEC82ED12CF601108288818F77C4
:10482000888388818068888388818F7D888319BC8C
:1048300010920F02109206021092050210920402CA
:1048400090EEE92EF12CF70180818B7F80838881A7
:104850008160888342E060E080E00E941B29F601CD
:1048600080818E7F8083F801808181608083808158
:1048700088608083F70180818E7F8083888180615A
:104880008883DF91CF911F910F91FF90EF90DF9080
:10489000CF9008951F920F920FB60F9211242F936D
:1048A0003F934F935F936F937F938F939F93AF93B8
:1048B000BF93EF93FF938091E10082FF49C0809105
:1048C000E20082FF45C08091E1008B7F8093E10090
:1048D0002091E0012F5F822F62E30E94F629992345
:1048E00019F02093E00134C01092E0018091DF01C3
:1048F000882371F180910F02843041F58091E900A5
:104900008F702091EC00922F917020FD90E8892B00
:1049100095E09093E9009091EB0090FF14C0909186
:10492000EE0097FF10C09091E80095FF03C0109231
:10493000F100F9CF9091E80090FF05C09091E80058
:104940009E779093E8008F708093E9001092DF01CA
:104950008091DA0080FF32C08091D80080FF2EC0A5
:104960008091DA008E7F8093DA008091D90080FFF9
:104970001CC080E189BD82E189BD09B400FEFDCF84
:1049800081E080930F0286EA9DE00E949407809167
:10499000E101811113C00E94CA230E94E923809182
:1049A000E20084608093E20009C019BC10920F02FB
:1049B0008AEA9DE00E9494071092E1018091E10053
:1049C00080FF1BC08091E20080FF17C08091E20051
:1049D0008E7F8093E2008091E20080618093E2000C
:1049E0008091D80080628093D80019BC85E08093C4
:1049F0000F028EEA9DE00E9494078091E10084FFFF
:104A000036C08091E20084FF32C080E189BD82E13E
:104A100089BD09B400FEFDCF8091D8008F7D8093C1
:104A2000D8008091E1008F7E8093E1008091E200C8
:104A30008F7E8093E2008091E20081608093E200AB
:104A400080910602882311F084E007C08091E30082
:104A500087FD02C081E001C083E080930F0282EBFA
:104A60009DE00E9494070E94E2270E949D1480917D
:104A7000E10083FF2BC08091E20083FF27C080917B
:104A8000E100877F8093E10082E080930F02109223
:104A900006028091E1008E7F8093E1008091E20028
:104AA0008E7F8093E2008091E20080618093E2003B
:104AB00042E060E080E00E941B298091F000886065
:104AC0008093F00086EB9DE00E949407FF91EF91A8
:104AD000BF91AF919F918F917F916F915F914F9116
:104AE0003F912F910F900FBE0F901F90189520911E
:104AF000E4003091E50095E64091EC00842F817050
:104B000040FF23C08091E80080FD1DC080910F020E
:104B1000882399F0853099F08091EB0085FD11C0D4
:104B20004091E4005091E5002417350729F3915096
:104B300011F09A01E1CF84E0089582E0089583E0C6
:104B4000089581E0089580E008954091E80042FFD3
:104B5000DDCF0895EF92FF920F931F93CF93DF93D2
:104B60007C018B010E947725811119C0E701011595
:104B70001105A1F08091E80085FD0AC08091E80050
:104B80008E778093E8000E947725882381F307C001
:104B900089918093F10001501109E9CF80E0DF9104
:104BA000CF911F910F91FF90EF900895CF93209197
:104BB0000F022430F9F4C091E900CF703091EC007D
:104BC000232F217030FD20E8C22B22E02093E90042
:104BD0002091E80020FF0BC040E050E060E270E070
:104BE0000E94AA258091E8008E778093E800CF701C
:104BF000C093E900CF9108950E94A01C292F2F7027
:104C0000E92FE295EF704E2F50E0FA013297EE3027
:104C1000F105B8F4EE52FF4F0C94162A803F99F03C
:104C200018F4883E70F40FC0843F59F40CC0883EDD
:104C300050F0813F31F407C0822F86958695869586
:104C4000089580E0089581E008959F92AF92BF9209
:104C5000CF92DF92EF92FF920F931F93CF93DF9348
:104C6000CDB7DEB761970FB6F894DEBF0FBECDBFEC
:104C70008C0185E0F801DE011D9601900D928A9568
:104C8000E1F7F80190818181E28030919701609194
:104C9000980140919A0150919B014115510531F0C5
:104CA0006F3F31F421E03F3F19F403C021E001C020
:104CB00020E0F22FF1709F2E20FD23C1F801C38068
:104CC000D48027E9A22E21E0B22EF0909901F601BE
:104CD000E41BF50BFF2009F4CEC020919C01E83CB9
:104CE000F10508F099C0422F407F09F051C06813C8
:104CF00011C039130FC0FE2CE1100CC02F702061C1
:104D000020939C01C5010E94360880919C01F80106
:104D1000858337C1CD2831F08F3F31F421E09F3FAB
:104D200019F403C021E001C020E020FD03C021E010
:104D30002E2502C020E030E0F22FF170FF2E20FF80
:104D40001DC02091CE0140919D0156E0241709F429
:104D5000F6C030E0529FF001539FF00D1124E2564F
:104D6000FE4F6181861306C06081961303C0628185
:104D7000E61204C02F5F3F4F2770E8CFFE2CEE20D5
:104D800009F4FFC080919C01816080939C0150C018
:104D9000681307C0391305C0E11003C0F80125836B
:104DA0008DC09D878E878D859E850E94FC258823DA
:104DB00069F1EE2059F120919C01822F82958F702C
:104DC00090E0029774F080919701909198019887F4
:104DD0008F831986DB86CA862C87CE0107960E94B0
:104DE000360886E0F801A7E9B1E001900D928A95B6
:104DF000E1F70E9417200DC06817E1F09D878E87AC
:104E00008D859E850E94FC2581111EC0C8010E94CF
:104E10003608FF24F394B5C0422F407F69F787E935
:104E200091E00E94360886E0F50111928A95E9F733
:104E3000F12CA7C03913E2CFE110E0CFF8012583B0
:104E4000C8010E94360857C0EE2001F320919C0152
:104E5000822F82958F7090E002971CF280919701CB
:104E6000909198019A8389831B82DD82CC822E8364
:104E7000CE010196B4CFE83CF105E8F5FE2CEE201A
:104E800029F2681327C0391325C020919C0120FD09
:104E900018C0822F82958F70482F50E04115510520
:104EA00081F0F80125834F30510541F08F5F982F35
:104EB0009295907F822F8F70892B8583C8010E94E5
:104EC000360886E0F801A7E9B1E001900D928A95D5
:104ED000E1F757C09D878E878D859E850E94FC25B2
:104EE00081117FCF80919C01816080939C01C801DA
:104EF0000E94360846C086E0F50111928A95E9F7CE
:104F000040C0EE2009F482CF9D878E878D859E85D7
:104F10000E94FC25F82E882309F478CF86E0F8015A
:104F2000A7E9B1E001900D928A95E1F78091970190
:104F3000909198010E94A01C0E94172022C09D877A
:104F40008E878D859E850E94A01C292F22952F700B
:104F5000223028F49F7039F0811105C00BC0243035
:104F600028F49F7049F4805E883020F0C8010E94C8
:104F700036089F2CF92C05C0F8019581907F99F790
:104F8000F9CF8F2D61960FB6F894DEBF0FBECDBF5F
:104F9000DF91CF911F910F91FF90EF90DF90CF9015
:104FA000BF90AF909F9008951092D6011092D501B6
:104FB0000E94DA1B80E090E00E94871480E090E07D
:104FC0000C9471141092D70180910A01882331F05A
:104FD0008091560187FF02C08EE101C086E0E9E7BB
:104FE000F1E0DF011D928A95E9F70C94D42788231C
:104FF00041F080959091D70189238093D7010C943B
:10500000DA1B0895882339F09091D701892B80937A
:10501000D7010C94DA1B0895882379F19CEF980F3F
:10502000913A30F4682F87E791E00E94CF1A14C0BC
:1050300090E2980F983090F4877021E030E0A90159
:1050400002C0440F551F8A95E2F7CA0180959091DE
:10505000D70189238093D7010C94DA1B9BE5980F25
:10506000933020F480E090E00C948714885A8731C4
:1050700020F480E090E00C9471140895CF93C82F31
:105080000E945128C93349F42FEF87EE93E0215055
:1050900080409040E1F700C000008C2FCF910C942D
:1050A0000C28CF93882309F4A5C09CEF980F913A60
:1050B000B0F5C82F8091DD01882319F0813051F0BF
:1050C0002BC08091D701823209F05CC08C2F0E94E6
:1050D0008F1D56C08091D7018232C1F3C43191F047
:1050E00018F4CB3029F011C0C93261F0C83369F42B
:1050F00084E79AE00E94940789E79EE00E94940763
:1051000081E008C01092DD0104C087E79EE00E94A4
:10511000940780E0817034C01092DD0133C090E2CA
:10512000980F983090F4877021E030E0A90102C018
:10513000440F551F8A95E2F7CA019091D701892B38
:105140008093D701CF910C94DA1BEBE5E80FE330A5
:1051500040F4F0E0E15EFE4F808190E0CF910C944E
:105160008714885A873108F045C0E82FF0E0EE0F29
:10517000FF1FEE5DFE4F80819181CF910C947114E1
:10518000811138C080910A018823E1F08091560195
:1051900087FF18C0EC2FE695E695E695F0E0E95814
:1051A000FE4F8281282F30E04C2F477081E090E045
:1051B00002C0880F991F4A95E2F782239323892B17
:1051C00061F412C0E9E7F1E08FE791E02191C217A5
:1051D00021F08E179F07D1F707C06C2F87E791E06A
:1051E0000E94CF1A0E94DA1B6C2F87E791E00E9481
:1051F000081BA8CFCF9108958091070287FF11C0A7
:105200008091E80082FD05C080910F028111F8CFE6
:1052100011C08091E8008B770BC080910F0288232A
:1052200049F08091E80080FFF8CF8091E8008E7708
:105230008093E8000895982F973068F59093E900DF
:10524000981739F07091EC002091ED005091F0002A
:1052500003C0242F762F50E021FD02C09F5FECCFCA
:105260003091EB003E7F3093EB003091ED003D7FBD
:105270003093ED003091EB0031603093EB00709390
:10528000EC002093ED005093F0002091EE0027FDFC
:10529000E5CF80E008958F708093E90081E0089564
:1052A00020910D0230910E022617370748F0611544
:1052B000710539F42091E8002E772093E80001C0B1
:1052C000B901FC0120E06115710579F180910F02AF
:1052D0008823F1F18530F1F18091E80083FD3CC035
:1052E0008091E80082FD2EC08091E80080FFEBCF26
:1052F0002091F3008091F20090E0922B61157105EE
:1053000051F08830910538F421912093F1006150DB
:1053100071090196F3CF21E0089709F020E0809110
:10532000E8008E778093E800CECF2111CFCF0AC05E
:1053300080910F02882361F0853061F08091E80050
:1053400083FD0AC08091E80082FFF2CF80E00895DB
:1053500082E0089583E0089581E00895F999FECFF1
:1053600092BD81BDF89A992780B50895A6E1B0E075
:1053700044E050E00C94E829A8E1B0E042E050E0BD
:105380000C94E829262FF999FECF92BD81BDF89A99
:10539000019700B4021639F01FBA20BD0FB6F89479
:1053A000FA9AF99A0FBE08950396272F0E94C329EF
:1053B0000E94C229252F0E94C329242F0C94C3299F
:1053C0000196272F0E94C3290C94C229DC01CB012E
:1053D000FC01F999FECF06C0F2BDE1BDF89A319605
:1053E00000B40D9241505040B8F70895991B79E0F0
:1053F00004C0991F961708F0961B881F7A95C9F765
:1054000080950895AA1BBB1B51E107C0AA1FBB1FB3
:10541000A617B70710F0A61BB70B881F991F5A9540
:10542000A9F780959095BC01CD010895EE0FFF1F5F
:105430000590F491E02D099469279627692778272C
:0A544000872778270895F894FFCF1E
:10544A008219221A81191E1A1A1A0140226D22661D
:10545A000D440DD70CB50CCC0DE50D050E1E0E81B5
:10546A008283E200E900EA00B500B600B700CD0089
:10547A008301CC008A0192019401210223022402B1
:10548A002502260227022A02B300B4006F00700028
:00000001FF
