:100000000C9459030C94A0030C94A0030C94A0032B
:100010000C94A0030C94A0030C94A0030C94A003D4
:100020000C94A0030C94A0030C94F7280C94C929F9
:100030000C9461230C94A0030C94A0030C94A003D3
:100040000C94A0030C94A0030C94A0030C94A003A4
:100050000C94A0030C94BA230C94A0030C94A0035A
:100060000C94A0030C94A0030C94A0030C94A00384
:100070000C94A0030C94A0030C94A0030C94A00374
:100080000C94A0030C94A0030C94A0030C94A00364
:100090000C94A0030C94A0030C94A0030C94A00354
:1000A0000C94A0030C94A0030C94A0030210051060
:1000B0000D10121017101C10211026102B103010CC
:1000C00035103A103C103F104210451048104B10AC
:1000D0004D1052108C118F11AF11C011C811D311D6
:1000E000D611D911DC1122122512DF11E211E7110C
:1000F000F4110112041208121512DA18DA180C1988
:100100000C1959198D1A8D1A8D1A77190C1A1D1A76
:100110001D1A7D1A8D1A8D1A861A291B291B3B1B45
:100120003B1B321B3B1B3B1B3B1B291B291B371B50
:100130003B1B3B1B371B362A5D2A552B5D2A552B53
:10014000A92ACC2A552B232B322B1E001F0020005E
:10015000210022002300240025002600270014008F
:100160001A000800150017001C0018000C001200EF
:10017000130004001600070009000A000B000D0020
:100180000E000F0033001D001B00060019000500C3
:100190001100100036003700280000000151000057
:1001A00000000000E1002C000000C45C00002942B7
:1001B00001000100010001000100010001002D000B
:1001C0002A002B00010001000100010001000100D4
:1001D00001002D023100E1000100010001000100D9
:1001E000010001002F003000340001000100010077
:1001F000010001000100005C01000100010000009D
:100200000100000000000000E20001000000E0002A
:10021000000001003A003B003C0001000100010029
:1002200024002500260001003D003E003F000100A3
:1002300001000100210022002300010040004100D4
:1002400042000100010001001E001F00200001000B
:1002500043004400450001000100010001002700A7
:10026000010000000100000000000000010001008A
:1002700000000100000000000000000000002A2B28
:100280002800000000000000000000000000000046
:100290000029000000002C1E3420212224342627AF
:1002A000252E362D3738271E1F20212223242526D0
:1002B0003333362E37381F0405060708090A0B0C9E
:1002C0000D0E0F101112131415161718191A1B1CE6
:1002D0001D2F3130232D350405060708090A0B0CA4
:1002E0000D0E0F101112131415161718191A1B1CC6
:1002F0001D2F3130354C00000000000000000000D0
:10030000000000000000000000007E0F00D4FFFF8E
:10031000FFC70000007832190A00047F3F1F6432D3
:1003200014643214783C1E1E140A05222325262844
:10033000292A2C2D2F3032333536383A3B3D3E407A
:1003400042434547494A4C4E5051535557595A5CC0
:100350005E6062646668696B6D6F71737577797BD7
:100360007D7F81838587898A8C8E90929496989AD6
:100370009C9E9FA1A3A5A7A8AAACAEAFB1B3B4B6EB
:10038000B8B9BBBCBEBFC1C2C3C5C6C7C9CACBCC46
:10039000CDCED0D1D2D2D3D4D5D6D7D7D8D9D9DA19
:1003A000DADBDBDBDCDCDCDCDCDDDDDDDDDCDCDC8E
:1003B000DCDCDBDBDBDADAD9D9D8D7D7D6D5D4D3B6
:1003C000D2D2D1D0CECDCCCBCAC9C7C6C5C3C2C18B
:1003D000BFBEBCBBB9B8B6B4B3B1AFAEACAAA8A7E8
:1003E000A5A3A19F9E9C9A98969492908E8C8A89A0
:1003F000878583817F7D7B79777573716F6D6B697D
:1004000068666462605E5C5A5957555351504E4C51
:100410004A4947454342403E3D3B3A383635333200
:10042000302F2D2C2A292826252322FFAA7F55404C
:1004300000010101010101010101020202020202A7
:10044000020202030303030303030304040404047A
:100450000404050505050506060606060707070741
:100460000708080808090909090A0A0A0B0B0B0CF6
:100470000C0C0D0D0D0E0E0E0F0F0F101011111193
:100480001212131314141515161617171818191914
:100490001A1A1B1B1C1D1D1E1E1F20202122222379
:1004A0002424252626272829292A2B2C2D2D2E2FBA
:1004B00030313232333435363738393A3B3C3D3ED1
:1004C0003F404142434445464748494A4C4D4E4FC0
:1004D00050515354555658595A5B5D5E5F61626482
:1004E000656668696B6C6D6F7072737577787A7B0F
:1004F0007D7E8082838587888A8C8E8F9193959666
:10050000989A9C9EA0A2A3A5A7A9ABADAFB1B3B585
:10051000B7BABCBEC0C2C4C6C9CBCDCFD1D4D6D861
:10052000DBDDDFE2E4E7E9EBEEF0F3F5F8FAFDFFFF
:100530000403300000002003540068006500200020
:100540004C006900740074006C00650020004600D7
:100550006F006F007400000018034B0069006E000C
:1005600067006C0079002D004B0065007900730076
:1005700000000403090409025B00030100A0FA095A
:1005800004000001030101000921110100012240C2
:10059000000705810308000A0904010002030000A6
:1005A0000009211101000122220007058203200019
:1005B00001070503032000010904020001030000F4
:1005C00000092111010001226D00070584032000AC
:1005D0000A1201100100000008EDFE606001000138
:1005E0000203010660FF0961A1010962150026FFEF
:1005F000009520750881020963150026FF009520EB
:1006000075089102C005010980A101850319012A1D
:10061000B700150126B700950175108100C0050CC3
:100620000901A101850419012AA002150126A002D1
:10063000950175108100C005010906A10185050518
:100640000719E029E71500250195087501810205C4
:1006500007190029EF1500250195F07501810205A4
:1006600008190129059505750191029501750391F8
:1006700001C005010906A101050719E029E71500D8
:10068000250195087501810295017508810105070D
:10069000190029FF150026FF009506750881000541
:1006A00008190129059505750191029501750391B8
:1006B00001C011241FBECFEFDAE0DEBFCDBF04B60C
:1006C00003FE27C080911D0390911E03A0911F037C
:1006D000B09120038730904BA740B04BD1F41092DB
:1006E0001D0310921E0310921F031092200314BECC
:1006F00084B7877F84BF0FB6F894A8958091600077
:10070000886180936000109260000FBEE0E0F8E323
:10071000099511E0A0E0B1E0EAEFF9E502C005902B
:100720000D92A03DB107D9F723E0A0EDB1E001C0E3
:100730001D92AD31B207E1F70E94B8250C94FB2C55
:100740000C94000081E0089581E008950C94A403C6
:1007500008950C94A8031F93CF93DF9300D000D08B
:100760001F92CDB7DEB749835A836B83309126023F
:1007700089819A81311114C0662359F0222349F0EE
:100780000E946520182F682F89819A810E940E206F
:1007900003C00E943920182F69817A81812F04C0FB
:1007A0000E94652069817A810F900F900F900F90C1
:1007B0000F90DF91CF911F910C940613FC01262F0F
:1007C000408151816281738184810C94AB03CF930A
:1007D000DF93EC0160E00E94DE03BE01DF91CF9168
:1007E0000C94A903FF920F931F93CF93DF93E82FED
:1007F000F0E0EA58FD4FF490C82FC695C695C6950F
:10080000D0E0FE01EA5FFC4F0491877010E0082EF3
:1008100002C0159507950A94E2F701701127FE01B1
:10082000EA50FD4FC491D0E002C0D595C7958A9596
:10083000E2F7C170DD270115110519F081EE0E9464
:100840008217209719F086EE0E9482178F2D0E9442
:100850008318CD2B19F086EE0E942418012B41F04D
:1008600081EEDF91CF911F910F91FF900C9424188E
:10087000DF91CF911F910F91FF900895EF92FF921A
:100880000F931F93CF93DF93EC01162F0AE088811B
:10089000882309F455C0813009F043C08981813033
:1008A00041F47E0182E0E80EF11C8A810E948318E7
:1008B00009C0823049F47E01E2E0EE0EF11C8A812B
:1008C0000E948217E7012FC0833041F47E01F2E0DD
:1008D000EF0EF11C8A810E942418F4CF843011F0AD
:1008E000219621C02A81229680E090E030E02053BA
:1008F00031092A30310558F4089FA001099F500D95
:100900001124C901840F951F21962881EFCF0097EC
:1009100051F0EFE9FFE03197F1F700C000000197D7
:10092000F6CF0E94F2032196812F882309F4AFCFDE
:10093000EFE9FFE03197F1F700C000008150F5CFFB
:10094000DF91CF911F910F91FF90EF90089560E09C
:100950000C943E048F929F92AF92BF92CF92DF92FF
:10096000EF92FF920F931F936B017C0181E090E067
:10097000A0E0B0E04C015D0104C0880C991CAA1CE9
:10098000BB1C4A95D2F7AC01BD0104C0440F551FF2
:10099000661F771F2A95D2F7482959296A297B298A
:1009A00004C0880F991FAA1FBB1F0A95D2F78A019E
:1009B0009B010C211D212E213F2140175107620769
:1009C000730739F4BC01CD016C297D298E299F293B
:1009D0000AC080959095A095B095BC01CD016C2181
:1009E0007D218E219F211F910F91FF90EF90DF902D
:1009F000CF90BF90AF909F908F9008950F93382F16
:100A0000262F6091820270918302809184029091DE
:100A10008502042F432F0E94AA040F910C944A1FB1
:100A20000E94F3230E949D21811102C00E94442252
:100A30000C948F070C948B0708950E94171B0E943B
:100A40001C052FEF84E39CE0215080409040E1F7AB
:100A500000C000000C94E0230F931F93CF93DF930B
:100A6000EC0161E00E94DE038C01BE010E94E410F3
:100A70008823A9F1BE01C8010E94A603882379F149
:100A8000BE01C8010E946014882349F1BE01C8015B
:100A90000E94B214882319F1BE01C8010E94DD151D
:100AA0008823E9F0BE01C8010E94EB0F8823B9F04A
:100AB0008A81882369F001158CE5180731F00F3D14
:100AC0001C4531F40E9444220AC00E941D0507C043
:100AD000CE01DF91CF911F910F910C94A20380E082
:100AE000DF91CF911F910F91089508950C94750592
:100AF00081E008950C947805CF93C82F0E94760565
:100B00008C2F0E947A05CF91089580E090E008959F
:100B10000895880F991FFC01EA5EFC4F859194911E
:100B20000895CF93DF930E9406130E94A306EC0161
:100B30008115904508F043C0C11580E4D80708F03E
:100B4000CBC0C03ED10528F5C03CD10508F0B3C0EC
:100B5000C83AD10578F4C53AD10508F0A4C0C1302F
:100B6000D10509F4ECC008F4E8C0C430D10508F0A0
:100B7000E6C0E3C0CF3BD10508F0DFC0C85AD0E0E3
:100B8000CC0FDD1FCC5DDE4F0990D881C02DD46421
:100B9000D6C0C11590E2D90750F4C11521E0D207A3
:100BA00008F0CDC0C83ED10508F4C9C0C6C0C11503
:100BB00080E3D80708F086C0CE019F707FC0C115C2
:100BC00095E5D90708F043C0C11524E5D20708F020
:100BD0009AC0C11582E5D80708F5C11591E5D90776
:100BE00008F07DC0CE0174E0969587957A95E1F77F
:100BF00083709C2F937021E030E002C0220F331FDE
:100C00009A95E2F73C68382BCF70C695C69580E27E
:100C1000C89FE0011124C22BD32B91C09E012370E9
:100C200033278C2F86958695C115D34508F05CC077
:100C3000C1E0D0E002C0CC0FDD1F2A95E2F720E230
:100C4000829FC0011124C82BD92BDC6878C0C11544
:100C500029E5D207A0F4C11588E5D80708F058C0E7
:100C6000C11596E5D90708F068C08C2F0E94370798
:100C70008F71C82FD0E0DC2FCC27D06260C0C115A7
:100C80002AE5D20708F449C0CE019056811590425A
:100C900008F053C08D2F8F710E943707DD27D06277
:100CA0008F71D82B4CC0C55AD0E0CE5ADE4FC881C8
:100CB000D0E0D06444C0CE01805C91090E948905D7
:100CC000EC013DC0CE019927D3FF03C0EC01D86CE5
:100CD00036C0EC01D06C33C0DF70D06A30C0DC2F7E
:100CE000CC27C16FD06A2BC0C1E0D0E002C0CC0FCE
:100CF000DD1F2A95E2F720E2829FC0011124C82B54
:100D0000D92BDA681CC0DC2FCC27C46FD06A17C07F
:100D1000DC2FCC27C06FD06A12C08C2F8F700E943E
:100D2000370794E0D695C7959A95E1F7CF70D0E054
:100D3000DC2FCC27D069C82B02C0C0E0D0E0CE01A8
:100D4000DF91CF9108958238910569F1B0F4813334
:100D5000910509F46DC048F48932910509F463C026
:100D60008A32910509F469C008958533910509F423
:100D700055C089339105B9F00895833E910569F115
:100D800038F4803E9105B1F0823E910509F1089555
:100D9000863E9105A9F1873E9105B9F1843E910502
:100DA00009F064C023C020910E0320FD4FC021FD37
:100DB0004DC0089580910E0380FD44C080910F03C3
:100DC00080FF44C080910E0384FD42C083EE4DC07D
:100DD00080910E0382FF38C0F5CF80910E0382FD13
:100DE00033C080910F0380FD31C0ECCF80910F03A1
:100DF00081FF32C080910E0384FD2AC087EE35C08A
:100E000080910E0383FF26C0F5CF80910E0383FDF2
:100E100021C080910F0381FD1FC0ECCF80910E0394
:100E200085FD1CC01DC080910E0385FD19C016C034
:100E300080910E0386FD16C017C080910E0386FDBB
:100E400013C010C089E311C082EE0FC080EE0DC048
:100E500080E00BC086EE09C084EE07C089E205C0C1
:100E600085E303C08AE201C081E390E00895909198
:100E70000E0392FF0DC0282F2871283019F4877FA8
:100E8000846006C0282F2471243011F48B7F886081
:100E900093FF0DC0282F2871283119F4877E8461B3
:100EA00006C0282F2471243111F48B7E8861209193
:100EB0000F0320FF0DC0382F3871383019F4877FA9
:100EC000816006C0382F3171313011F48E7F886017
:100ED00021FF0DC0282F2871283119F4877E8161E8
:100EE00006C0282F2171213111F48E7E886194FD76
:100EF000877E0895E82FF0E0EE0FFF1FE352FD4FCD
:100F0000808191810895089580EA8A95F1F7089586
:100F100008950C9488070C9489070C9488070C9406
:100F20008D07F894E82FE295EF70F0E031A1282FBB
:100F30002F7081E090E001C0880F2A95EAF7982F82
:100F40009095932391A392A1892B82A378940895DD
:100F50000F931F93CF93DF9386EF0E94910786E351
:100F60000E94910782E30E94910783E30E94910708
:100F700081E30E949107C5E5D1E00FE511E0899179
:100F80000E9491070C171D07D1F7E3EDF2E0ADEDDC
:100F9000B2E0119211921D921D9282E0ED3DF80790
:100FA000C1F785E00E946608DF91CF911F910F91F4
:100FB0000C9410057F928F929F92AF92BF92CF9226
:100FC000DF92EF92FF920F931F93CF93DF93CFE5C2
:100FD000D1E083EDA82E82E0B82E9DEDE92E92E0BF
:100FE000F92E712C01E010E06E018881F894E82F51
:100FF000E295EF70F0E021A18F70A80102C0440FCC
:10100000551F8A95E2F7CA01922F982B91A392A1BE
:101010008095892382A378940E948407E5E5F1E016
:1010200020E030E0812C912C4191A42FA295AF704B
:10103000B0E090968C9190E04F7002C095958795A6
:101040004A95E2F780FD08C0C801022E02C0880F51
:10105000991F0A94E2F702C080E090E0882A992A5A
:101060002F5F3F4F2A303105F9F62196F601808136
:101070000E949107F501808191818816990621F0DF
:101080009182808281E001C080E0782AF2E0AF0E98
:10109000B11CEA14FB0409F0A7CF272D45E06DED44
:1010A00072E083ED92E00E9467080E941A05872D86
:1010B000DF91CF911F910F91FF90EF90DF90CF9034
:1010C000BF90AF909F908F907F9008950895FF926A
:1010D0000F931F93CF93DF93F82E092F162FD72F3F
:1010E000C42F222349F081E08093D2010E949323F0
:1010F0009093D1018093D0018091D2018823D9F0BF
:101100008091D0019091D1010E94AB23069798F075
:10111000EF2DF02FA12FBD2F80E090E04C2F50E05D
:101120008417950734F4219131912D933D930196C5
:10113000F7CF1092D201DF91CF911F910F91FF90C5
:101140000895EF92FF920F931F93CF93DF938B013C
:10115000682F11110AC0442329F0E82FF0E0E05D68
:10116000FB4F6491762F862F75C0212F30E0E82F3A
:10117000F0E0442321F0E05DFB4FE491F0E046E035
:10118000049FC0011124CFEFD0E0BE010E94A32B29
:101190004BEA4603C001479F900D1124800F911D1B
:1011A000800F911D982F990F890FAE01421B530B91
:1011B0004E9FD0014F9FB00D5E9FB00D11249B2F0D
:1011C000189FA0011124452F55278E01041B150BD4
:1011D0000E9FA0010F9F500D1E9F500D11247E01E8
:1011E000E81AF108E29E8001E39E100DF29E100DB8
:1011F0001124212F3327C21BD30BCE9F9001CF9FE9
:10120000300DDE9F300D112462307105A9F048F4D5
:101210006115710569F061307105C9F48B2F752F67
:101220000DC06430710581F058F06630710579F4B5
:101230007E2F8B2F932F0DC0832F7B2F9E2F09C0C6
:101240008E2F7B2F952F05C08E2F732F02C07E2FE0
:10125000852F692FDF91CF911F910F91FF90EF9014
:10126000089541E00E94A108089508950E9431095F
:101270000895CF93DF93762FE901682F842F0E9482
:101280003609798368838A83DF91CF9108958091AD
:10129000E702282F269530E02115310519F48170D9
:1012A000826005C02B32310524F081708465809303
:1012B000E702089588E090E00C949C2CCF92DF9296
:1012C000EF92FF926B017C010E944709B701A601D2
:1012D00088E090E0FF90EF90DF90CF900C94BA2CD4
:1012E0006091E7027091E8028091E9029091EA0230
:1012F0000C945E09E7EEF2E083E0808311828FEFC9
:1013000082838383148260817181828193810C94B2
:101310005E098091E70280FF02C08695089580E013
:1013200008959091EB02933018F49F5F9093EB0235
:10133000882351F06091E7027091E8028091E90200
:101340009091EA020C945E09089581E00C94910951
:101350009091EB02992319F091509093EB0288231E
:1013600051F06091E7027091E8028091E90290915A
:10137000EA020C945E09089581E00C94A80980911A
:10138000EB0208958093EB02662351F06091E7022F
:101390007091E8028091E9029091EA020C945E0952
:1013A000089560E00C94C2098091E802089580914C
:1013B000E90208958091EA02089570E00C945C10AF
:1013C000609108018091E70280FF0AC080910701C7
:1013D00023E0829FC001112484519D4F0C94DD09AC
:1013E0008091090190910A01891780F7E82FF0E0B8
:1013F0009F01220F331FE20FF31FE451FD4F1182B3
:10140000108212828F5FF0CF9091E70290FF16C09A
:101410009091090120910A01921770F4E92FF0E0F0
:10142000DF01AA0FBB1FEA0FFB1FE451FD4F8183B1
:10143000608342839F5FF0CF0C94E0090895CF93BF
:10144000DF9300D01F92CDB7DEB79091E70290FFF7
:101450000AC09E012F5F3F4F0E9439094B8169816D
:101460008A810E94040A0F900F900F90DF91CF9114
:101470000895CF93DF93EC01EC81F0E0E55DFC4F44
:101480004491E7EEF2E0628181810E941F0A8C8123
:101490008F5F8C83DF91CF910895CF93DF93EC0121
:1014A000E7EEF2E0438162818C810E941F0A8C8109
:1014B0008F5F8C83DF91CF9108950F931F93CF930C
:1014C000DF9300D01F92CDB7DEB78C018091D3019E
:1014D00081110AC09E012F5F3F4F4FEF6FEF0E94B7
:1014E00039098A818093D301F8018481813051F0D8
:1014F00028F0823061F44091D3010AC08091D30179
:1015000040E007C06091D30140E080E003C040E0CC
:1015100080E060E00E94040AF801848190E0019676
:1015200063E070E00E94B72B84830F900F900F90C0
:10153000DF91CF911F910F910895AF92BF92CF92FB
:10154000DF92EF92FF920F931F93CF93DF9300D020
:101550001F92CDB7DEB7182FF62E042FE22E9091F2
:10156000E70290FF6DC0E92FE695AE2FB0E0AC59D1
:10157000BE4F8C9180930F029E7F923061F49E014A
:101580002F5F3F4F812F0E9439094B8169818A81EA
:101590000E94040A43C0823019F40091EA023EC05E
:1015A000863019F41091E80239C08930D9F38931B5
:1015B000A9F5E9518E2F8170D82EE695F0E0E55D12
:1015C000FB4FA590B490C12CBB2460910B01C616B3
:1015D00018F52C2D30E0A29EC001A39E900DB29E66
:1015E000900D112470E00E94A32B812FD11002C016
:1015F000860F01C0861B90910901290F311DA90199
:10160000440F551F240F351F24513D4F402F6F2D80
:101610000E943909C394D9CF0E94E0091093E802CF
:10162000F092E9020093EA02EE2051F06091E702A5
:101630007091E8028091E9029091EA020E945E09AD
:101640000F900F900F90DF91CF911F910F91FF900E
:10165000EF90DF90CF90BF90AF900895E7EEF2E06B
:101660009181282F4381628186E0890F0C949D0A25
:1016700081E00C942E0BE7EEF2E09181282F43815C
:1016800062818AEF890F0C949D0A81E00C943B0BD8
:10169000E7EEF2E0628124E0620F08F46FEF282F9A
:1016A000438181810C949D0A81E00C94480BE7EE04
:1016B000F2E0628124E0621B08F460E0282F43819D
:1016C00081810C949D0A81E00C94570BE7EEF2E0C7
:1016D000438128E0420F08F44FEF282F6281818177
:1016E0000C949D0A81E00C94660BE7EEF2E04381D6
:1016F00028E0421B08F440E0282F628181810C948D
:101700009D0A81E00C94750B20E00C949D0AFF92D9
:101710000F931F93CF93DF93EC01F12C0FEF10E0A9
:1017200060910B01F616F0F4809109012F2D30E045
:10173000280F311DC901880F991F280F391F245107
:101740003D4F70E0C8010E94B72B962F8C814091CD
:10175000EA026091E902F99E800D11240E94390984
:10176000F394DECF0E94E0099A818C8190FF02C041
:101770008F5F01C081508C83DF91CF911F910F91BA
:10178000FF900895AF92BF92CF92DF92EF92FF92B7
:101790000F931F93CF93DF93FC01828180FF02C0E0
:1017A0000FEF01C001E010E04AE0A42E80910B0190
:1017B000181708F043C080910901C12ED12CE60111
:1017C000C80FD11DCE01880F991FC80FD91FC45152
:1017D000DD4F198218821A8234E0E32EF12CB12CED
:1017E0008091D5018B0D8B302CF06A2D0E94952BAA
:1017F000892F05C087FF03C090910B01890F082E28
:10180000000C990BC816D90691F48091EA028E9DBE
:10181000A0018F9D500D11245595479555954795DD
:101820009E016091E9028091E8020E943909B00EA0
:10183000F1E0EF1AF108A1F61F5FB8CF0E94E009AE
:101840008091D501013031F4811102C080910B01EA
:10185000815007C090E0019660910B0170E00E94FA
:10186000B72B8093D501DF91CF911F910F91FF90FE
:10187000EF90DF90CF90BF90AF900895CF9380917D
:10188000090190910A01891770F4E82FF0E09F0197
:10189000220F331FE20FF31FE451FD4F118210821C
:1018A00012828F5FF0CFC0E060910B01C617C0F5C8
:1018B000EC2FF0E070E0CF010E94B72B20910901DE
:1018C000820F2091D401022E000C330B90E0E2171E
:1018D000F307CCF020910601022E000C330B2E17DB
:1018E0003F078CF09C01220F331F820F931F9C0136
:1018F00024513D4F4091EA026091E9028091E80253
:101900000E9439090BC0FC01EE0FFF1F8E0F9F1FB5
:10191000FC01E451FD4F118210821282CF5FC4CFCF
:101920000E94E009209105018091D401820F8093EB
:10193000D40190910601920F9093060119165CF460
:10194000082E000C990B40910B0150E041505109B9
:10195000841795071CF0219520930501CF910895D8
:101960008F929F92AF92BF92CF92DF92EF92FF92AF
:101970000F931F93CF93DF938C01FC014481C42FFD
:10198000D0E09E01DE010E94022C9B01AC010E946E
:10199000182C6B017C01E0E2F0E0EC1BFD0BA5E5EF
:1019A000B0E09B01AC010E94182C4B015C019F012F
:1019B000DF010E94FA2B9B01AC010E94232C9B01AA
:1019C000AC012C0D3D1D4E1D5F1DC501B4010E94D3
:1019D000CB2BC22FD22F2A3228F4F3E02F9F900175
:1019E00011240DC025E530E02C1B3109C901880FF9
:1019F000991F280F391F37FF02C02F5F3F4F3595C2
:101A00002795C22FC095F12C85E5E82EED1A80911F
:101A10000B01F816C8F4F1FC02C08E2D01C08D2F09
:101A2000909109012F2D30E0290F311DA901440F9C
:101A3000551F240F351F24513D4F4C2F6091E90253
:101A40000E943909F394E3CF0E94E009F8018481F0
:101A5000811102C091E003C0803219F49FEF90938E
:101A6000040190910401890FF8018483DF91CF91E3
:101A70001F910F91FF90EF90DF90CF90BF90AF90AC
:101A80009F908F9008950F931F93CF93DF93EC0156
:101A900000E010E080910B01282F30E002171307BF
:101AA00024F5909109019801290F311DA901440FD6
:101AB000551F240F351F24513D4F869590E04C81D2
:101AC000081719071CF4442331F002C0411103C068
:101AD0004091EA0201C040E06091E9028091E80291
:101AE0000E9439090F5F1F4FD5CF0E94E0098C81FA
:101AF00090E00196817099278C83DF91CF911F919F
:101B00000F9108958F929F92AF92BF92CF92DF92E2
:101B1000EF92FF920F931F93CF93DF93FC01B2805C
:101B2000948081E0848300E015E05BE4A52E8824A6
:101B30008394EE24EA94F12C7BE4C72ED12C80917F
:101B40000B01081708F08FC0C02FD0E01C9FF001D8
:101B50001D9FF00D1124EA52FE4F911003C0138215
:101B6000128267C02381222389F12150238334818B
:101B7000332319F09A2D921B01C0922F8091EA0213
:101B80001C9FF0011D9FF00D1124EA52FE4F899F0A
:101B9000C0011124B6010E94A32B6283211104C04D
:101BA000332311F01482A38222E02B1508F441C0E4
:101BB0001C9FF0011D9FF00D1124EA52FE4F8091F1
:101BC000E80280838091E902818333C00E94772CF0
:101BD0008230914074F582E08B1530F40E94772CAE
:101BE000B7010E94B72B02C08091E8021C9FF00150
:101BF0001D9FF00D1124EA52FE4F808322E02B1529
:101C000058F40E94772C2091E9022695622F70E00B
:101C10000E94B72B820F02C08091E9021C9FF00145
:101C20001D9FF00D1124EA52FE4F81831282A38280
:101C30008482809109019E01280F311DC901880FFE
:101C4000991F280F391F24513D4F1C9FF0011D9FE4
:101C5000F00D1124EA52FE4F4281618180810E9481
:101C600039090F5F6CCFDF91CF911F910F91FF90DA
:101C7000EF90DF90CF90BF90AF909F908F900C949B
:101C8000E009E7EEF2E080818E7F808360817181E0
:101C9000828193810E945E09109210022FEF80E7EB
:101CA00092E0215080409040E1F700C000000C9489
:101CB000E009E7EEF2E080818E7F808310921002CF
:101CC0002FEF80E792E0215080409040E1F700C084
:101CD00000000C94E0096091E702669570E04BE02B
:101CE00050E08CE091E00E94872C892B19F481E070
:101CF000809310020E94932390930902809308021C
:101D000008959091E70290FF35C09170811102C053
:101D1000926006C08B3210F0946502C0880F982B39
:101D20009093E702662351F06091E7027091E80218
:101D30008091E9029091EA020E945E096091E702B7
:101D4000669570E04BE050E08CE091E00E94872CBB
:101D5000892B19F01092100202C00E946B0E81E0D4
:101D600080930B024091EA026091E9028091E802BF
:101D70000C94840B0895682F9091E702969581E06A
:101D8000890F8B3208F081E00C94810E81E00C9475
:101D9000BB0E682F9091E70296958FEF890F09F49B
:101DA0008AE20C94810E81E00C94C90E61E00C94DF
:101DB000810EE7EEF2E080818160808386950C944D
:101DC000D60E8091E70280FD0C94410E0C94D90E42
:101DD00060E00C94810E80910E0281112EC00E9451
:101DE0009D21811104C00E9444220E947A090E9410
:101DF0005A096093E7027093E8028093E902909396
:101E0000EA026E7F61F40E947A090E945A09609387
:101E1000E7027093E8028093E9029093EA020E943D
:101E20004709109210028091E70280FF03C0869557
:101E30000E94E80E81E080930E020895E7EEF2E042
:101E400080818160808386950C94E80E0F931F93A8
:101E5000CF93DF9380911002882309F49CC0809176
:101E60000F02E091E702E695E81BE0930A02823058
:101E700049F4F0E0E95DFC4FE491CE2FD0E009E3B6
:101E80001AE059C0863049F4F0E0EC5DFC4FE49173
:101E9000CE2FD0E00DE41AE04EC0893051F4E69523
:101EA000F0E0EF5DFC4FE491CE2FD0E007E81BE0BF
:101EB00042C08F3051F4E695F0E0E25EFC4FE491D1
:101EC000CE2FD0E002EC1BE036C0853149F4F0E0C3
:101ED000E55EFC4FE491CE2FD0E00EE31CE02BC07A
:101EE0008831D9F0833239F4E9E1F3E0C591D49136
:101EF0000DE51AE020C08432A9F08532C1F48E2F9E
:101F000063E00E94892BE92FF0E0EA5EFC4FE49148
:101F1000CE2FD0E002E81DE00EC0C8E2D0E000EB1A
:101F20001CE009C0C4EFD1E003E41DE004C0C0ED33
:101F3000D7E005E319E080910B02882389F0109225
:101F40000B020E9493239E0120953095820F931FD0
:101F5000909309028093080210920D0210920C02D5
:101F600080910802909109020E94AB238C179D0773
:101F700090F0E0910802F0910902CE0FDF1FD0939C
:101F80000902C093080288E092E0F801DF91CF9146
:101F90001F910F910994DF91CF911F910F91089597
:101FA000882311F0FA0101C0FB010994CF93DF935C
:101FB000C82FD62F0E9489098C1740F00E948909EA
:101FC0008D1720F4DF91CF910C94C60E8C2FDF91EA
:101FD000CF910C94D60E0F931F93CF93FB01C28128
:101FE000CC2309F463C08C010E94E6208272F801C0
:101FF000E35CFC45E431F10508F059C0EA5AFF4FB3
:102000000C94ED2B0E94E10E06C043ED5EE066EC01
:102010007EE00E94D00FC0E04AC046EC5EE063ED77
:102020007EE0F7CF45E45BE068E37BE0F2CF48E396
:102030005BE065E47BE0EDCF43E65BE064E57BE0FD
:10204000E8CF44E55BE063E67BE0E3CF41E85BE0BB
:1020500062E77BE0DECF42E75BE061E87BE0D9CF7F
:102060004CEB59E065EA79E0D4CF45EA59E06CEBF6
:1020700079E0CFCF81E017C065E082E010C068E072
:1020800086E00DC06EE089E00AC064E18FE007C021
:1020900067E185E104C088E106C062E289E10E944F
:1020A000D60FB9CF83E20E94D60EB5CFC1E08C2FF8
:1020B000CF911F910F910895849A21B32F7E31B350
:1020C00030614FB7F894FC01CB01880F991F680F5E
:1020D000791F6E0F7F1FE617F70789F0819198E04F
:1020E00031BB000000C087FF21BB880F000000C08B
:1020F00000C000C021BB00C09A9591F7ECCF4FBF44
:102100008FE594E00197F1F700C00000089582E2A6
:1021100090E00E94942C813281F483E290E00E944E
:10212000942C823051F484E290E00E94942C91E04F
:10213000853209F090E0892F01C080E08170089518
:10214000CF93C82F811102C06FEF01C061E282E21C
:1021500090E00E94A82CC11102C06FEF01C062E0A4
:1021600083E290E00E94A82CC11102C06FEF01C071
:1021700065E284E290E0CF910C94A82C80E00E946C
:10218000A0100C949721089585E290E00E94942C71
:10219000682F70E080E090E0089585E290E00C9474
:1021A000A82C0E94C3100E94871081110CC060E00F
:1021B00070E0CB010E94CD100E9481120E9460133A
:1021C00081E00C94A0100895CF93FB01C281CC2331
:1021D000E9F09C0122513F452031310520F4825124
:1021E0000E9470130CC08031FFE59F0751F481E01D
:1021F0000E94701F43E062E081E00E94FE04C0E0A4
:1022000018C081319F45A9F482E0F2CF8031EFE51B
:102210009E0711F481E004C081319F4549F482E0BA
:102220000E94911F43E062E081E00E94FE0401C031
:10223000C1E08C2FCF9108952FEFFC0120830895EA
:10224000CF93DF93EC018881813889F028F48038BE
:10225000A1F40E94DA0910C0823861F0833869F471
:102260000E94D40989830E94D7098A8306C00E94EC
:10227000890902C00E94BF098983DF91CF91089527
:10228000CF93DF93EC0188818138B1F058F4803826
:1022900051F5D9810E94D709C82F0E94D4094D2F2A
:1022A0006C2F1DC08238B1F08338E9F40E94DA093E
:1022B000482F6A81898113C089810E94E80E898133
:1022C000811104C0DF91CF910C94590EDF91CF9111
:1022D0000C941E0F8981DF91CF910C94D109DF916D
:1022E000CF910C94840BDF91CF910895EF92FF92E0
:1022F0000F931F93CF93DF93EC01162F0196E88184
:102300004E2F50E0FA013197E331F10508F0ACC0EF
:10231000E659FF4F0C94ED2B198289E056C0898154
:10232000823039F0833061F0813029F50E949F239B
:1023300002C00E94C4109A838B837C836D8396C0F5
:102340007E0100E0802F0E947A07F7019283838349
:102350000F5FF2E0EF0EF11C0530A1F787C0898115
:10236000823049F46A817B818C819D810E94F32BAC
:102370000E94CD107BC0612FCE010E941C1176C03F
:102380004B816A8189810E9453129C838D836EC028
:102390002C813D813227232732274B816A81898115
:1023A0000E946C1263C00E94811260C00E944011A2
:1023B0005DC00E9420115AC00E94700957C00E943F
:1023C000131324C00E94151399838A834FC06B8115
:1023D00070E089819A81AE014C5F5F4F9827892711
:1023E00098270E94181342C06B8170E089819A81FE
:1023F000AE014C5F5F4F9827892798270E943D13B5
:1024000035C00E94601332C00E94401289832EC0E2
:102410006B8170E089819A81AE014C5F5F4F982794
:10242000892798270E94C01221C06B8170E08981A2
:102430009A81AE014C5F5F4F9827892798270E94A9
:10244000E41214C00E94BE1011C0CE010E94A82444
:102450002FEF81EE94E0215080409040E1F700C0E2
:1024600000000E94E02302C08FEF8883612FCE011D
:10247000DF91CF911F910F91FF90EF900C94A824C2
:1024800084E0089550E0440F551F24E1629F400D01
:10249000511D11249A0164E6869F200D311D1124DF
:1024A000C901869608950F931F93CF93DF930E94DF
:1024B00042128C010E94942CC82FD0E0DC2FCC2734
:1024C000C80101960E94942C9E01282BC901DF911E
:1024D000CF911F910F9108950F931F93CF93DF9387
:1024E000122F032F0E944212EC01602F0E94A82C91
:1024F000612FCE010196DF91CF911F910F910C9426
:10250000A82CAF92BF92CF92DF92EF92FF920F93DF
:102510001F93CF93DF93A12CE12CF12CB12C00E081
:1025200010E0C0E0D0E06701C00ED11EFE01EE0F4A
:10253000FF1FEC0DFD1DE65BFE4F259134914C2FE6
:102540006B2D8A2D0E946C122196CA30D10571F72D
:102550000C5E1F4FB39485E0B812E3CF84E6E80E1B
:10256000F11CA39484E0A812D9CFDF91CF911F91E1
:102570000F91FF90EF90DF90CF90BF90AF900895B4
:10258000EF92FF920F931F93CF93DF93EA017A01AB
:10259000E60EF71E8C01C8018696CE15DF0569F0A0
:1025A000003921E0120720F40E94942C888301C096
:1025B000188221960F5F1F4FEECFDF91CF911F91B1
:1025C0000F91FF90EF900895EF92FF920F931F935A
:1025D000CF93DF93EA017A01E60EF71E8C01C80162
:1025E0008696CE15DF0559F0003921E0120718F460
:1025F00068810E94A82C21960F5F1F4FF0CFDF91BA
:10260000CF911F910F91FF90EF900895462F843046
:1026100038F4753028F46A3018F4672F0C9453128C
:1026200080E090E0089580E108958AE492E00895C2
:10263000EF92FF920F931F93CF93DF93EA017A01FA
:10264000E60EF71E8C01C8018A549E4FCE15DF0599
:1026500069F00A3422E0120720F40E94942C888347
:1026600001C0188221960F5F1F4FEDCFDF91CF91F0
:102670001F910F91FF90EF900895EF92FF920F93AB
:102680001F93CF93DF93EA017A01E60EF71E8C01C8
:10269000C8018A549E4FCE15DF0559F00A3422E056
:1026A000120718F468810E94A82C21960F5F1F4F13
:1026B000EFCFDF91CF911F910F91FF90EF90089591
:1026C000CF93DF93C6EBD1E060E0CE010E94A82C4F
:1026D0002196C11584E0D807B9F7DF91CF9108950D
:1026E000DF92EF92FF920F931F93CF93DF9300D06F
:1026F00000D0CDB7DEB7F82E8FE08F15E8F18FEF61
:1027000093E00E94942C811137C006EB11E0FF206A
:1027100069F0011584E0180779F1C8010E94942C32
:10272000811101C0FA940F5F1F4FF1CF19821A82F5
:102730001B821C82DD24D39478018FEFE81AF80AFB
:10274000C8010E94942C89831A828823A9F09FEFE4
:10275000980F933058F48A83D9820E5F1F4FC701B8
:102760000E94942C8B83882339F07801CE01019646
:102770000E94A7048701E0CF0F900F900F900F9059
:10278000DF91CF911F910F91FF90EF90DF9008950F
:10279000AF92BF92CF92DF92EF92FF920F931F936F
:1027A000CF93DF937C015B01C42FD22FFC01828188
:1027B0008823F9F0409313020E949323909312020E
:1027C0008093110280E28C0F883008F06EC0C770D1
:1027D00081E001C0880FCA95EAF7DF91CF911F9180
:1027E0000F91FF90EF90DF90CF90BF90AF900C943F
:1027F000961880911302481335C080911102909170
:1028000012020E94AB236C01B701C5010E94D01DCA
:10281000C816D90638F510E21D0FCD17B9F080E2C1
:102820008C0F883040F4C77081E001C0880FCA95D2
:10283000EAF70E949D18183058F581E09D2F977097
:1028400001C0880F9A95EAF70E949618802F0E947F
:102850008318183050F5D77081E001C0880FDA95E1
:10286000EAF70AC080E28C0F8830F8F4C77081E084
:1028700001C0880FCA95EAF7DF91CF911F910F91A0
:10288000FF90EF90DF90CF90BF90AF900C949D1889
:10289000802FDF91CF911F910F91FF90EF90DF90EC
:1028A000CF90BF90AF900C948318DF91CF911F9180
:1028B0000F91FF90EF90DF90CF90BF90AF90089571
:1028C0000F939C01CB01243F4CE5340731F188F490
:1028D000293DFCE53F07D9F02A3D4CE5340779F165
:1028E000283D3C45A9F506E221EE41EE68ED7CE588
:1028F0002BC0263FFCE53F07E1F0A8F0273F3C4511
:1029000039F507E225EE46EE67EF7CE51DC007E2EC
:1029100025EE45EE69ED7CE517C006E221EE40EEBE
:1029200064EF7CE511C007E225EE44EE65EF7CE53F
:102930000BC006E221EE42EE66EF7CE505C008E240
:1029400021E045EE6AED7CE50E94C81380E008C0F6
:10295000FC018281882319F01092130201C081E0EA
:102960000F910895CF93DF93EC01FB0182818823BF
:1029700009F41FC1C230FCE5DF0708F41BC1C631F2
:102980009CE5D90738F09E012B5F3C452930310585
:1029900008F010C10E94B02190930F0380930E03A2
:1029A000C031ECE5DE0709F4C3C008F041C0C8300F
:1029B0008CE5D80709F49AC0F0F4C430ECE5DE07E2
:1029C00009F487C068F4C2308CE5D80709F477C0F1
:1029D000C330DC4509F0E3C080910E03826076C00D
:1029E000C630ECE5DE0709F46EC008F07BC08091CC
:1029F0000E0388606BC0CC308CE5D80709F485C025
:102A000068F4CA30ECE5DE0709F474C008F079C058
:102A10000E94171B80910E03806858C0CE308CE551
:102A2000D80709F476C008F07FC080910E038BC0F0
:102A3000CC3FECE5DE0709F44FC018F5C3318CE557
:102A4000D80709F47DC078F4C131ECE5DE0709F45C
:102A500073C0C231DC4509F0A2C00E94171B8091EF
:102A60000E038F7733C0C5318CE5D80709F472C0E7
:102A700008F486C0CB3FDC4509F091C080910F037C
:102A80003EC0C115FDE5DF0709F45FC058F4CE3F35
:102A90009CE5D90709F444C008F43FC080910F03B6
:102AA00082602DC0C230FDE5DF0709F475C008F46F
:102AB0005DC0C330DD4509F072C080E06EC080911A
:102AC0000E03816003C080910E03806180930E032A
:102AD00066C080910E0311C080910F0382608093C5
:102AE0000F035DC080910E038062F0CF80910E03D2
:102AF0008064ECCF80910E0388608460E7CF8160B2
:102B0000EECF80910E038E7FE1CF80910E038D7FFB
:102B1000DDCF80910E03877FD9CF80910F0318C03E
:102B200080910F038D7FDBCF80910E038F7ECECF00
:102B300080910E038F7DCACF80910E038F7BC6CF0D
:102B400080910E03877F8B7FC1CF80910F038D7F94
:102B50008E7FC5CF80910E0382FB222720F991E062
:102B6000922790FB82F990FB83F9B0CF80910F03FD
:102B7000982F909591708E7F892B90FB81F9AFCF24
:102B80000E94171B80910E0387FB222720F991E0FA
:102B9000922790FB87F99ACF81E00E94462280918C
:102BA0000E0390910F030E94C1210E94171B80E029
:102BB00001C081E0DF91CF910895CF93DF938631FB
:102BC0009C4541F5EB010E94E620982F8A812091D7
:102BD000170130911801882379F09A7A81E009F47D
:102BE00080E080931402911102C069E201C065E3A4
:102BF000C9010E94E1220AC080911402811102C021
:102C000069E201C065E3C9010E94EC220E943421FF
:102C100080E001C081E0DF91CF91089590931A0286
:102C2000809319020895E0911902F0911A023097E9
:102C300021F00190F081E02D099480E00895E09169
:102C40001902F0911A02309799F020912301222362
:102C500059F020910E0327FF07C0DC012C9111963B
:102C60002C93119725E02C930280F381E02D099499
:102C7000089520911702309118022817390771F032
:102C80009093180280931702E0911902F0911A02B2
:102C9000309721F00680F781E02D09940895209166
:102CA0001502309116022817390771F09093160219
:102CB00080931502E0911902F0911A02309721F0E9
:102CC0000084F185E02D0994089585B7806885BF5B
:102CD00085B7806885BF089581E008950C946C16CF
:102CE00008950C9470160C9470160C9473160C9432
:102CF00070160C9477160C9470160E9465160E943C
:102D00007B160C9479160E948A230E94A8070E94C1
:102D1000D1100E9407240E94EB0EEEE0F3E08081C8
:102D20008068808380910E0390910F030E94C121DF
:102D30000C9475167F928F929F92AF92BF92CF9212
:102D4000DF92EF92FF920F931F93CF93DF93CDB754
:102D5000DEB72A970FB6F894DEBF0FBECDBF0E9434
:102D600071160E9470160E94DA070E946E16811179
:102D700011C08FEF89838A831B820E949323816015
:102D8000782F9D838C8349815A816B818D810E942C
:102D90004E174FC04CE1A42E42E0B42E00E010E0EC
:102DA000702E802F0E947A076C01F501819091901E
:102DB0005F01882699268114910431F40F5F1F4F1B
:102DC0000530110569F7D5CF8091AF0281FD0E94D2
:102DD000830780E0EE24E394F12C94012E213F211F
:102DE000232B09F18E837F82CE20DF2081E0CD2846
:102DF00009F480E088870E9493238160782F9A8766
:102E000089874E815F8168858A850E944E17000FF1
:102E1000111FF801E45EFD4F80819181E826F926BB
:102E2000F182E08206C08F5FEE0CFF1C8A30A9F6AB
:102E3000C5CF0E94260F0E94131690911B0289177E
:102E4000C9F00E94131680931B022A960FB6F894BD
:102E5000DEBF0FBECDBFDF91CF911F910F91FF90CD
:102E6000EF90DF90CF90BF90AF909F908F907F902A
:102E70000C947C052A960FB6F894DEBF0FBECDBF2A
:102E8000DF91CF911F910F91FF90EF90DF90CF9046
:102E9000BF90AF909F908F907F900895CF93DF93D6
:102EA000CDB7DEB72B970FB6F894DEBF0FBECDBF00
:102EB0004F83588769877A878B87DE01119686E072
:102EC000FD0111928A95E9F785E0FE0137960190A0
:102ED0000D928A95E1F749815A816B817C818D81C0
:102EE0009E810E94D31D2B960FB6F894DEBF0FBEB5
:102EF000CDBFDF91CF910895FC01808191810E9427
:102F0000A7200895CF93882309F49CC0C82F823846
:102F1000C1F40E94131681FD95C069E380911701E9
:102F2000909118010E94E1220E9434212FEF81EE3E
:102F300094E0215080409040E1F700C0000069E338
:102F400019C0833801F50E94131680FD7BC063E52C
:102F500080911701909118010E94E1220E94342172
:102F60002FEF81EE94E0215080409040E1F700C0C7
:102F7000000063E580911701909118010E94EC22F6
:102F8000CF910C9434218438C1F40E94131682FD31
:102F900059C067E480911701909118010E94E122C5
:102FA0000E9434212FEF81EE94E021508040904028
:102FB000E1F700C0000067E4DDCF8CEF8C0F813AB1
:102FC000D0F46C2F80911701909118010E9461221A
:102FD000882349F06C2F80911701909118010E946D
:102FE000EC220E9434216C2F8091170190911801DE
:102FF0000E94E122C5CF80E28C0F883048F4C77070
:1030000081E001C0880FCA95EAF70E94E920B8CF95
:10301000EBE5EC0FE33040F4F0E0E354FE4F808149
:1030200090E0CF910C943916C85AC73158F4EC2F60
:10303000F0E0EE0FFF1FE157FE4F80819181CF91AD
:103040000C944F16CF910895882309F45BC0682F24
:10305000823879F40E94131681FF54C069E380918D
:103060001701909118010E94E1220E94342169E326
:1030700010C08338B1F40E94131680FF43C063E58B
:1030800080911701909118010E94E1220E94342141
:1030900063E580911701909118010E94EC220C9435
:1030A0003421843879F40E94131682FF2BC067E420
:1030B00080911701909118010E94E1220E94342111
:1030C00067E4E7CF8CEF860F813A18F380E2860F32
:1030D000883048F4677081E001C0880F6A95EAF78C
:1030E0000E94EF20DCCF8BE5860F833020F480E058
:1030F00090E00C943916685A673120F480E090E033
:103100000C944F160895CF93C82F0E948217C9338D
:1031100049F42FEF87EE93E0215080409040E1F793
:1031200000C000008C2FCF910C942418882321F02C
:103130000E94E9200C9434210895882321F00E94F4
:10314000EF200C9434210895CF92DF92EF92FF92FA
:103150000F931F93CF93DF937C01062FC72FFC01A2
:10316000158112951F70D281D1110E9406210E94F3
:10317000DF20882399F0DD2389F08C2F807F803435
:1031800021F080E2800F883048F082E00E947E21AA
:103190000E94DF2091E0D82ED92601C0D12CCC2E60
:1031A000C2948FE0C8228C2D90E0FC01E358FF4FC1
:1031B0000C94ED2B8C2F807FCF70882311F0C2955B
:1031C000C07FDD2399F0CC2309F482C180E2800F17
:1031D000883010F0011104C08C2F0E94E92003C038
:1031E0008C2F0E94F9200E94342172C1802F0E94EE
:1031F0002418CC2309F491C180E2800F883010F0AC
:10320000011104C08C2F0E94EF2003C08C2F0E945C
:10321000FF200E94342181C18C2F807FCF708032AB
:1032200011F0C295C07F002319F00130C9F022C00F
:10323000DD2371F0112341F0113031F40E94192186
:103240008C2B0E94212169C10E9419218C2B1DC049
:10325000112319F0113009F460C10E942A2125C000
:10326000DD2321F0163008F058C10EC0153008F0EB
:1032700054C11BC0DD2361F0112331F0F7018581BA
:1032800080FF26C18F7085838C2F0E94961845C1C0
:10329000112359F0093309F02CC1FFEF27EE83E029
:1032A000F15020408040E1F722C18C2F0E949D18F0
:1032B00034C18C2F86958695837019F0813061F02A
:1032C0002CC1DD2321F0802F9C2F937002C080E061
:1032D00090E00E94391629C1DD2321F0802F9C2F18
:1032E000937002C080E090E00E944F161EC18C2FA8
:1032F000837009F045C0D11114C1402F4295469505
:103300004770440F440F602F6F70862F90E0A0E04D
:10331000B0E0042E04C0880F991FAA1FBB1F0A9497
:10332000D2F704FF10C00FE010E020E030E004C04E
:10333000000F111F221F331F4A95D2F700951095D9
:103340002095309503C000E010E09801C695C69521
:10335000C370BC01CD01602B712B822B932BC2302B
:1033600049F058F4C13019F00E94241FDAC00E94BD
:10337000121FD7C00E94361FD4C00E94101FD1C098
:10338000DD2319F08C2F817001C08695882309F404
:10339000C8C0402F429546954770440F440F602F98
:1033A0006F70862F90E0A0E0B0E0042E04C0880F7C
:1033B000991FAA1FBB1F0A94D2F704FF10C00FE089
:1033C00010E020E030E004C0000F111F221F331F67
:1033D0004A95D2F7009510952095309503C000E0EE
:1033E00010E09801C695C695C370BC01CD01602B55
:1033F000712B822B932BC23049F058F4C13019F055
:103400000E94E91F8EC00E94D71F8BC00E94FB1F25
:1034100088C00E944A1F85C0CF70DD2339F08C2FF1
:103420000E94701F802F0E9496187BC0802F0E94E0
:103430009D188C2F0E94911F74C0023F01F128F447
:10344000003F41F0013FA1F03FC0033FF9F0043FCE
:1034500039F13AC0DD2341F0153008F05EC08C2F01
:103460008F710E94B61F59C0163008F056C0F7CFB2
:10347000DD2339F08C2F8F710E94701F4EC0DD2329
:10348000C9F38C2F8F710E94911F47C0DD2329F053
:103490008C2F8F710E945B1F40C00E94561F3DC041
:1034A000DD2349F0CF718C2F0E94701F63E08C2FB9
:1034B0000E94692132C081E00E947E21123068F1B1
:1034C00082E00E947E2129C0DD2331F0112391F298
:1034D000802F0E94821721C0112399F2093349F4E9
:1034E0009FEFE7EEF3E09150E040F040E1F700C0DD
:1034F0000000802F0E94241810C04C2F4F70602FA6
:10350000C7010E9485050E94811E0FC04C2F4F707D
:10351000602FC7010E94880508C088EF8C0D843099
:1035200020F40E9413160E947C05DD20C9F00E9441
:10353000DB2080FD15C0F70112820E94D5200E9479
:10354000701FC7010E94D11A0E94D520DF91CF9130
:103550001F910F91FF90EF90DF90CF900C94911FEF
:10356000DF91CF911F910F91FF90EF90DF90CF905F
:1035700008950F931F93CF93DF93EC0168817981B6
:103580008A810E94B2208C010E940D200E94FE1EA2
:10359000B801CE010E94A418DF91CF911F910F9125
:1035A0000895CF93DF93EC01988189812B813C8131
:1035B000232B31F08F3F31F481E09F3F19F403C09A
:1035C00081E001C080E080FD19C0CE010E942C0581
:1035D00081110CC00E94DF20882381F08A8188231A
:1035E00069F082E0DF91CF910C947E21CE010E94A0
:1035F000B91ACE01DF91CF910C94E703DF91CF91FF
:1036000008950E9406210E9416210E94342180E024
:1036100090E00E94391680E090E00C944F16809163
:103620001701909118010E94F7220C94011B0E942F
:10363000F6200C940F1BE92FE295EF704E2F50E00F
:10364000FA013297EE30F105B0F4E357FF4F0C94D6
:10365000ED2B803F91F018F4883E68F40EC0843F53
:1036600051F40BC0883E48F0813F29F406C093FB1B
:10367000882780F9089580E0089581E008950E94E8
:10368000A7200E941B1B0895CF93DF9300D000D08A
:103690001F92CDB7DEB70F900F900F900F900F9045
:1036A000DF91CF910895CF93DF9300D000D000D069
:1036B000CDB7DEB726960FB6F894DEBF0FBECDBFEE
:1036C000DF91CF9108951F93CF93DF93C09127028D
:1036D00016E080912802C81799F0D0E01C9FF001F5
:1036E0001D9FF00D1124E75DFD4F408151816281E6
:1036F0007381848195810E94531B2196C770E9CF05
:10370000DF91CF911F9108954091590250915A0233
:1037100060915B0270915C0280915D0290915E020B
:103720000C94531B0F931F93CF93DF9380915E02F2
:1037300082958F7009F05DC080915B02882309F447
:1037400058C080912702109128026091590270910F
:103750005A02C0915C02D0915D0291E06F3F09F086
:1037600090E0292F06E0811709F443C0209721F04B
:103770007F3F21F030E003C031E001C0322F90E004
:1037800030FD34C0089FF001099FF00D1124DF01C6
:10379000A75DBD4F11963C911197371327C03C91FF
:1037A000361324C012963C91129731111FC0139604
:1037B0004D915C9114974C1B5D0B483C5105B0F446
:1037C00080915E028F70806180935E02E25DFD4FAA
:1037D00080818F708061808389E592E00E94D11A98
:1037E000DF91CF911F910F910C94631B019687700D
:1037F000BACFDF91CF911F910F9108959F92AF9211
:10380000BF92CF92DF92EF92FF920F931F93CF93CD
:10381000DF93CDB7DEB761970FB6F894DEBF0FBE6A
:10382000CDBF8C0185E0F801DE011D9601900D925F
:103830008A95E1F7F80140815181E2809091590227
:1038400060915A0220915C0230915D022115310590
:1038500031F06F3F31F481E09F3F19F403C081E004
:1038600001C080E0F82FF1709F2E80FD46C1F80165
:10387000A380B48089E5C82E82E0D82EF0905B0248
:10388000F501E21BF30BFF2009F4DFC080915E021B
:10389000E83CF10508F09BC0282F207F09F052C0BA
:1038A000561313C0491311C0FE2CE1100EC08F70C7
:1038B000806180935E020E94841BC6010E94D11A1F
:1038C00080915E02F801858358C1AB2831F05F3FDB
:1038D00031F481E04F3F19F403C081E001C080E082
:1038E00080FD03C081E08E2502C080E090E0F82FCB
:1038F000F170FF2E80FF1CC08091270220912802CA
:1039000036E0821709F417C190E0389FF001399F23
:10391000F00D1124E75DFD4F6181561306C06081F3
:10392000461303C06281E61203C001968770E9CF97
:10393000FE2CEE2009F421C180915E02816080930B
:103940005E025AC0561306C0491304C0E11002C0FB
:10395000F8019FC04D875E878D859E850E943F1B25
:10396000882379F1EE2069F120915E02822F829501
:103970008F7090E0029774F08091590290915A02F2
:1039800098878F831986BB86AA862C87CE010796D7
:103990000E94D11A86E0F801A9E5B2E001900D92EB
:1039A0008A95E1F70E94921B0E94841B0DC0561756
:1039B00029F14D875E878D859E850E943F1B811171
:1039C0002CC0C8010E94D11AFF24F394D6C0282F1E
:1039D000207F69F77A2DB98AA88A6E2D89890E947D
:1039E000441B89E592E00E94D11A86E0F60111920B
:1039F0008A95E9F70E94841BF12CBFC04913D9CFE7
:103A0000E110D7CFF8018583C8010E94D11A86E062
:103A1000F60111928A95E9F7B0C0EE2091F220915B
:103A20005E02822F82958F7090E002970CF4B2CFE5
:103A30008091590290915A029A8389831B82BD8298
:103A4000AC822E83CE010196A3CFE83CF10508F0AD
:103A500047C0FE2CEE2009F4B4CF561330C04913F2
:103A60002EC020915E0220FD21C0822F82958F7092
:103A7000482F50E041155105C9F0F80125834F301A
:103A8000510541F08F5F982F9295907F822F8F7014
:103A9000892B8583C8010E94D11A86E0F801A9E527
:103AA000B2E001900D928A95E1F742C086E0F801FC
:103AB000A9E5B2E001900D928A95E1F75EC04D87CD
:103AC0005E878D859E850E943F1B811163CF80910B
:103AD0005E02816080935E02C8010E94D11A4DC0CF
:103AE0007A2DB98AA88A6E2D89890E94441B86E0A6
:103AF000F60111928A95E9F71BC0EE2009F461CF17
:103B00004D875E878D859E850E943F1BF82E8823FA
:103B100009F457CF86E0F801A9E5B2E001900D92D3
:103B20008A95E1F789E592E00E947C170E94921B3A
:103B30000E94841B22C04D875E878D859E850E94D2
:103B4000A720292F22952F70223028F49F7039F05A
:103B5000811105C00BC0243028F49F7049F4805EA9
:103B6000883020F0C8010E94D11A9F2CF92C05C082
:103B7000F8019581907F99F7F9CF8F2D61960FB657
:103B8000F894DEBF0FBECDBFDF91CF911F910F9193
:103B9000FF90EF90DF90CF90BF90AF909F900895EF
:103BA00088EC90E008951F93CF93DF93CDB7DEB7F5
:103BB0002C970FB6F894DEBF0FBECDBF4F8358874A
:103BC00069877A878B879C87CE0107960E94FE1BA8
:103BD0008823D1F09F8188852A853B85232B31F06E
:103BE0008F3F31F481E09F3F19F403C081E001C0B1
:103BF00080E080FD47C04F81588569857A858B8537
:103C00009C850E94531B3EC086E0FE013796DE0174
:103C1000119601900D928A95E1F7FF81E8856A85FA
:103C20007B856115710531F0EF3F31F481E0FF3F95
:103C300019F403C081E001C080E080FD23C0209121
:103C4000280230E0C9010196877099274091270228
:103C500050E084179507F1F1F983EA837D836C8343
:103C600096E0929FD001939FB00D1124A75DBD4FA8
:103C7000FE01319601900D929A95E1F7809328020A
:103C80000E94631B16E080912702909128028917F9
:103C900071F1189FC0011124875D9D4F0E94FE1B8A
:103CA000882329F1E09127021E9FF0011124E75D8E
:103CB000FD4F4081518162817381848195810E9491
:103CC000531B8091270290E001968770992780937B
:103CD0002702D9CF0E94171B1092280210922702A8
:103CE000E9E5F2E086E0DF011D928A95E9F72C967E
:103CF0000FB6F894DEBF0FBECDBFDF91CF911F91FD
:103D00000895EF92FF920F931F93CF93DF938C014F
:103D1000892B09F46CC0F12CEE24E394E801219680
:103D2000F8018491843740F4843008F051C0813028
:103D300081F0823019F15BC0853709F444C0A8F1E5
:103D40009CE7980F903708F052C08F770E94241894
:103D500041C00E5F1F4FFE01849190E2980F983092
:103D600050F48770FE2D01C0FF0F8A95EAF78F2F60
:103D70000E94092114C00E9482172DC00E5F1F4FA0
:103D8000FE01849190E2980F983060F48770FE2DC8
:103D900001C0FF0F8A95EAF78F2F0E940F210E9422
:103DA000342119C00E94241816C00E5F1F4FFE0157
:103DB000C491CC2381F08FE99FE00197F1F700C017
:103DC0000000C150F6CF0E5F1F4FFE01F49003C0FC
:103DD0000E9482178E018F2D882309F49FCFEFE96F
:103DE000FFE03197F1F700C000008150F5CFDF917F
:103DF000CF911F910F91FF90EF900895089508952E
:103E00000C94FF1E0C94001F0E94021F60938602F8
:103E10007093870280938802909389020C94011B0F
:103E20000C94041F0F931F93009186021091870238
:103E30002091880230918902602B712B822B932B69
:103E40001F910F910C94041F0F931F9300918602F2
:103E5000109187022091880230918902602371239A
:103E6000822393231F910F910C94041F0F931F9390
:103E70000091860210918702209188023091890278
:103E800060277127822793271F910F910C94041F9D
:103E90000C94FF1E0E94481F60938202709383025D
:103EA00080938402909385020C94011B60E070E083
:103EB000CB010C944A1F0F931F9341E050E060E048
:103EC00070E08A019B0104C0000F111F221F331FE5
:103ED0008A95D2F7C901B8011F910F910C944A1F1E
:103EE0000F931F9341E050E060E070E004C0440F86
:103EF000551F661F771F8A95D2F780918202909195
:103F00008302A0918402B09185028A019B01082B53
:103F1000192B2A2B3B2BC901B8011F910F910C942F
:103F20004A1F0F931F9341E050E060E070E004C02F
:103F3000440F551F661F771F8A95D2F740955095FD
:103F4000609570958091820290918302A091840285
:103F5000B09185028A019B01082319232A233B2360
:103F6000C901B8011F910F910C944A1F0F931F9321
:103F700041E050E060E070E004C0440F551F661F50
:103F8000771F8A95D2F78091820290918302A09147
:103F90008402B09185028A019B01082719272A27EC
:103FA0003B27C901B8011F910F910C944A1F0F9331
:103FB0001F9300918202109183022091840230911C
:103FC0008502602B712B822B932B1F910F910C94E8
:103FD0004A1F0F931F930091820210918302209138
:103FE00084023091850260237123822393231F91E1
:103FF0000F910C944A1F0F931F930091820210910E
:1040000083022091840230918502602771278227E4
:1040100093271F910F910C944A1F08952AE0929FB5
:10402000800D1124E82FE695E695E695877051E01E
:1040300001C0550F8A95EAF785E0E89FF001112449
:10404000E15AFD4F20E030E070E04081CB01022ECC
:1040500002C0969587950A94E2F78170819584272E
:104060008523842781932F5F3F4F2530310569F7E2
:1040700008952AE0929F800D1124682F6695669519
:104080006695982F977085E0689FB001112440E0F5
:1040900050E080E0FB01E40FF51FE15AFD4F208165
:1040A00030E0092E02C0369527950A94E2F7217078
:1040B0003327042E01C0220F0A94EAF7822B4F5FA8
:1040C0005F4F4530510531F70895BF92CF92DF928F
:1040D000EF92FF920F931F93CF93DF938C01C090C9
:1040E0008202D0908302E0908402F0908502809159
:1040F000860290918702A0918802B0918902C82A15
:10410000D92AEA2AFB2ACFE1D0E0D701C6010C2E3A
:1041100004C0B695A795979587950A94D2F780FD28
:1041200004C0219790F7B12C07C0BC2EB8018C2F8A
:104130000E9491050197A9F38B2DDF91CF911F91DB
:104140000F91FF90EF90DF90CF90BF900895CF93A5
:10415000DF93EC010E946520BE010E949105DF9172
:10416000CF9108951F93CF93DF93EB019091260297
:10417000992321F0CB010E94A72013C0882349F086
:10418000CB010E946520182F682FCE010E940E20BF
:1041900004C0CB010E943920182FBE01812F0E943C
:1041A0009105DF91CF911F91089580918A028595A5
:1041B00085958595089580918A02877008959091DC
:1041C0008A02977081E009F480E008958091AE0240
:1041D00008959091AE02892B8093AE020895809548
:1041E0009091AE0289238093AE0208951092AE02A0
:1041F00008959091AD02892B8093AD02089580952A
:104200009091AD0289238093AD0208951092AD0282
:1042100008959091AC02892B8093AC02089580950B
:104220009091AC0289238093AC0208951092AC0265
:10423000089580918B02089508950C941C210C948C
:104240001D2190918B02981721F080938B020C9482
:104250001F21089580918B02882329F010928B02F0
:1042600080E00C941F210895E0911701F09118014E
:104270008091AE028083E0911701F0911801908146
:104280008091AD02892B8083E0911701F091180194
:1042900090818091AC02892B808380918B0288234E
:1042A00081F0E0911701F09118019081892B8083B2
:1042B00080911701909118010E944B2281110E9458
:1042C0002A2180911701909118010C941F160C94CB
:1042D0001C2198E0899F90011124262B20938A02AB
:1042E0000E94701F80918A028595859585950C9412
:1042F000672110928A0280E00C94672120918A0243
:104300008095822380938A02982F977079F430E009
:10431000482F082E000C550B2417350739F08595CA
:10432000859585950E94911F0C94792108956FEFD2
:104330007FEF80E090E00C94C62C80E090E00E943B
:10434000A22C21E08C3E9E4F09F020E0822F0895A0
:1043500082E090E00C94942C83E090E00C94942CF8
:10436000CF9384E090E00E94942CC82F81E290E0EB
:104370000E94942C2C2F30E0A901582BCA01CF9118
:104380000895CF93C92F682F84E090E00E94A82C55
:104390006C2F81E290E0CF910C94A82CAB01BC0172
:1043A0008FE090E00C94BA2CAB01BC0183E190E06B
:1043B0000C94BA2C60E070E0CB010C94D42160E046
:1043C00070E0CB010E94CE210C94DA216CEE7EEFDE
:1043D00080E090E00E94C62C60E082E090E00E94C5
:1043E000A82C60E083E090E00E94A82C1092860246
:1043F00010928702109288021092890260E084E095
:1044000090E00E94A82C60E081E290E00E94A82C3D
:1044100060E085E090E00E94A82C60E086E090E0FB
:104420000E94A82C6FEF87E090E00E94A82C40E04B
:1044300050E0BA0188E090E00E94BA2C60E08DE084
:1044400090E00E94A82C40E050E0BA0188E190E0A2
:104450000E94BA2C60E087E190E00E94A82C40E026
:1044600050E0BA018CE190E00E94BA2C60E080E25A
:1044700090E00E94A82C40E050E0BA0188E190E072
:104480000E94BA2C0C94DF210C94E621682F8EE058
:1044900090E00C94A82CFC01329680912301882393
:1044A00031F080910E0387FF02C09EE101C096E0CB
:1044B00080E0915028F021912223D9F38F5FF9CF2A
:1044C0000895662351F1209123012223E9F02091E0
:1044D0000E0327FF19C0462F4695469546954E3147
:1044E000E0F4677021E030E002C0220F331F6A95CC
:1044F000E2F7FC01E40FF11D828190E028233923CB
:1045000081E0232B69F409C0FC01329608962191C1
:10451000621729F0E817F907D1F780E0089581E0E4
:1045200008959C01FC0132969FEF80E0419146176F
:1045300089F09F3F19F4411101C0982F8F5F863099
:10454000A9F79F3F39F0F901E90FF11D97FDFA95A1
:104550006283089508959C012A5F3F4FFC014281C8
:10456000461301C01282019682179307B9F7089586
:10457000262F2695269526952E3168F4FC01E20F0C
:10458000F11D677021E030E001C0220F6A95EAF763
:104590008281282B22830895262F269526952695FD
:1045A0002E3170F4FC01E20FF11D677021E030E064
:1045B00001C0220F6A95EAF7209582812823228381
:1045C000089520912301222329F020910E0327FD35
:1045D0000C94B8220C94912220912301222329F0DB
:1045E00020910E0327FD0C94CC220C94AB22209139
:1045F0002301FC013296222331F080910E0387FFC4
:1046000002C08EE101C086E0DF011D928A95E9F7C4
:10461000089508950C9409230C940923CF930E94C4
:104620000C230E94DA070E940A23C0E08C2F0E940C
:104630007A07892B29F4CF5FC530C1F780E001C02C
:1046400081E0CF9108950C9409230C9423230E94B8
:10465000252380911403843049F11092B00220E4A4
:1046600088E190E00FB6F894A895809360000FBEA3
:104670002093600080E00E947C050E94252383B780
:10468000817F846083BF83B7816083BF789488957E
:1046900083B78E7F83BF0FB6F894A8958091600092
:1046A000886180936000109260000FBE08950C94A2
:1046B00009230E94171B0E9413160E947C050C946C
:1046C00057231F920F920FB60F9211248F939F932F
:1046D000AF93BF938091B002811113C080910A0300
:1046E00090910B03A0910C03B0910D034196A11D75
:1046F000B11D80930A0390930B03A0930C03B09316
:104700000D03BF91AF919F918F910F900FBE0F90AE
:104710001F90189582E084BD93E095BD9AEF97BDF8
:1047200080936E0008952FB7F89480910A039091BA
:104730000B03A0910C03B0910D032FBF08952FB769
:10474000F89460910A0370910B0380910C0390918F
:104750000D032FBF08959C014FB7F89480910A0371
:1047600090910B03A0910C03B0910D034FBF821BDE
:10477000930B089578941F920F920FB60F92112405
:104780008F939F93AF93BF9380910A0390910B03F4
:10479000A0910C03B0910D030196A11DB11D809352
:1047A0000A0390930B03A0930C03B0930D03BF91E6
:1047B000AF919F918F910F900FBE0F901F90189502
:1047C00087E797E790930108809300089AE088E1D3
:1047D0000FB6F894A895809360000FBE9093600088
:1047E000FFCF0C94BE100E94DA078FE39CE901977B
:1047F000F1F700C000000E94DA0780E00E947A070B
:1048000080FF04C00E94F1230C94E02308950E94CD
:104810009D21811102C00E9444220E94A821809300
:10482000AF020E94B02190930F0380930E030E9469
:10483000AC21682F70E080E090E00E94101F609132
:1048400082027091830280918402909185020C947F
:10485000481F8091D10208950895CF93DF9300D02F
:104860001F92CDB7DEB790911403943011F5898370
:104870007B836A839093E9008FEF9091E8008150E9
:1048800095FD06C095ED9A95F1F700008111F5CFE1
:104890008091E80085FF0DC040E050E063E070E0EB
:1048A000CE0101960E94A0268091E8008E77809329
:1048B000E8000F900F900F90DF91CF910895BC0109
:1048C00084E00C942D24BC0183E00C942D24CF9320
:1048D000DF9320912301222339F020910E0327FF3B
:1048E00003C060E224E002C068E021E02093E90018
:1048F0002FEF3091E800215035FD06C035ED3A9597
:10490000F1F700002111F5CF2091E80025FF1DC02F
:10491000EC0180912301811105C040E050E068E086
:1049200070E003C070E040E050E0CE010E94A0269D
:104930008091E8008E778093E80080E2FE01A1EB91
:10494000B2E001900D928A95E1F7DF91CF91089541
:10495000CF93603219F5209114032430F9F4C091FB
:10496000E900CF703091EC00232F217030FD20E85A
:10497000C22B22E02093E9002091E80020FF0BC029
:1049800040E050E060E270E00E94A0268091E800E4
:104990008E778093E800CF70C093E900CF9108959F
:1049A00080911303811109C00E947C280E94D9289C
:1049B0008091E20084608093E200089510921303D6
:1049C0000895089508950C94592342E061EC81E024
:1049D0000E94F52742E261EC84E00E94F52742E262
:1049E00061EC82E00E94F52742E260EC83E00C94E7
:1049F000F52780911603833009F462C030F48130CA
:104A000071F0823009F49BC008958A3009F487C0A0
:104A10008B3009F46DC0893009F0A9C020C08091A5
:104A20001503813A09F0A3C08091E800877F809345
:104A3000E8008091190390911A03892B21F460E218
:104A400081EB92E003C060E080E090E070E00E94C3
:104A500036278091E8008B778093E8000895809155
:104A60001503813209F083C08091190390911A03D4
:104A7000009719F0029709F07AC08091E800877FCB
:104A80008093E8008091E80082FD05C080911403C6
:104A90008111F8CF6CC02091F3008091F20090E07A
:104AA000922B029729F48091F1008B7F813021F4C1
:104AB0008091F1008093D1028091E8008B7753C000
:104AC00080911503813A09F052C0809119039091A9
:104AD0001A03892B09F04BC08091E800877F8093EF
:104AE000E8008091E80080FFFCCF8091230136C070
:104AF000809115038132D9F58091190390911A03A1
:104B0000892BA9F58091E800877F8093E8000E94B7
:104B10002A2880911703809323010C94171B8091FE
:104B20001503813221F58091E800877F8093E800AA
:104B30000E942A28809118038093D20208958091C0
:104B40001503813AA1F48091E800877F8093E80003
:104B50008091E80080FFFCCF8091D2028093F10029
:104B60008091E8008E778093E8000C942A280895BD
:104B70001F93CF93DF93CDB7DEB7A0970FB6F8940E
:104B8000DEBF0FBECDBF84B7877F84BF0FB6F8945A
:104B9000A895809160008861809360001092600009
:104BA0000FBE90E080E80FB6F89480936100909378
:104BB00061000FBE0E947D160E947C280E94D928A9
:104BC0008091E20084608093E20078940E946E2BD2
:104BD0000E94831689E191E00E940E1613E08091F5
:104BE0001403853069F40E942723809112038823DF
:104BF000B1F30E940E23882391F30E948A26EFCFFF
:104C00000E949A1680911403843009F51093E900EC
:104C10008091E80082FF1BC08091E80085FF0AC0F8
:104C200040E050E060E270E0CE0101960E94EB2689
:104C300091E001C090E08091E8008B778093E800DC
:104C4000992329F060E2CE0101960E9476110E941C
:104C500071160E947016C3CF0C942E26292F33276D
:104C600023303105C9F060F42130310581F0223064
:104C7000310509F047C08BE590E026E735E046C0F6
:104C80002132310511F12232310561F13BC082E15F
:104C900090E021ED35E03AC099278130910561F02F
:104CA00040F08230910559F0039761F5E0E3F5E0BB
:104CB00008C0E2E7F5E005C0E8E5F5E002C0E6E39C
:104CC000F5E0849190E09F0121C063307105D0F43C
:104CD000660F771FFB01E753FE4F2081318189E08A
:104CE00090E014C06330710568F4FB01EE0FFF1F04
:104CF000ED53FE4F20813181FB01E054FE4F808156
:104D000090E004C080E090E020E030E0FA013183E0
:104D10002083089580E189BD82E189BD09B400FE48
:104D2000FDCF8091D8008F7D8093D8008091E000E6
:104D300082608093E0008091E00081FDFCCF0895C7
:104D4000CF92DF92EF92FF920F931F93CF93DF9357
:104D5000EC018B017A010E944928811133C0E114D2
:104D6000F10439F0F70180819181081B190BC80FFC
:104D7000D91FC12CD12C0115110519F18091E80022
:104D800085FD16C08091E8008E778093E800E114DD
:104D9000F10449F0F70180819181C80ED91ED182BA
:104DA000C08285E00FC00E944928882321F30AC0F1
:104DB00089918093F10001501109FFEFCF1ADF0AAA
:104DC000DACF80E0DF91CF911F910F91FF90EF90AC
:104DD000DF90CF900895CF92DF92EF92FF920F93E2
:104DE0001F93CF93DF93EC018B017A010E94492836
:104DF000811133C0E114F10439F0F7018081918110
:104E0000081B190BC80FD91FC12CD12C0115110576
:104E100019F18091E80085FD16C08091E8008B773C
:104E20008093E800E114F10449F0F7018081918159
:104E3000C80ED91ED182C08285E00FC00E944928C9
:104E4000882321F30AC08091F10089930150110950
:104E5000FFEFCF1ADF0ADACF80E0DF91CF911F9109
:104E60000F91FF90EF90DF90CF90089520911B035A
:104E700030911C032617370748F06115710539F486
:104E80002091E8002E772093E80001C0B901FC01D1
:104E900020E06115710579F1809114038823F1F107
:104EA0008530F1F18091E80083FD3CC08091E800FD
:104EB00082FD2EC08091E80080FFEBCF2091F300AF
:104EC0008091F20090E0922B6115710551F08830CD
:104ED000910538F421912093F100615071090196F8
:104EE000F3CF21E0089709F020E08091E8008E7769
:104EF0008093E800CECF2111CFCF0AC08091140358
:104F0000882361F0853061F08091E80083FD0AC05C
:104F10008091E80082FFF2CF80E0089582E008955A
:104F200083E0089581E0089520911B0330911C03D4
:104F30002617370748F06115710539F42091E8000C
:104F40002E772093E80001C0B901FC0120E0611533
:104F5000710591F180911403882309F440C08530D4
:104F600009F43FC08091E80083FD3DC08091E800D6
:104F700082FD2FC08091E80080FFE9CF2091F300EF
:104F80008091F20090E0922B6115710559F0883004
:104F9000910540F424912093F100319661507109FC
:104FA0000196F2CF21E0089709F020E08091E80017
:104FB0008E778093E800CBCF2111CCCF0AC08091AF
:104FC0001403882361F0853061F08091E80083FD4F
:104FD0000AC08091E80082FFF2CF80E0089582E06D
:104FE000089583E0089581E00895982F973068F53B
:104FF0009093E900981739F07091EC002091ED0042
:105000005091F00003C0242F762F50E021FD02C004
:105010009F5FECCF3091EB003E7F3093EB003091FF
:10502000ED003D7F3093ED003091EB003160309327
:10503000EB007093EC002093ED005093F000209172
:10504000EE0027FDE5CF80E008958F708093E900A2
:1050500081E008958091150387FF11C08091E800D9
:1050600082FD05C0809114038111F8CF11C0809199
:10507000E8008B770BC080911403882349F080915E
:10508000E80080FFF8CF8091E8008E778093E800F9
:1050900008952091E4003091E50095E64091EC0000
:1050A000842F817040FF23C08091E80080FD1DC0E7
:1050B00080911403882399F0853099F08091EB005A
:1050C00085FD11C04091E4005091E500241735079B
:1050D00029F3915011F09A01E1CF84E0089582E024
:1050E000089583E0089581E0089580E00895409157
:1050F000E80042FFDDCF08950E94EA280E94F228CE
:10510000E0EEF0E0808181608083E8EDF0E0808176
:105110008F77808319BCA7EDB0E08C918E7F8C9344
:1051200080818F7E80831092130308950F931F93C5
:10513000CF93DF930E94EA280E94F228C8EDD0E0C6
:1051400088818F77888388818068888388818F7D34
:10515000888319BC1092140310921003109212034A
:105160001092110300EE10E0F80180818B7F8083A4
:1051700088818160888342E060E080E00E94F527BA
:10518000E1EEF0E080818E7F8083E2EEF0E08081CE
:1051900081608083808188608083F80180818E7F38
:1051A0008083888180618883DF91CF911F910F91E7
:1051B0000895E8EDF0E080818F7E8083E7EDF0E0F8
:1051C00080818160808384E082BF81E080931303CB
:1051D0000C949628E8EDF0E080818E7F8083109219
:1051E000E20008951092DA001092E10008951F92F3
:1051F0000F920FB60F9211242F933F934F935F930B
:105200006F937F938F939F93AF93BF93EF93FF938E
:105210008091E10082FF0BC08091E20082FF07C015
:105220008091E1008B7F8093E1000E946D2B809143
:10523000DA0080FF1FC08091D80080FF1BC08091E2
:10524000DA008E7F8093DA008091D90080FF0DC054
:1052500080E189BD82E189BD09B400FEFDCF81E016
:10526000809314030E94D02405C019BC109214032B
:105270000E94DE248091E10080FF19C08091E2004D
:1052800080FF15C08091E2008E7F8093E2008091C4
:10529000E20080618093E2008091D8008062809378
:1052A000D80019BC85E0809314030E94E224809109
:1052B000E10084FF30C08091E20084FF2CC080E1D7
:1052C00089BD82E189BD09B400FEFDCF8091D8007F
:1052D0008F7D8093D8008091E1008F7E8093E100E4
:1052E0008091E2008F7E8093E2008091E2008160F5
:1052F0008093E20080911003882311F084E007C0BE
:105300008091E30087FD02C081E001C083E08093CB
:1053100014030E94E3248091E10083FF29C080915F
:10532000E20083FF25C08091E100877F8093E10048
:1053300082E080931403109210038091E1008E7F2D
:105340008093E1008091E2008E7F8093E200809163
:10535000E20080618093E20042E060E080E00E9431
:10536000F5278091F00088608093F0000E94E1248E
:10537000FF91EF91BF91AF919F918F917F916F912D
:105380005F914F913F912F910F900FBE0F901F9003
:1053900018951F920F920FB60F9211242F933F93DF
:1053A0004F935F936F937F938F939F93AF93BF932D
:1053B000CF93DF93EF93FF93C091E900CF7080917B
:1053C000EC00D82FD17080FDD0E81092E9008091D8
:1053D000F000877F8093F00078940E940D2A10924D
:1053E000E9008091F00088608093F000CD2BCF70B1
:1053F000C093E900FF91EF91DF91CF91BF91AF9101
:105400009F918F917F916F915F914F913F912F91DC
:105410000F900FBE0F901F9018951F93CF93DF939F
:10542000CDB7DEB7AA970FB6F894DEBF0FBECDBFDB
:10543000E5E1F3E08091F100819323E0ED31F207A3
:10544000C9F70E94F9248091E80083FF2EC1809162
:10545000150390911603492F50E04A30510508F08A
:1054600024C1FA01E556FF4F0C94ED2B803821F052
:10547000823809F01AC108C080911103909112037B
:10548000992389F082600FC0809119038F70873053
:1054900008F00BC18093E9008091EB0085FB882721
:1054A00080F91092E9009091E800977F9093E800CE
:1054B0008093F1001092F100D1C0282F2D7F09F0C8
:1054C000F4C0882319F0823061F0EFC08091170397
:1054D000813009F0EAC0933009F080E08093120334
:1054E0002EC08091170381112AC0809119038F70FB
:1054F0002FEF280F263008F0D8C08093E9002091C4
:10550000EB0020FF1CC0933021F48091EB008062FF
:1055100014C09091EB0090619093EB0021E030E09B
:10552000A90102C0440F551F8A95E2F74093EA0093
:105530001092EA008091EB0088608093EB0010925B
:10554000E9008091E800877F8093E8000E942A2884
:10555000ACC08111AAC0109117031F778091E3009E
:105560008078812B8093E3008091E800877F80938F
:10557000E8000E942A288091E80080FFFCCF8091FB
:10558000E30080688093E300111102C082E001C053
:1055900083E08093140389C08058823008F085C06E
:1055A00080911703909118038C3D53E0950779F58E
:1055B00083E08A838AE289834FB7F894DE011396E9
:1055C00020E03EE051E2E32FF0E050935700E491F9
:1055D00020FF03C0E295EF703F5FEF708E2F90E0E9
:1055E000EA3010F0C79601C0C0968D939D932F5F4F
:1055F000243149F74FBF8091E800877F8093E8000E
:105600006AE270E0CE0101960E94362716C06091D2
:10561000190370911A03AE014F5F5F4F0E942C2651
:10562000BC01892B09F441C09091E800977F9093C9
:10563000E80089819A810E9494278091E8008B7705
:105640008093E80032C0803881F58091E800877F40
:105650008093E800809110038093F1008091E8002E
:105660008E7772CF811121C080911703909118031A
:1056700099270297D4F48091E800877F8093E8000F
:1056800080911703809310030E942A2880911003B1
:10569000811106C08091E30087FD02C081E001C056
:1056A00084E0809314030E94E5248091E80083FF46
:1056B0000AC08091E800877F8093E8008091EB002A
:1056C00080628093EB00AA960FB6F894DEBF0FBEFF
:1056D000CDBFDF91CF911F9108950895CF93809111
:1056E00014038823A1F0C091E900CF709091EC00E1
:1056F000892F817090FD80E8C82B1092E90080917D
:10570000E80083FD0E940D2ACF70C093E900CF917D
:105710000895991B79E004C0991F961708F0961B0D
:10572000881F7A95C9F78095089587FB082E06266D
:1057300087FD819567FD61950E94892B0EF49195F7
:1057400007FC81950895AA1BBB1B51E107C0AA1F46
:10575000BB1FA617B70710F0A61BB70B881F991F12
:105760005A95A9F780959095BC01CD01089597FBB6
:10577000072E16F4009407D077FD09D00E94A32BC2
:1057800007FC05D03EF4909581959F4F0895709544
:1057900061957F4F0895A1E21A2EAA1BBB1BFD0144
:1057A0000DC0AA1FBB1FEE1FFF1FA217B307E40700
:1057B000F50720F0A21BB30BE40BF50B661F771F58
:1057C000881F991F1A9469F7609570958095909538
:1057D0009B01AC01BD01CF010895EE0FFF1F0590A5
:1057E000F491E02D09946927962769277827872760
:1057F000782708950E94022C332312F48A1B9B0BF6
:105800000C94132CA29FB001B39FC001A39F700DF5
:10581000811D1124911DB29F700D811D1124911DB8
:1058200008950E94022CB7FF0895821B930B0895E0
:105830000E94022CA59F900DB49F900DA49F800DF7
:10584000911D11240895B7FF0C94182C0E94182C58
:10585000821B930B08958F929F92AF92BF92CF922B
:10586000DF92EF92FF92CF93DF93EC016881798111
:105870008A819B81611571058105910521F464E29E
:1058800079ED8BE597E02DE133EF41E050E00E94A8
:10589000DC2C49015A019B01AC01A7EAB1E40E944A
:1058A000182C6B017C01ACEEB4EFA50194010E94B1
:1058B000262CDC01CB018C0D9D1DAE1DBF1DB7FF3D
:1058C00003C00197A109B04888839983AA83BB8349
:1058D0009F77DF91CF91FF90EF90DF90CF90BF90B7
:1058E000AF909F908F9008950E942B2C089580E098
:1058F00091E00E942B2C0895A0E0B0E0809300017D
:1059000090930101A0930201B09303010895FC015B
:105910004150504030F001900616D1F73197CF0139
:105920000895882799270895F999FECF92BD81BDE2
:10593000F89A992780B50895A6E1B0E044E050E0D8
:105940000C94CE2CA8E1B0E042E050E00C94CE2CB8
:10595000262FF999FECF92BD81BDF89A019700B428
:10596000021639F01FBA20BD0FB6F894FA9AF99AC8
:105970000FBE08950396272F0E94A92C0E94A82CE1
:10598000252F0E94A92C242F0C94A92C0196272F97
:105990000E94A92C0C94A82CDC01CB01FC01F999E4
:1059A000FECF06C0F2BDE1BDF89A319600B40D926B
:1059B00041505040B8F70895052E97FB1EF400940F
:1059C0000E94F32C57FD07D00E94CB2B07FC03D07D
:1059D0004EF40C94F32C50954095309521953F4F03
:1059E0004F4F5F4F089590958095709561957F4FCB
:0A59F0008F4F9F4F0895F894FFCFEA
:1059FA0001000000010102000A000A0A01191A1B2B
:105A0A001C1D1E1F2021228C02292467242C24639A
:105A1A00245F2401E200E900EA00B500B600B700FD
:105A2A00CD008301CC008A01920194012102230254
:105A3A0024022502260227022A02B300B4006F00BC
:105A4A007000818283F5F73534C69766949091F693
:105A5A00363233310001020202020606060909093A
:105A6A000909090F0F0F0F0F0F1515151819191915
:105A7A00191919191919192324252525252525E266
:105A8A0000E900EA00B500B600B700CD008301CCFA
:105A9A00008A01920194012102230224022502268E
:105AAA000227022A02B300B4006F007000818283C9
:105ABA0040226D7206E30505068805A105C10500A9
:00000001FF
